{
  "_format": "hh-sol-artifact-1",
  "contractName": "SubscriptionNFT",
  "sourceName": "contracts/SubscriptionNFT.sol",
  "abi": [
    {
      "inputs": [],
      "stateMutability": "nonpayable",
      "type": "constructor"
    },
    {
      "anonymous": false,
      "inputs": [
        {
          "indexed": false,
          "internalType": "string",
          "name": "subscriptionName",
          "type": "string"
        },
        {
          "indexed": false,
          "internalType": "uint256",
          "name": "price",
          "type": "uint256"
        },
        {
          "indexed": false,
          "internalType": "uint256",
          "name": "term",
          "type": "uint256"
        }
      ],
      "name": "Added",
      "type": "event"
    },
    {
      "anonymous": false,
      "inputs": [
        {
          "indexed": true,
          "internalType": "address",
          "name": "owner",
          "type": "address"
        },
        {
          "indexed": true,
          "internalType": "address",
          "name": "approved",
          "type": "address"
        },
        {
          "indexed": true,
          "internalType": "uint256",
          "name": "tokenId",
          "type": "uint256"
        }
      ],
      "name": "Approval",
      "type": "event"
    },
    {
      "anonymous": false,
      "inputs": [
        {
          "indexed": true,
          "internalType": "address",
          "name": "owner",
          "type": "address"
        },
        {
          "indexed": true,
          "internalType": "address",
          "name": "operator",
          "type": "address"
        },
        {
          "indexed": false,
          "internalType": "bool",
          "name": "approved",
          "type": "bool"
        }
      ],
      "name": "ApprovalForAll",
      "type": "event"
    },
    {
      "anonymous": false,
      "inputs": [
        {
          "indexed": false,
          "internalType": "uint256",
          "name": "_subscriptionTemplateId",
          "type": "uint256"
        }
      ],
      "name": "CreatedSubscriptionTemplate",
      "type": "event"
    },
    {
      "anonymous": false,
      "inputs": [
        {
          "indexed": false,
          "internalType": "address",
          "name": "recipient",
          "type": "address"
        },
        {
          "indexed": false,
          "internalType": "uint256",
          "name": "subscriptionTemplateId",
          "type": "uint256"
        }
      ],
      "name": "Issued",
      "type": "event"
    },
    {
      "anonymous": false,
      "inputs": [
        {
          "indexed": true,
          "internalType": "address",
          "name": "from",
          "type": "address"
        },
        {
          "indexed": true,
          "internalType": "address",
          "name": "to",
          "type": "address"
        },
        {
          "indexed": true,
          "internalType": "uint256",
          "name": "tokenId",
          "type": "uint256"
        }
      ],
      "name": "Transfer",
      "type": "event"
    },
    {
      "inputs": [
        {
          "internalType": "string",
          "name": "subscriptionName",
          "type": "string"
        },
        {
          "internalType": "uint256",
          "name": "price",
          "type": "uint256"
        },
        {
          "internalType": "uint256",
          "name": "term",
          "type": "uint256"
        }
      ],
      "name": "addCreator",
      "outputs": [
        {
          "internalType": "uint256",
          "name": "",
          "type": "uint256"
        }
      ],
      "stateMutability": "nonpayable",
      "type": "function"
    },
    {
      "inputs": [
        {
          "internalType": "address",
          "name": "to",
          "type": "address"
        },
        {
          "internalType": "uint256",
          "name": "tokenId",
          "type": "uint256"
        }
      ],
      "name": "approve",
      "outputs": [],
      "stateMutability": "nonpayable",
      "type": "function"
    },
    {
      "inputs": [
        {
          "internalType": "address",
          "name": "owner",
          "type": "address"
        }
      ],
      "name": "balanceOf",
      "outputs": [
        {
          "internalType": "uint256",
          "name": "",
          "type": "uint256"
        }
      ],
      "stateMutability": "view",
      "type": "function"
    },
    {
      "inputs": [
        {
          "internalType": "uint256",
          "name": "tokenId",
          "type": "uint256"
        }
      ],
      "name": "getAggregatedTokenData",
      "outputs": [
        {
          "components": [
            {
              "internalType": "uint256",
              "name": "tokenId",
              "type": "uint256"
            },
            {
              "internalType": "address",
              "name": "ownerAddress",
              "type": "address"
            },
            {
              "internalType": "bool",
              "name": "expired",
              "type": "bool"
            },
            {
              "components": [
                {
                  "internalType": "uint256",
                  "name": "subscriptionTemplateId",
                  "type": "uint256"
                },
                {
                  "internalType": "uint256",
                  "name": "expirationTime",
                  "type": "uint256"
                }
              ],
              "internalType": "struct SubscriptionNFT.TokenData",
              "name": "tokenData",
              "type": "tuple"
            },
            {
              "components": [
                {
                  "internalType": "address",
                  "name": "creatorAddress",
                  "type": "address"
                },
                {
                  "internalType": "string",
                  "name": "subscriptionName",
                  "type": "string"
                },
                {
                  "internalType": "uint256",
                  "name": "price",
                  "type": "uint256"
                },
                {
                  "internalType": "uint256",
                  "name": "term",
                  "type": "uint256"
                }
              ],
              "internalType": "struct SubscriptionNFT.SubscriptionTemplate",
              "name": "subscriptionData",
              "type": "tuple"
            }
          ],
          "internalType": "struct SubscriptionNFT.AggregatedTokenData",
          "name": "",
          "type": "tuple"
        }
      ],
      "stateMutability": "view",
      "type": "function"
    },
    {
      "inputs": [
        {
          "internalType": "uint256",
          "name": "tokenId",
          "type": "uint256"
        }
      ],
      "name": "getApproved",
      "outputs": [
        {
          "internalType": "address",
          "name": "",
          "type": "address"
        }
      ],
      "stateMutability": "view",
      "type": "function"
    },
    {
      "inputs": [
        {
          "internalType": "address",
          "name": "owner",
          "type": "address"
        },
        {
          "internalType": "address",
          "name": "operator",
          "type": "address"
        }
      ],
      "name": "isApprovedForAll",
      "outputs": [
        {
          "internalType": "bool",
          "name": "",
          "type": "bool"
        }
      ],
      "stateMutability": "view",
      "type": "function"
    },
    {
      "inputs": [
        {
          "internalType": "uint256",
          "name": "subscriptionTemplateId",
          "type": "uint256"
        }
      ],
      "name": "issueSubscriptionNFT",
      "outputs": [
        {
          "internalType": "uint256",
          "name": "",
          "type": "uint256"
        }
      ],
      "stateMutability": "payable",
      "type": "function"
    },
    {
      "inputs": [],
      "name": "name",
      "outputs": [
        {
          "internalType": "string",
          "name": "",
          "type": "string"
        }
      ],
      "stateMutability": "view",
      "type": "function"
    },
    {
      "inputs": [
        {
          "internalType": "uint256",
          "name": "tokenId",
          "type": "uint256"
        }
      ],
      "name": "ownerOf",
      "outputs": [
        {
          "internalType": "address",
          "name": "",
          "type": "address"
        }
      ],
      "stateMutability": "view",
      "type": "function"
    },
    {
      "inputs": [
        {
          "internalType": "address",
          "name": "from",
          "type": "address"
        },
        {
          "internalType": "address",
          "name": "to",
          "type": "address"
        },
        {
          "internalType": "uint256",
          "name": "tokenId",
          "type": "uint256"
        }
      ],
      "name": "safeTransferFrom",
      "outputs": [],
      "stateMutability": "nonpayable",
      "type": "function"
    },
    {
      "inputs": [
        {
          "internalType": "address",
          "name": "from",
          "type": "address"
        },
        {
          "internalType": "address",
          "name": "to",
          "type": "address"
        },
        {
          "internalType": "uint256",
          "name": "tokenId",
          "type": "uint256"
        },
        {
          "internalType": "bytes",
          "name": "_data",
          "type": "bytes"
        }
      ],
      "name": "safeTransferFrom",
      "outputs": [],
      "stateMutability": "nonpayable",
      "type": "function"
    },
    {
      "inputs": [
        {
          "internalType": "address",
          "name": "operator",
          "type": "address"
        },
        {
          "internalType": "bool",
          "name": "approved",
          "type": "bool"
        }
      ],
      "name": "setApprovalForAll",
      "outputs": [],
      "stateMutability": "nonpayable",
      "type": "function"
    },
    {
      "inputs": [
        {
          "internalType": "uint256",
          "name": "",
          "type": "uint256"
        }
      ],
      "name": "subscriptionTemplates",
      "outputs": [
        {
          "internalType": "address",
          "name": "creatorAddress",
          "type": "address"
        },
        {
          "internalType": "string",
          "name": "subscriptionName",
          "type": "string"
        },
        {
          "internalType": "uint256",
          "name": "price",
          "type": "uint256"
        },
        {
          "internalType": "uint256",
          "name": "term",
          "type": "uint256"
        }
      ],
      "stateMutability": "view",
      "type": "function"
    },
    {
      "inputs": [
        {
          "internalType": "bytes4",
          "name": "interfaceId",
          "type": "bytes4"
        }
      ],
      "name": "supportsInterface",
      "outputs": [
        {
          "internalType": "bool",
          "name": "",
          "type": "bool"
        }
      ],
      "stateMutability": "view",
      "type": "function"
    },
    {
      "inputs": [],
      "name": "symbol",
      "outputs": [
        {
          "internalType": "string",
          "name": "",
          "type": "string"
        }
      ],
      "stateMutability": "view",
      "type": "function"
    },
    {
      "inputs": [
        {
          "internalType": "uint256",
          "name": "tokenId",
          "type": "uint256"
        }
      ],
      "name": "tokenURI",
      "outputs": [
        {
          "internalType": "string",
          "name": "",
          "type": "string"
        }
      ],
      "stateMutability": "view",
      "type": "function"
    },
    {
      "inputs": [
        {
          "internalType": "address",
          "name": "from",
          "type": "address"
        },
        {
          "internalType": "address",
          "name": "to",
          "type": "address"
        },
        {
          "internalType": "uint256",
          "name": "tokenId",
          "type": "uint256"
        }
      ],
      "name": "transferFrom",
      "outputs": [],
      "stateMutability": "nonpayable",
      "type": "function"
    }
  ],
  "bytecode": "0x60806040523480156200001157600080fd5b506040518060400160405280600f81526020017f537562736372697074696f6e4e465400000000000000000000000000000000008152506040518060400160405280600381526020017f5355420000000000000000000000000000000000000000000000000000000000815250816000908051906020019062000096929190620000b8565b508060019080519060200190620000af929190620000b8565b505050620001cd565b828054620000c69062000168565b90600052602060002090601f016020900481019282620000ea576000855562000136565b82601f106200010557805160ff191683800117855562000136565b8280016001018555821562000136579182015b828111156200013557825182559160200191906001019062000118565b5b50905062000145919062000149565b5090565b5b80821115620001645760008160009055506001016200014a565b5090565b600060028204905060018216806200018157607f821691505b602082108114156200019857620001976200019e565b5b50919050565b7f4e487b7100000000000000000000000000000000000000000000000000000000600052602260045260246000fd5b6134bd80620001dd6000396000f3fe6080604052600436106100fe5760003560e01c8063532137d61161009557806395d89b411161006457806395d89b4114610387578063a22cb465146103b2578063b88d4fde146103db578063c87b56dd14610404578063e985e9c514610441576100fe565b8063532137d6146102a05780636352211e146102d057806370a082311461030d5780637e711d381461034a576100fe565b8063095ea7b3116100d1578063095ea7b3146101e557806323b872dd1461020e57806338da41de1461023757806342842e0e14610277576100fe565b806301ffc9a71461010357806306fdde0314610140578063080665a51461016b578063081812fc146101a8575b600080fd5b34801561010f57600080fd5b5061012a6004803603810190610125919061228f565b61047e565b6040516101379190612902565b60405180910390f35b34801561014c57600080fd5b50610155610560565b604051610162919061291d565b60405180910390f35b34801561017757600080fd5b50610192600480360381019061018d91906122e1565b6105f2565b60405161019f9190612bbf565b60405180910390f35b3480156101b457600080fd5b506101cf60048036038101906101ca9190612348565b610818565b6040516101dc9190612826565b60405180910390f35b3480156101f157600080fd5b5061020c60048036038101906102079190612253565b61089d565b005b34801561021a57600080fd5b506102356004803603810190610230919061214d565b6109b5565b005b34801561024357600080fd5b5061025e60048036038101906102599190612348565b610a15565b60405161026e949392919061288d565b60405180910390f35b34801561028357600080fd5b5061029e6004803603810190610299919061214d565b610aed565b005b6102ba60048036038101906102b59190612348565b610b0d565b6040516102c79190612bbf565b60405180910390f35b3480156102dc57600080fd5b506102f760048036038101906102f29190612348565b610cd7565b6040516103049190612826565b60405180910390f35b34801561031957600080fd5b50610334600480360381019061032f91906120e8565b610d89565b6040516103419190612bbf565b60405180910390f35b34801561035657600080fd5b50610371600480360381019061036c9190612348565b610e41565b60405161037e9190612b9d565b60405180910390f35b34801561039357600080fd5b5061039c610ff1565b6040516103a9919061291d565b60405180910390f35b3480156103be57600080fd5b506103d960048036038101906103d49190612217565b611083565b005b3480156103e757600080fd5b5061040260048036038101906103fd919061219c565b611099565b005b34801561041057600080fd5b5061042b60048036038101906104269190612348565b6110fb565b604051610438919061291d565b60405180910390f35b34801561044d57600080fd5b5061046860048036038101906104639190612111565b6111a2565b6040516104759190612902565b60405180910390f35b60007f80ac58cd000000000000000000000000000000000000000000000000000000007bffffffffffffffffffffffffffffffffffffffffffffffffffffffff1916827bffffffffffffffffffffffffffffffffffffffffffffffffffffffff1916148061054957507f5b5e139f000000000000000000000000000000000000000000000000000000007bffffffffffffffffffffffffffffffffffffffffffffffffffffffff1916827bffffffffffffffffffffffffffffffffffffffffffffffffffffffff1916145b80610559575061055882611236565b5b9050919050565b60606000805461056f90612e26565b80601f016020809104026020016040519081016040528092919081815260200182805461059b90612e26565b80156105e85780601f106105bd576101008083540402835291602001916105e8565b820191906000526020600020905b8154815290600101906020018083116105cb57829003601f168201915b5050505050905090565b6000603c82148061060557506228206f82145b8061061357506301e1853e82145b610652576040517f08c379a000000000000000000000000000000000000000000000000000000000815260040161064990612a5d565b60405180910390fd5b6000831180156106645750620f424083105b6106a3576040517f08c379a000000000000000000000000000000000000000000000000000000000815260040161069a90612b7d565b60405180910390fd5b600084511180156106b657506020845111155b6106f5576040517f08c379a00000000000000000000000000000000000000000000000000000000081526004016106ec9061297d565b60405180910390fd5b6106ff60076112a0565b600061070b60076112b6565b905060405180608001604052803373ffffffffffffffffffffffffffffffffffffffff168152602001868152602001858152602001848152506009600083815260200190815260200160002060008201518160000160006101000a81548173ffffffffffffffffffffffffffffffffffffffff021916908373ffffffffffffffffffffffffffffffffffffffff16021790555060208201518160010190805190602001906107ba929190611e61565b5060408201518160020155606082015181600301559050507f837102bfa3fa1437554712a20c1c1d67b6689aa3f9739b4fb7cb2d1eab97a2b98585856040516108059392919061293f565b60405180910390a1809150509392505050565b6000610823826112c4565b610862576040517f08c379a000000000000000000000000000000000000000000000000000000000815260040161085990612afd565b60405180910390fd5b6004600083815260200190815260200160002060009054906101000a900473ffffffffffffffffffffffffffffffffffffffff169050919050565b60006108a882610cd7565b90508073ffffffffffffffffffffffffffffffffffffffff168373ffffffffffffffffffffffffffffffffffffffff161415610919576040517f08c379a000000000000000000000000000000000000000000000000000000000815260040161091090612b3d565b60405180910390fd5b8073ffffffffffffffffffffffffffffffffffffffff16610938611330565b73ffffffffffffffffffffffffffffffffffffffff161480610967575061096681610961611330565b6111a2565b5b6109a6576040517f08c379a000000000000000000000000000000000000000000000000000000000815260040161099d90612a7d565b60405180910390fd5b6109b08383611338565b505050565b6109c66109c0611330565b826113f1565b610a05576040517f08c379a00000000000000000000000000000000000000000000000000000000081526004016109fc90612b5d565b60405180910390fd5b610a108383836114cf565b505050565b60096020528060005260406000206000915090508060000160009054906101000a900473ffffffffffffffffffffffffffffffffffffffff1690806001018054610a5e90612e26565b80601f0160208091040260200160405190810160405280929190818152602001828054610a8a90612e26565b8015610ad75780601f10610aac57610100808354040283529160200191610ad7565b820191906000526020600020905b815481529060010190602001808311610aba57829003601f168201915b5050505050908060020154908060030154905084565b610b0883838360405180602001604052806000815250611099565b505050565b6000610b1960066112a0565b6000610b2560066112b6565b9050610b313382611736565b6000600960008581526020019081526020016000206040518060800160405290816000820160009054906101000a900473ffffffffffffffffffffffffffffffffffffffff1673ffffffffffffffffffffffffffffffffffffffff1673ffffffffffffffffffffffffffffffffffffffff168152602001600182018054610bb790612e26565b80601f0160208091040260200160405190810160405280929190818152602001828054610be390612e26565b8015610c305780601f10610c0557610100808354040283529160200191610c30565b820191906000526020600020905b815481529060010190602001808311610c1357829003601f168201915b50505050508152602001600282015481526020016003820154815250509050836008600084815260200190815260200160002060000181905550806060015142610c7a9190612cb5565b60086000848152602001908152602001600020600101819055507fa59f12e354e8cd10bb74c559844c2dd69a5458e31fe56c7594c62ca57480509a3385604051610cc59291906128d9565b60405180910390a18192505050919050565b6000806002600084815260200190815260200160002060009054906101000a900473ffffffffffffffffffffffffffffffffffffffff169050600073ffffffffffffffffffffffffffffffffffffffff168173ffffffffffffffffffffffffffffffffffffffff161415610d80576040517f08c379a0000000000000000000000000000000000000000000000000000000008152600401610d7790612abd565b60405180910390fd5b80915050919050565b60008073ffffffffffffffffffffffffffffffffffffffff168273ffffffffffffffffffffffffffffffffffffffff161415610dfa576040517f08c379a0000000000000000000000000000000000000000000000000000000008152600401610df190612a9d565b60405180910390fd5b600360008373ffffffffffffffffffffffffffffffffffffffff1673ffffffffffffffffffffffffffffffffffffffff168152602001908152602001600020549050919050565b610e49611ee7565b6000600860008481526020019081526020016000206040518060400160405290816000820154815260200160018201548152505090506040518060a00160405280848152602001610e9985610cd7565b73ffffffffffffffffffffffffffffffffffffffff168152602001428360200151101515815260200182815260200160096000846000015181526020019081526020016000206040518060800160405290816000820160009054906101000a900473ffffffffffffffffffffffffffffffffffffffff1673ffffffffffffffffffffffffffffffffffffffff1673ffffffffffffffffffffffffffffffffffffffff168152602001600182018054610f5090612e26565b80601f0160208091040260200160405190810160405280929190818152602001828054610f7c90612e26565b8015610fc95780601f10610f9e57610100808354040283529160200191610fc9565b820191906000526020600020905b815481529060010190602001808311610fac57829003601f168201915b5050505050815260200160028201548152602001600382015481525050815250915050919050565b60606001805461100090612e26565b80601f016020809104026020016040519081016040528092919081815260200182805461102c90612e26565b80156110795780601f1061104e57610100808354040283529160200191611079565b820191906000526020600020905b81548152906001019060200180831161105c57829003601f168201915b5050505050905090565b61109561108e611330565b8383611910565b5050565b6110aa6110a4611330565b836113f1565b6110e9576040517f08c379a00000000000000000000000000000000000000000000000000000000081526004016110e090612b5d565b60405180910390fd5b6110f584848484611a7d565b50505050565b6060611106826112c4565b611145576040517f08c379a000000000000000000000000000000000000000000000000000000000815260040161113c90612b1d565b60405180910390fd5b600061114f611ad9565b9050600081511161116f576040518060200160405280600081525061119a565b8061117984611af0565b60405160200161118a929190612802565b6040516020818303038152906040525b915050919050565b6000600560008473ffffffffffffffffffffffffffffffffffffffff1673ffffffffffffffffffffffffffffffffffffffff16815260200190815260200160002060008373ffffffffffffffffffffffffffffffffffffffff1673ffffffffffffffffffffffffffffffffffffffff16815260200190815260200160002060009054906101000a900460ff16905092915050565b60007f01ffc9a7000000000000000000000000000000000000000000000000000000007bffffffffffffffffffffffffffffffffffffffffffffffffffffffff1916827bffffffffffffffffffffffffffffffffffffffffffffffffffffffff1916149050919050565b6001816000016000828254019250508190555050565b600081600001549050919050565b60008073ffffffffffffffffffffffffffffffffffffffff166002600084815260200190815260200160002060009054906101000a900473ffffffffffffffffffffffffffffffffffffffff1673ffffffffffffffffffffffffffffffffffffffff1614159050919050565b600033905090565b816004600083815260200190815260200160002060006101000a81548173ffffffffffffffffffffffffffffffffffffffff021916908373ffffffffffffffffffffffffffffffffffffffff160217905550808273ffffffffffffffffffffffffffffffffffffffff166113ab83610cd7565b73ffffffffffffffffffffffffffffffffffffffff167f8c5be1e5ebec7d5bd14f71427d1e84f3dd0314c0f7b2291e5b200ac8c7c3b92560405160405180910390a45050565b60006113fc826112c4565b61143b576040517f08c379a000000000000000000000000000000000000000000000000000000000815260040161143290612a3d565b60405180910390fd5b600061144683610cd7565b90508073ffffffffffffffffffffffffffffffffffffffff168473ffffffffffffffffffffffffffffffffffffffff161480611488575061148781856111a2565b5b806114c657508373ffffffffffffffffffffffffffffffffffffffff166114ae84610818565b73ffffffffffffffffffffffffffffffffffffffff16145b91505092915050565b8273ffffffffffffffffffffffffffffffffffffffff166114ef82610cd7565b73ffffffffffffffffffffffffffffffffffffffff1614611545576040517f08c379a000000000000000000000000000000000000000000000000000000000815260040161153c906129bd565b60405180910390fd5b600073ffffffffffffffffffffffffffffffffffffffff168273ffffffffffffffffffffffffffffffffffffffff1614156115b5576040517f08c379a00000000000000000000000000000000000000000000000000000000081526004016115ac906129fd565b60405180910390fd5b6115c0838383611c9d565b6115cb600082611338565b6001600360008573ffffffffffffffffffffffffffffffffffffffff1673ffffffffffffffffffffffffffffffffffffffff168152602001908152602001600020600082825461161b9190612d3c565b925050819055506001600360008473ffffffffffffffffffffffffffffffffffffffff1673ffffffffffffffffffffffffffffffffffffffff16815260200190815260200160002060008282546116729190612cb5565b92505081905550816002600083815260200190815260200160002060006101000a81548173ffffffffffffffffffffffffffffffffffffffff021916908373ffffffffffffffffffffffffffffffffffffffff160217905550808273ffffffffffffffffffffffffffffffffffffffff168473ffffffffffffffffffffffffffffffffffffffff167fddf252ad1be2c89b69c2b068fc378daa952ba7f163c4a11628f55a4df523b3ef60405160405180910390a4611731838383611ca2565b505050565b600073ffffffffffffffffffffffffffffffffffffffff168273ffffffffffffffffffffffffffffffffffffffff1614156117a6576040517f08c379a000000000000000000000000000000000000000000000000000000000815260040161179d90612add565b60405180910390fd5b6117af816112c4565b156117ef576040517f08c379a00000000000000000000000000000000000000000000000000000000081526004016117e6906129dd565b60405180910390fd5b6117fb60008383611c9d565b6001600360008473ffffffffffffffffffffffffffffffffffffffff1673ffffffffffffffffffffffffffffffffffffffff168152602001908152602001600020600082825461184b9190612cb5565b92505081905550816002600083815260200190815260200160002060006101000a81548173ffffffffffffffffffffffffffffffffffffffff021916908373ffffffffffffffffffffffffffffffffffffffff160217905550808273ffffffffffffffffffffffffffffffffffffffff16600073ffffffffffffffffffffffffffffffffffffffff167fddf252ad1be2c89b69c2b068fc378daa952ba7f163c4a11628f55a4df523b3ef60405160405180910390a461190c60008383611ca2565b5050565b8173ffffffffffffffffffffffffffffffffffffffff168373ffffffffffffffffffffffffffffffffffffffff16141561197f576040517f08c379a000000000000000000000000000000000000000000000000000000000815260040161197690612a1d565b60405180910390fd5b80600560008573ffffffffffffffffffffffffffffffffffffffff1673ffffffffffffffffffffffffffffffffffffffff16815260200190815260200160002060008473ffffffffffffffffffffffffffffffffffffffff1673ffffffffffffffffffffffffffffffffffffffff16815260200190815260200160002060006101000a81548160ff0219169083151502179055508173ffffffffffffffffffffffffffffffffffffffff168373ffffffffffffffffffffffffffffffffffffffff167f17307eab39ab6107e8899845ad3d59bd9653f200f220920489ca2b5937696c3183604051611a709190612902565b60405180910390a3505050565b611a888484846114cf565b611a9484848484611ca7565b611ad3576040517f08c379a0000000000000000000000000000000000000000000000000000000008152600401611aca9061299d565b60405180910390fd5b50505050565b606060405180602001604052806000815250905090565b60606000821415611b38576040518060400160405280600181526020017f30000000000000000000000000000000000000000000000000000000000000008152509050611c98565b600082905060005b60008214611b6a578080611b5390612e89565b915050600a82611b639190612d0b565b9150611b40565b60008167ffffffffffffffff811115611bac577f4e487b7100000000000000000000000000000000000000000000000000000000600052604160045260246000fd5b6040519080825280601f01601f191660200182016040528015611bde5781602001600182028036833780820191505090505b5090505b60008514611c9157600182611bf79190612d3c565b9150600a85611c069190612ed2565b6030611c129190612cb5565b60f81b818381518110611c4e577f4e487b7100000000000000000000000000000000000000000000000000000000600052603260045260246000fd5b60200101907effffffffffffffffffffffffffffffffffffffffffffffffffffffffffffff1916908160001a905350600a85611c8a9190612d0b565b9450611be2565b8093505050505b919050565b505050565b505050565b6000611cc88473ffffffffffffffffffffffffffffffffffffffff16611e3e565b15611e31578373ffffffffffffffffffffffffffffffffffffffff1663150b7a02611cf1611330565b8786866040518563ffffffff1660e01b8152600401611d139493929190612841565b602060405180830381600087803b158015611d2d57600080fd5b505af1925050508015611d5e57506040513d601f19601f82011682018060405250810190611d5b91906122b8565b60015b611de1573d8060008114611d8e576040519150601f19603f3d011682016040523d82523d6000602084013e611d93565b606091505b50600081511415611dd9576040517f08c379a0000000000000000000000000000000000000000000000000000000008152600401611dd09061299d565b60405180910390fd5b805181602001fd5b63150b7a0260e01b7bffffffffffffffffffffffffffffffffffffffffffffffffffffffff1916817bffffffffffffffffffffffffffffffffffffffffffffffffffffffff191614915050611e36565b600190505b949350505050565b6000808273ffffffffffffffffffffffffffffffffffffffff163b119050919050565b828054611e6d90612e26565b90600052602060002090601f016020900481019282611e8f5760008555611ed6565b82601f10611ea857805160ff1916838001178555611ed6565b82800160010185558215611ed6579182015b82811115611ed5578251825591602001919060010190611eba565b5b509050611ee39190611f3a565b5090565b6040518060a0016040528060008152602001600073ffffffffffffffffffffffffffffffffffffffff168152602001600015158152602001611f27611f57565b8152602001611f34611f71565b81525090565b5b80821115611f53576000816000905550600101611f3b565b5090565b604051806040016040528060008152602001600081525090565b6040518060800160405280600073ffffffffffffffffffffffffffffffffffffffff1681526020016060815260200160008152602001600081525090565b6000611fc2611fbd84612bff565b612bda565b905082815260208101848484011115611fda57600080fd5b611fe5848285612de4565b509392505050565b6000612000611ffb84612c30565b612bda565b90508281526020810184848401111561201857600080fd5b612023848285612de4565b509392505050565b60008135905061203a8161342b565b92915050565b60008135905061204f81613442565b92915050565b60008135905061206481613459565b92915050565b60008151905061207981613459565b92915050565b600082601f83011261209057600080fd5b81356120a0848260208601611faf565b91505092915050565b600082601f8301126120ba57600080fd5b81356120ca848260208601611fed565b91505092915050565b6000813590506120e281613470565b92915050565b6000602082840312156120fa57600080fd5b60006121088482850161202b565b91505092915050565b6000806040838503121561212457600080fd5b60006121328582860161202b565b92505060206121438582860161202b565b9150509250929050565b60008060006060848603121561216257600080fd5b60006121708682870161202b565b93505060206121818682870161202b565b9250506040612192868287016120d3565b9150509250925092565b600080600080608085870312156121b257600080fd5b60006121c08782880161202b565b94505060206121d18782880161202b565b93505060406121e2878288016120d3565b925050606085013567ffffffffffffffff8111156121ff57600080fd5b61220b8782880161207f565b91505092959194509250565b6000806040838503121561222a57600080fd5b60006122388582860161202b565b925050602061224985828601612040565b9150509250929050565b6000806040838503121561226657600080fd5b60006122748582860161202b565b9250506020612285858286016120d3565b9150509250929050565b6000602082840312156122a157600080fd5b60006122af84828501612055565b91505092915050565b6000602082840312156122ca57600080fd5b60006122d88482850161206a565b91505092915050565b6000806000606084860312156122f657600080fd5b600084013567ffffffffffffffff81111561231057600080fd5b61231c868287016120a9565b935050602061232d868287016120d3565b925050604061233e868287016120d3565b9150509250925092565b60006020828403121561235a57600080fd5b6000612368848285016120d3565b91505092915050565b61237a81612d70565b82525050565b61238981612d70565b82525050565b61239881612d82565b82525050565b6123a781612d82565b82525050565b60006123b882612c61565b6123c28185612c77565b93506123d2818560208601612df3565b6123db81612fbf565b840191505092915050565b60006123f182612c6c565b6123fb8185612c88565b935061240b818560208601612df3565b61241481612fbf565b840191505092915050565b600061242a82612c6c565b6124348185612c99565b9350612444818560208601612df3565b61244d81612fbf565b840191505092915050565b600061246382612c6c565b61246d8185612caa565b935061247d818560208601612df3565b80840191505092915050565b6000612496600c83612c99565b91506124a182612fd0565b602082019050919050565b60006124b9603283612c99565b91506124c482612ff9565b604082019050919050565b60006124dc602583612c99565b91506124e782613048565b604082019050919050565b60006124ff601c83612c99565b915061250a82613097565b602082019050919050565b6000612522602483612c99565b915061252d826130c0565b604082019050919050565b6000612545601983612c99565b91506125508261310f565b602082019050919050565b6000612568602c83612c99565b915061257382613138565b604082019050919050565b600061258b600c83612c99565b915061259682613187565b602082019050919050565b60006125ae603883612c99565b91506125b9826131b0565b604082019050919050565b60006125d1602a83612c99565b91506125dc826131ff565b604082019050919050565b60006125f4602983612c99565b91506125ff8261324e565b604082019050919050565b6000612617602083612c99565b91506126228261329d565b602082019050919050565b600061263a602c83612c99565b9150612645826132c6565b604082019050919050565b600061265d602f83612c99565b915061266882613315565b604082019050919050565b6000612680602183612c99565b915061268b82613364565b604082019050919050565b60006126a3603183612c99565b91506126ae826133b3565b604082019050919050565b60006126c6600d83612c99565b91506126d182613402565b602082019050919050565b600060c0830160008301516126f460008601826127e4565b5060208301516127076020860182612371565b50604083015161271a604086018261238f565b50606083015161272d60608601826127b5565b50608083015184820360a08601526127458282612752565b9150508091505092915050565b600060808301600083015161276a6000860182612371565b506020830151848203602086015261278282826123e6565b915050604083015161279760408601826127e4565b5060608301516127aa60608601826127e4565b508091505092915050565b6040820160008201516127cb60008501826127e4565b5060208201516127de60208501826127e4565b50505050565b6127ed81612dda565b82525050565b6127fc81612dda565b82525050565b600061280e8285612458565b915061281a8284612458565b91508190509392505050565b600060208201905061283b6000830184612380565b92915050565b60006080820190506128566000830187612380565b6128636020830186612380565b61287060408301856127f3565b818103606083015261288281846123ad565b905095945050505050565b60006080820190506128a26000830187612380565b81810360208301526128b4818661241f565b90506128c360408301856127f3565b6128d060608301846127f3565b95945050505050565b60006040820190506128ee6000830185612380565b6128fb60208301846127f3565b9392505050565b6000602082019050612917600083018461239e565b92915050565b60006020820190508181036000830152612937818461241f565b905092915050565b60006060820190508181036000830152612959818661241f565b905061296860208301856127f3565b61297560408301846127f3565b949350505050565b6000602082019050818103600083015261299681612489565b9050919050565b600060208201905081810360008301526129b6816124ac565b9050919050565b600060208201905081810360008301526129d6816124cf565b9050919050565b600060208201905081810360008301526129f6816124f2565b9050919050565b60006020820190508181036000830152612a1681612515565b9050919050565b60006020820190508181036000830152612a3681612538565b9050919050565b60006020820190508181036000830152612a568161255b565b9050919050565b60006020820190508181036000830152612a768161257e565b9050919050565b60006020820190508181036000830152612a96816125a1565b9050919050565b60006020820190508181036000830152612ab6816125c4565b9050919050565b60006020820190508181036000830152612ad6816125e7565b9050919050565b60006020820190508181036000830152612af68161260a565b9050919050565b60006020820190508181036000830152612b168161262d565b9050919050565b60006020820190508181036000830152612b3681612650565b9050919050565b60006020820190508181036000830152612b5681612673565b9050919050565b60006020820190508181036000830152612b7681612696565b9050919050565b60006020820190508181036000830152612b96816126b9565b9050919050565b60006020820190508181036000830152612bb781846126dc565b905092915050565b6000602082019050612bd460008301846127f3565b92915050565b6000612be4612bf5565b9050612bf08282612e58565b919050565b6000604051905090565b600067ffffffffffffffff821115612c1a57612c19612f90565b5b612c2382612fbf565b9050602081019050919050565b600067ffffffffffffffff821115612c4b57612c4a612f90565b5b612c5482612fbf565b9050602081019050919050565b600081519050919050565b600081519050919050565b600082825260208201905092915050565b600082825260208201905092915050565b600082825260208201905092915050565b600081905092915050565b6000612cc082612dda565b9150612ccb83612dda565b9250827fffffffffffffffffffffffffffffffffffffffffffffffffffffffffffffffff03821115612d0057612cff612f03565b5b828201905092915050565b6000612d1682612dda565b9150612d2183612dda565b925082612d3157612d30612f32565b5b828204905092915050565b6000612d4782612dda565b9150612d5283612dda565b925082821015612d6557612d64612f03565b5b828203905092915050565b6000612d7b82612dba565b9050919050565b60008115159050919050565b60007fffffffff0000000000000000000000000000000000000000000000000000000082169050919050565b600073ffffffffffffffffffffffffffffffffffffffff82169050919050565b6000819050919050565b82818337600083830152505050565b60005b83811015612e11578082015181840152602081019050612df6565b83811115612e20576000848401525b50505050565b60006002820490506001821680612e3e57607f821691505b60208210811415612e5257612e51612f61565b5b50919050565b612e6182612fbf565b810181811067ffffffffffffffff82111715612e8057612e7f612f90565b5b80604052505050565b6000612e9482612dda565b91507fffffffffffffffffffffffffffffffffffffffffffffffffffffffffffffffff821415612ec757612ec6612f03565b5b600182019050919050565b6000612edd82612dda565b9150612ee883612dda565b925082612ef857612ef7612f32565b5b828206905092915050565b7f4e487b7100000000000000000000000000000000000000000000000000000000600052601160045260246000fd5b7f4e487b7100000000000000000000000000000000000000000000000000000000600052601260045260246000fd5b7f4e487b7100000000000000000000000000000000000000000000000000000000600052602260045260246000fd5b7f4e487b7100000000000000000000000000000000000000000000000000000000600052604160045260246000fd5b6000601f19601f8301169050919050565b7f496e76616c6964206e616d650000000000000000000000000000000000000000600082015250565b7f4552433732313a207472616e7366657220746f206e6f6e20455243373231526560008201527f63656976657220696d706c656d656e7465720000000000000000000000000000602082015250565b7f4552433732313a207472616e736665722066726f6d20696e636f72726563742060008201527f6f776e6572000000000000000000000000000000000000000000000000000000602082015250565b7f4552433732313a20746f6b656e20616c7265616479206d696e74656400000000600082015250565b7f4552433732313a207472616e7366657220746f20746865207a65726f2061646460008201527f7265737300000000000000000000000000000000000000000000000000000000602082015250565b7f4552433732313a20617070726f766520746f2063616c6c657200000000000000600082015250565b7f4552433732313a206f70657261746f7220717565727920666f72206e6f6e657860008201527f697374656e7420746f6b656e0000000000000000000000000000000000000000602082015250565b7f496e76616c6964207465726d0000000000000000000000000000000000000000600082015250565b7f4552433732313a20617070726f76652063616c6c6572206973206e6f74206f7760008201527f6e6572206e6f7220617070726f76656420666f7220616c6c0000000000000000602082015250565b7f4552433732313a2062616c616e636520717565727920666f7220746865207a6560008201527f726f206164647265737300000000000000000000000000000000000000000000602082015250565b7f4552433732313a206f776e657220717565727920666f72206e6f6e657869737460008201527f656e7420746f6b656e0000000000000000000000000000000000000000000000602082015250565b7f4552433732313a206d696e7420746f20746865207a65726f2061646472657373600082015250565b7f4552433732313a20617070726f76656420717565727920666f72206e6f6e657860008201527f697374656e7420746f6b656e0000000000000000000000000000000000000000602082015250565b7f4552433732314d657461646174613a2055524920717565727920666f72206e6f60008201527f6e6578697374656e7420746f6b656e0000000000000000000000000000000000602082015250565b7f4552433732313a20617070726f76616c20746f2063757272656e74206f776e6560008201527f7200000000000000000000000000000000000000000000000000000000000000602082015250565b7f4552433732313a207472616e736665722063616c6c6572206973206e6f74206f60008201527f776e6572206e6f7220617070726f766564000000000000000000000000000000602082015250565b7f496e76616c696420707269636500000000000000000000000000000000000000600082015250565b61343481612d70565b811461343f57600080fd5b50565b61344b81612d82565b811461345657600080fd5b50565b61346281612d8e565b811461346d57600080fd5b50565b61347981612dda565b811461348457600080fd5b5056fea2646970667358221220391aac451597095a88757a70b60a07fbbd392f56ee17ed91921e0911fff6d72264736f6c63430008040033",
  "linkReferences": {},
  "deployedLinkReferences": {}
}