{
  "_format": "hh-sol-artifact-1",
  "contractName": "SubscriptionNFT",
  "sourceName": "contracts/SubscriptionNFT.sol",
  "abi": [
    {
      "inputs": [],
      "stateMutability": "nonpayable",
      "type": "constructor"
    },
    {
      "anonymous": false,
      "inputs": [
        {
          "indexed": true,
          "internalType": "address",
          "name": "owner",
          "type": "address"
        },
        {
          "indexed": true,
          "internalType": "address",
          "name": "approved",
          "type": "address"
        },
        {
          "indexed": true,
          "internalType": "uint256",
          "name": "tokenId",
          "type": "uint256"
        }
      ],
      "name": "Approval",
      "type": "event"
    },
    {
      "anonymous": false,
      "inputs": [
        {
          "indexed": true,
          "internalType": "address",
          "name": "owner",
          "type": "address"
        },
        {
          "indexed": true,
          "internalType": "address",
          "name": "operator",
          "type": "address"
        },
        {
          "indexed": false,
          "internalType": "bool",
          "name": "approved",
          "type": "bool"
        }
      ],
      "name": "ApprovalForAll",
      "type": "event"
    },
    {
      "anonymous": false,
      "inputs": [
        {
          "indexed": true,
          "internalType": "address",
          "name": "from",
          "type": "address"
        },
        {
          "indexed": true,
          "internalType": "address",
          "name": "to",
          "type": "address"
        },
        {
          "indexed": true,
          "internalType": "uint256",
          "name": "tokenId",
          "type": "uint256"
        }
      ],
      "name": "Transfer",
      "type": "event"
    },
    {
      "inputs": [
        {
          "internalType": "address",
          "name": "to",
          "type": "address"
        },
        {
          "internalType": "uint256",
          "name": "tokenId",
          "type": "uint256"
        }
      ],
      "name": "approve",
      "outputs": [],
      "stateMutability": "nonpayable",
      "type": "function"
    },
    {
      "inputs": [
        {
          "internalType": "address",
          "name": "owner",
          "type": "address"
        }
      ],
      "name": "balanceOf",
      "outputs": [
        {
          "internalType": "uint256",
          "name": "",
          "type": "uint256"
        }
      ],
      "stateMutability": "view",
      "type": "function"
    },
    {
      "inputs": [
        {
          "internalType": "uint256",
          "name": "tokenId",
          "type": "uint256"
        }
      ],
      "name": "getApproved",
      "outputs": [
        {
          "internalType": "address",
          "name": "",
          "type": "address"
        }
      ],
      "stateMutability": "view",
      "type": "function"
    },
    {
      "inputs": [
        {
          "internalType": "address",
          "name": "owner",
          "type": "address"
        },
        {
          "internalType": "address",
          "name": "operator",
          "type": "address"
        }
      ],
      "name": "isApprovedForAll",
      "outputs": [
        {
          "internalType": "bool",
          "name": "",
          "type": "bool"
        }
      ],
      "stateMutability": "view",
      "type": "function"
    },
    {
      "inputs": [
        {
          "internalType": "address",
          "name": "recipient",
          "type": "address"
        },
        {
          "internalType": "uint256",
          "name": "subscriptionTemplateId",
          "type": "uint256"
        },
        {
          "internalType": "uint256",
          "name": "subscriptionOptionSelectionIndex",
          "type": "uint256"
        }
      ],
      "name": "issueSubscriptionNFT",
      "outputs": [
        {
          "internalType": "uint256",
          "name": "",
          "type": "uint256"
        }
      ],
      "stateMutability": "nonpayable",
      "type": "function"
    },
    {
      "inputs": [],
      "name": "name",
      "outputs": [
        {
          "internalType": "string",
          "name": "",
          "type": "string"
        }
      ],
      "stateMutability": "view",
      "type": "function"
    },
    {
      "inputs": [
        {
          "internalType": "uint256",
          "name": "tokenId",
          "type": "uint256"
        }
      ],
      "name": "ownerOf",
      "outputs": [
        {
          "internalType": "address",
          "name": "",
          "type": "address"
        }
      ],
      "stateMutability": "view",
      "type": "function"
    },
    {
      "inputs": [
        {
          "internalType": "address",
          "name": "from",
          "type": "address"
        },
        {
          "internalType": "address",
          "name": "to",
          "type": "address"
        },
        {
          "internalType": "uint256",
          "name": "tokenId",
          "type": "uint256"
        }
      ],
      "name": "safeTransferFrom",
      "outputs": [],
      "stateMutability": "nonpayable",
      "type": "function"
    },
    {
      "inputs": [
        {
          "internalType": "address",
          "name": "from",
          "type": "address"
        },
        {
          "internalType": "address",
          "name": "to",
          "type": "address"
        },
        {
          "internalType": "uint256",
          "name": "tokenId",
          "type": "uint256"
        },
        {
          "internalType": "bytes",
          "name": "_data",
          "type": "bytes"
        }
      ],
      "name": "safeTransferFrom",
      "outputs": [],
      "stateMutability": "nonpayable",
      "type": "function"
    },
    {
      "inputs": [
        {
          "internalType": "address",
          "name": "operator",
          "type": "address"
        },
        {
          "internalType": "bool",
          "name": "approved",
          "type": "bool"
        }
      ],
      "name": "setApprovalForAll",
      "outputs": [],
      "stateMutability": "nonpayable",
      "type": "function"
    },
    {
      "inputs": [
        {
          "internalType": "bytes4",
          "name": "interfaceId",
          "type": "bytes4"
        }
      ],
      "name": "supportsInterface",
      "outputs": [
        {
          "internalType": "bool",
          "name": "",
          "type": "bool"
        }
      ],
      "stateMutability": "view",
      "type": "function"
    },
    {
      "inputs": [],
      "name": "symbol",
      "outputs": [
        {
          "internalType": "string",
          "name": "",
          "type": "string"
        }
      ],
      "stateMutability": "view",
      "type": "function"
    },
    {
      "inputs": [
        {
          "internalType": "uint256",
          "name": "tokenId",
          "type": "uint256"
        }
      ],
      "name": "tokenURI",
      "outputs": [
        {
          "internalType": "string",
          "name": "",
          "type": "string"
        }
      ],
      "stateMutability": "view",
      "type": "function"
    },
    {
      "inputs": [
        {
          "internalType": "address",
          "name": "from",
          "type": "address"
        },
        {
          "internalType": "address",
          "name": "to",
          "type": "address"
        },
        {
          "internalType": "uint256",
          "name": "tokenId",
          "type": "uint256"
        }
      ],
      "name": "transferFrom",
      "outputs": [],
      "stateMutability": "nonpayable",
      "type": "function"
    }
  ],
  "bytecode": "0x60806040523480156200001157600080fd5b506040518060400160405280600f81526020017f537562736372697074696f6e4e465400000000000000000000000000000000008152506040518060400160405280600381526020017f5355420000000000000000000000000000000000000000000000000000000000815250816000908051906020019062000096929190620000b8565b508060019080519060200190620000af929190620000b8565b505050620001cd565b828054620000c69062000168565b90600052602060002090601f016020900481019282620000ea576000855562000136565b82601f106200010557805160ff191683800117855562000136565b8280016001018555821562000136579182015b828111156200013557825182559160200191906001019062000118565b5b50905062000145919062000149565b5090565b5b80821115620001645760008160009055506001016200014a565b5090565b600060028204905060018216806200018157607f821691505b602082108114156200019857620001976200019e565b5b50919050565b7f4e487b7100000000000000000000000000000000000000000000000000000000600052602260045260246000fd5b61298f80620001dd6000396000f3fe608060405234801561001057600080fd5b50600436106100ea5760003560e01c80636352211e1161008c578063a22cb46511610066578063a22cb4651461026f578063b88d4fde1461028b578063c87b56dd146102a7578063e985e9c5146102d7576100ea565b80636352211e146101f157806370a082311461022157806395d89b4114610251576100ea565b8063081812fc116100c8578063081812fc1461016d578063095ea7b31461019d57806323b872dd146101b957806342842e0e146101d5576100ea565b80630172e313146100ef57806301ffc9a71461011f57806306fdde031461014f575b600080fd5b61010960048036038101906101049190611b42565b610307565b604051610116919061214e565b60405180910390f35b61013960048036038101906101349190611b91565b6104bc565b6040516101469190611f51565b60405180910390f35b61015761059e565b6040516101649190611f6c565b60405180910390f35b61018760048036038101906101829190611be3565b610630565b6040516101949190611eea565b60405180910390f35b6101b760048036038101906101b29190611b06565b6106b5565b005b6101d360048036038101906101ce9190611a00565b6107cd565b005b6101ef60048036038101906101ea9190611a00565b61082d565b005b61020b60048036038101906102069190611be3565b61084d565b6040516102189190611eea565b60405180910390f35b61023b6004803603810190610236919061199b565b6108ff565b604051610248919061214e565b60405180910390f35b6102596109b7565b6040516102669190611f6c565b60405180910390f35b61028960048036038101906102849190611aca565b610a49565b005b6102a560048036038101906102a09190611a4f565b610a5f565b005b6102c160048036038101906102bc9190611be3565b610ac1565b6040516102ce9190611f6c565b60405180910390f35b6102f160048036038101906102ec91906119c4565b610b68565b6040516102fe9190611f51565b60405180910390f35b60006103136006610bfc565b600061031f6006610c12565b905061032b8582610c20565b600060096000868152602001908152602001600020600101848154811061037b577f4e487b7100000000000000000000000000000000000000000000000000000000600052603260045260246000fd5b90600052602060002090600302016040518060600160405290816000820180546103a490612373565b80601f01602080910402602001604051908101604052809291908181526020018280546103d090612373565b801561041d5780601f106103f25761010080835404028352916020019161041d565b820191906000526020600020905b81548152906001019060200180831161040057829003601f168201915b505050505081526020016001820154815260200160028201548152505090508460086000848152602001908152602001600020600001819055508060000151600860008481526020019081526020016000206001019080519060200190610485929190611827565b508060400151426104969190612202565b600860008481526020019081526020016000206002018190555081925050509392505050565b60007f80ac58cd000000000000000000000000000000000000000000000000000000007bffffffffffffffffffffffffffffffffffffffffffffffffffffffff1916827bffffffffffffffffffffffffffffffffffffffffffffffffffffffff1916148061058757507f5b5e139f000000000000000000000000000000000000000000000000000000007bffffffffffffffffffffffffffffffffffffffffffffffffffffffff1916827bffffffffffffffffffffffffffffffffffffffffffffffffffffffff1916145b80610597575061059682610dfa565b5b9050919050565b6060600080546105ad90612373565b80601f01602080910402602001604051908101604052809291908181526020018280546105d990612373565b80156106265780601f106105fb57610100808354040283529160200191610626565b820191906000526020600020905b81548152906001019060200180831161060957829003601f168201915b5050505050905090565b600061063b82610e64565b61067a576040517f08c379a0000000000000000000000000000000000000000000000000000000008152600401610671906120ce565b60405180910390fd5b6004600083815260200190815260200160002060009054906101000a900473ffffffffffffffffffffffffffffffffffffffff169050919050565b60006106c08261084d565b90508073ffffffffffffffffffffffffffffffffffffffff168373ffffffffffffffffffffffffffffffffffffffff161415610731576040517f08c379a00000000000000000000000000000000000000000000000000000000081526004016107289061210e565b60405180910390fd5b8073ffffffffffffffffffffffffffffffffffffffff16610750610ed0565b73ffffffffffffffffffffffffffffffffffffffff16148061077f575061077e81610779610ed0565b610b68565b5b6107be576040517f08c379a00000000000000000000000000000000000000000000000000000000081526004016107b59061204e565b60405180910390fd5b6107c88383610ed8565b505050565b6107de6107d8610ed0565b82610f91565b61081d576040517f08c379a00000000000000000000000000000000000000000000000000000000081526004016108149061212e565b60405180910390fd5b61082883838361106f565b505050565b61084883838360405180602001604052806000815250610a5f565b505050565b6000806002600084815260200190815260200160002060009054906101000a900473ffffffffffffffffffffffffffffffffffffffff169050600073ffffffffffffffffffffffffffffffffffffffff168173ffffffffffffffffffffffffffffffffffffffff1614156108f6576040517f08c379a00000000000000000000000000000000000000000000000000000000081526004016108ed9061208e565b60405180910390fd5b80915050919050565b60008073ffffffffffffffffffffffffffffffffffffffff168273ffffffffffffffffffffffffffffffffffffffff161415610970576040517f08c379a00000000000000000000000000000000000000000000000000000000081526004016109679061206e565b60405180910390fd5b600360008373ffffffffffffffffffffffffffffffffffffffff1673ffffffffffffffffffffffffffffffffffffffff168152602001908152602001600020549050919050565b6060600180546109c690612373565b80601f01602080910402602001604051908101604052809291908181526020018280546109f290612373565b8015610a3f5780601f10610a1457610100808354040283529160200191610a3f565b820191906000526020600020905b815481529060010190602001808311610a2257829003601f168201915b5050505050905090565b610a5b610a54610ed0565b83836112d6565b5050565b610a70610a6a610ed0565b83610f91565b610aaf576040517f08c379a0000000000000000000000000000000000000000000000000000000008152600401610aa69061212e565b60405180910390fd5b610abb84848484611443565b50505050565b6060610acc82610e64565b610b0b576040517f08c379a0000000000000000000000000000000000000000000000000000000008152600401610b02906120ee565b60405180910390fd5b6000610b1561149f565b90506000815111610b355760405180602001604052806000815250610b60565b80610b3f846114b6565b604051602001610b50929190611ec6565b6040516020818303038152906040525b915050919050565b6000600560008473ffffffffffffffffffffffffffffffffffffffff1673ffffffffffffffffffffffffffffffffffffffff16815260200190815260200160002060008373ffffffffffffffffffffffffffffffffffffffff1673ffffffffffffffffffffffffffffffffffffffff16815260200190815260200160002060009054906101000a900460ff16905092915050565b6001816000016000828254019250508190555050565b600081600001549050919050565b600073ffffffffffffffffffffffffffffffffffffffff168273ffffffffffffffffffffffffffffffffffffffff161415610c90576040517f08c379a0000000000000000000000000000000000000000000000000000000008152600401610c87906120ae565b60405180910390fd5b610c9981610e64565b15610cd9576040517f08c379a0000000000000000000000000000000000000000000000000000000008152600401610cd090611fce565b60405180910390fd5b610ce560008383611663565b6001600360008473ffffffffffffffffffffffffffffffffffffffff1673ffffffffffffffffffffffffffffffffffffffff1681526020019081526020016000206000828254610d359190612202565b92505081905550816002600083815260200190815260200160002060006101000a81548173ffffffffffffffffffffffffffffffffffffffff021916908373ffffffffffffffffffffffffffffffffffffffff160217905550808273ffffffffffffffffffffffffffffffffffffffff16600073ffffffffffffffffffffffffffffffffffffffff167fddf252ad1be2c89b69c2b068fc378daa952ba7f163c4a11628f55a4df523b3ef60405160405180910390a4610df660008383611668565b5050565b60007f01ffc9a7000000000000000000000000000000000000000000000000000000007bffffffffffffffffffffffffffffffffffffffffffffffffffffffff1916827bffffffffffffffffffffffffffffffffffffffffffffffffffffffff1916149050919050565b60008073ffffffffffffffffffffffffffffffffffffffff166002600084815260200190815260200160002060009054906101000a900473ffffffffffffffffffffffffffffffffffffffff1673ffffffffffffffffffffffffffffffffffffffff1614159050919050565b600033905090565b816004600083815260200190815260200160002060006101000a81548173ffffffffffffffffffffffffffffffffffffffff021916908373ffffffffffffffffffffffffffffffffffffffff160217905550808273ffffffffffffffffffffffffffffffffffffffff16610f4b8361084d565b73ffffffffffffffffffffffffffffffffffffffff167f8c5be1e5ebec7d5bd14f71427d1e84f3dd0314c0f7b2291e5b200ac8c7c3b92560405160405180910390a45050565b6000610f9c82610e64565b610fdb576040517f08c379a0000000000000000000000000000000000000000000000000000000008152600401610fd29061202e565b60405180910390fd5b6000610fe68361084d565b90508073ffffffffffffffffffffffffffffffffffffffff168473ffffffffffffffffffffffffffffffffffffffff16148061102857506110278185610b68565b5b8061106657508373ffffffffffffffffffffffffffffffffffffffff1661104e84610630565b73ffffffffffffffffffffffffffffffffffffffff16145b91505092915050565b8273ffffffffffffffffffffffffffffffffffffffff1661108f8261084d565b73ffffffffffffffffffffffffffffffffffffffff16146110e5576040517f08c379a00000000000000000000000000000000000000000000000000000000081526004016110dc90611fae565b60405180910390fd5b600073ffffffffffffffffffffffffffffffffffffffff168273ffffffffffffffffffffffffffffffffffffffff161415611155576040517f08c379a000000000000000000000000000000000000000000000000000000000815260040161114c90611fee565b60405180910390fd5b611160838383611663565b61116b600082610ed8565b6001600360008573ffffffffffffffffffffffffffffffffffffffff1673ffffffffffffffffffffffffffffffffffffffff16815260200190815260200160002060008282546111bb9190612289565b925050819055506001600360008473ffffffffffffffffffffffffffffffffffffffff1673ffffffffffffffffffffffffffffffffffffffff16815260200190815260200160002060008282546112129190612202565b92505081905550816002600083815260200190815260200160002060006101000a81548173ffffffffffffffffffffffffffffffffffffffff021916908373ffffffffffffffffffffffffffffffffffffffff160217905550808273ffffffffffffffffffffffffffffffffffffffff168473ffffffffffffffffffffffffffffffffffffffff167fddf252ad1be2c89b69c2b068fc378daa952ba7f163c4a11628f55a4df523b3ef60405160405180910390a46112d1838383611668565b505050565b8173ffffffffffffffffffffffffffffffffffffffff168373ffffffffffffffffffffffffffffffffffffffff161415611345576040517f08c379a000000000000000000000000000000000000000000000000000000000815260040161133c9061200e565b60405180910390fd5b80600560008573ffffffffffffffffffffffffffffffffffffffff1673ffffffffffffffffffffffffffffffffffffffff16815260200190815260200160002060008473ffffffffffffffffffffffffffffffffffffffff1673ffffffffffffffffffffffffffffffffffffffff16815260200190815260200160002060006101000a81548160ff0219169083151502179055508173ffffffffffffffffffffffffffffffffffffffff168373ffffffffffffffffffffffffffffffffffffffff167f17307eab39ab6107e8899845ad3d59bd9653f200f220920489ca2b5937696c31836040516114369190611f51565b60405180910390a3505050565b61144e84848461106f565b61145a8484848461166d565b611499576040517f08c379a000000000000000000000000000000000000000000000000000000000815260040161149090611f8e565b60405180910390fd5b50505050565b606060405180602001604052806000815250905090565b606060008214156114fe576040518060400160405280600181526020017f3000000000000000000000000000000000000000000000000000000000000000815250905061165e565b600082905060005b60008214611530578080611519906123d6565b915050600a826115299190612258565b9150611506565b60008167ffffffffffffffff811115611572577f4e487b7100000000000000000000000000000000000000000000000000000000600052604160045260246000fd5b6040519080825280601f01601f1916602001820160405280156115a45781602001600182028036833780820191505090505b5090505b60008514611657576001826115bd9190612289565b9150600a856115cc919061241f565b60306115d89190612202565b60f81b818381518110611614577f4e487b7100000000000000000000000000000000000000000000000000000000600052603260045260246000fd5b60200101907effffffffffffffffffffffffffffffffffffffffffffffffffffffffffffff1916908160001a905350600a856116509190612258565b94506115a8565b8093505050505b919050565b505050565b505050565b600061168e8473ffffffffffffffffffffffffffffffffffffffff16611804565b156117f7578373ffffffffffffffffffffffffffffffffffffffff1663150b7a026116b7610ed0565b8786866040518563ffffffff1660e01b81526004016116d99493929190611f05565b602060405180830381600087803b1580156116f357600080fd5b505af192505050801561172457506040513d601f19601f820116820180604052508101906117219190611bba565b60015b6117a7573d8060008114611754576040519150601f19603f3d011682016040523d82523d6000602084013e611759565b606091505b5060008151141561179f576040517f08c379a000000000000000000000000000000000000000000000000000000000815260040161179690611f8e565b60405180910390fd5b805181602001fd5b63150b7a0260e01b7bffffffffffffffffffffffffffffffffffffffffffffffffffffffff1916817bffffffffffffffffffffffffffffffffffffffffffffffffffffffff1916149150506117fc565b600190505b949350505050565b6000808273ffffffffffffffffffffffffffffffffffffffff163b119050919050565b82805461183390612373565b90600052602060002090601f016020900481019282611855576000855561189c565b82601f1061186e57805160ff191683800117855561189c565b8280016001018555821561189c579182015b8281111561189b578251825591602001919060010190611880565b5b5090506118a991906118ad565b5090565b5b808211156118c65760008160009055506001016118ae565b5090565b60006118dd6118d88461218e565b612169565b9050828152602081018484840111156118f557600080fd5b611900848285612331565b509392505050565b600081359050611917816128fd565b92915050565b60008135905061192c81612914565b92915050565b6000813590506119418161292b565b92915050565b6000815190506119568161292b565b92915050565b600082601f83011261196d57600080fd5b813561197d8482602086016118ca565b91505092915050565b60008135905061199581612942565b92915050565b6000602082840312156119ad57600080fd5b60006119bb84828501611908565b91505092915050565b600080604083850312156119d757600080fd5b60006119e585828601611908565b92505060206119f685828601611908565b9150509250929050565b600080600060608486031215611a1557600080fd5b6000611a2386828701611908565b9350506020611a3486828701611908565b9250506040611a4586828701611986565b9150509250925092565b60008060008060808587031215611a6557600080fd5b6000611a7387828801611908565b9450506020611a8487828801611908565b9350506040611a9587828801611986565b925050606085013567ffffffffffffffff811115611ab257600080fd5b611abe8782880161195c565b91505092959194509250565b60008060408385031215611add57600080fd5b6000611aeb85828601611908565b9250506020611afc8582860161191d565b9150509250929050565b60008060408385031215611b1957600080fd5b6000611b2785828601611908565b9250506020611b3885828601611986565b9150509250929050565b600080600060608486031215611b5757600080fd5b6000611b6586828701611908565b9350506020611b7686828701611986565b9250506040611b8786828701611986565b9150509250925092565b600060208284031215611ba357600080fd5b6000611bb184828501611932565b91505092915050565b600060208284031215611bcc57600080fd5b6000611bda84828501611947565b91505092915050565b600060208284031215611bf557600080fd5b6000611c0384828501611986565b91505092915050565b611c15816122bd565b82525050565b611c24816122cf565b82525050565b6000611c35826121bf565b611c3f81856121d5565b9350611c4f818560208601612340565b611c588161250c565b840191505092915050565b6000611c6e826121ca565b611c7881856121e6565b9350611c88818560208601612340565b611c918161250c565b840191505092915050565b6000611ca7826121ca565b611cb181856121f7565b9350611cc1818560208601612340565b80840191505092915050565b6000611cda6032836121e6565b9150611ce58261251d565b604082019050919050565b6000611cfd6025836121e6565b9150611d088261256c565b604082019050919050565b6000611d20601c836121e6565b9150611d2b826125bb565b602082019050919050565b6000611d436024836121e6565b9150611d4e826125e4565b604082019050919050565b6000611d666019836121e6565b9150611d7182612633565b602082019050919050565b6000611d89602c836121e6565b9150611d948261265c565b604082019050919050565b6000611dac6038836121e6565b9150611db7826126ab565b604082019050919050565b6000611dcf602a836121e6565b9150611dda826126fa565b604082019050919050565b6000611df26029836121e6565b9150611dfd82612749565b604082019050919050565b6000611e156020836121e6565b9150611e2082612798565b602082019050919050565b6000611e38602c836121e6565b9150611e43826127c1565b604082019050919050565b6000611e5b602f836121e6565b9150611e6682612810565b604082019050919050565b6000611e7e6021836121e6565b9150611e898261285f565b604082019050919050565b6000611ea16031836121e6565b9150611eac826128ae565b604082019050919050565b611ec081612327565b82525050565b6000611ed28285611c9c565b9150611ede8284611c9c565b91508190509392505050565b6000602082019050611eff6000830184611c0c565b92915050565b6000608082019050611f1a6000830187611c0c565b611f276020830186611c0c565b611f346040830185611eb7565b8181036060830152611f468184611c2a565b905095945050505050565b6000602082019050611f666000830184611c1b565b92915050565b60006020820190508181036000830152611f868184611c63565b905092915050565b60006020820190508181036000830152611fa781611ccd565b9050919050565b60006020820190508181036000830152611fc781611cf0565b9050919050565b60006020820190508181036000830152611fe781611d13565b9050919050565b6000602082019050818103600083015261200781611d36565b9050919050565b6000602082019050818103600083015261202781611d59565b9050919050565b6000602082019050818103600083015261204781611d7c565b9050919050565b6000602082019050818103600083015261206781611d9f565b9050919050565b6000602082019050818103600083015261208781611dc2565b9050919050565b600060208201905081810360008301526120a781611de5565b9050919050565b600060208201905081810360008301526120c781611e08565b9050919050565b600060208201905081810360008301526120e781611e2b565b9050919050565b6000602082019050818103600083015261210781611e4e565b9050919050565b6000602082019050818103600083015261212781611e71565b9050919050565b6000602082019050818103600083015261214781611e94565b9050919050565b60006020820190506121636000830184611eb7565b92915050565b6000612173612184565b905061217f82826123a5565b919050565b6000604051905090565b600067ffffffffffffffff8211156121a9576121a86124dd565b5b6121b28261250c565b9050602081019050919050565b600081519050919050565b600081519050919050565b600082825260208201905092915050565b600082825260208201905092915050565b600081905092915050565b600061220d82612327565b915061221883612327565b9250827fffffffffffffffffffffffffffffffffffffffffffffffffffffffffffffffff0382111561224d5761224c612450565b5b828201905092915050565b600061226382612327565b915061226e83612327565b92508261227e5761227d61247f565b5b828204905092915050565b600061229482612327565b915061229f83612327565b9250828210156122b2576122b1612450565b5b828203905092915050565b60006122c882612307565b9050919050565b60008115159050919050565b60007fffffffff0000000000000000000000000000000000000000000000000000000082169050919050565b600073ffffffffffffffffffffffffffffffffffffffff82169050919050565b6000819050919050565b82818337600083830152505050565b60005b8381101561235e578082015181840152602081019050612343565b8381111561236d576000848401525b50505050565b6000600282049050600182168061238b57607f821691505b6020821081141561239f5761239e6124ae565b5b50919050565b6123ae8261250c565b810181811067ffffffffffffffff821117156123cd576123cc6124dd565b5b80604052505050565b60006123e182612327565b91507fffffffffffffffffffffffffffffffffffffffffffffffffffffffffffffffff82141561241457612413612450565b5b600182019050919050565b600061242a82612327565b915061243583612327565b9250826124455761244461247f565b5b828206905092915050565b7f4e487b7100000000000000000000000000000000000000000000000000000000600052601160045260246000fd5b7f4e487b7100000000000000000000000000000000000000000000000000000000600052601260045260246000fd5b7f4e487b7100000000000000000000000000000000000000000000000000000000600052602260045260246000fd5b7f4e487b7100000000000000000000000000000000000000000000000000000000600052604160045260246000fd5b6000601f19601f8301169050919050565b7f4552433732313a207472616e7366657220746f206e6f6e20455243373231526560008201527f63656976657220696d706c656d656e7465720000000000000000000000000000602082015250565b7f4552433732313a207472616e736665722066726f6d20696e636f72726563742060008201527f6f776e6572000000000000000000000000000000000000000000000000000000602082015250565b7f4552433732313a20746f6b656e20616c7265616479206d696e74656400000000600082015250565b7f4552433732313a207472616e7366657220746f20746865207a65726f2061646460008201527f7265737300000000000000000000000000000000000000000000000000000000602082015250565b7f4552433732313a20617070726f766520746f2063616c6c657200000000000000600082015250565b7f4552433732313a206f70657261746f7220717565727920666f72206e6f6e657860008201527f697374656e7420746f6b656e0000000000000000000000000000000000000000602082015250565b7f4552433732313a20617070726f76652063616c6c6572206973206e6f74206f7760008201527f6e6572206e6f7220617070726f76656420666f7220616c6c0000000000000000602082015250565b7f4552433732313a2062616c616e636520717565727920666f7220746865207a6560008201527f726f206164647265737300000000000000000000000000000000000000000000602082015250565b7f4552433732313a206f776e657220717565727920666f72206e6f6e657869737460008201527f656e7420746f6b656e0000000000000000000000000000000000000000000000602082015250565b7f4552433732313a206d696e7420746f20746865207a65726f2061646472657373600082015250565b7f4552433732313a20617070726f76656420717565727920666f72206e6f6e657860008201527f697374656e7420746f6b656e0000000000000000000000000000000000000000602082015250565b7f4552433732314d657461646174613a2055524920717565727920666f72206e6f60008201527f6e6578697374656e7420746f6b656e0000000000000000000000000000000000602082015250565b7f4552433732313a20617070726f76616c20746f2063757272656e74206f776e6560008201527f7200000000000000000000000000000000000000000000000000000000000000602082015250565b7f4552433732313a207472616e736665722063616c6c6572206973206e6f74206f60008201527f776e6572206e6f7220617070726f766564000000000000000000000000000000602082015250565b612906816122bd565b811461291157600080fd5b50565b61291d816122cf565b811461292857600080fd5b50565b612934816122db565b811461293f57600080fd5b50565b61294b81612327565b811461295657600080fd5b5056fea26469706673582212207ae97f0dd3adcc938e6d400dabb544ca01f12a5985b44c0188714fdb9bf9a8b864736f6c63430008010033",
  "linkReferences": {},
  "deployedLinkReferences": {}
}