{
  "_format": "hh-sol-artifact-1",
  "contractName": "SubscriptionNFT",
  "sourceName": "contracts/SubscriptionNFT.sol",
  "abi": [
    {
      "inputs": [],
      "stateMutability": "nonpayable",
      "type": "constructor"
    },
    {
      "anonymous": false,
      "inputs": [
        {
          "indexed": true,
          "internalType": "address",
          "name": "owner",
          "type": "address"
        },
        {
          "indexed": true,
          "internalType": "address",
          "name": "approved",
          "type": "address"
        },
        {
          "indexed": true,
          "internalType": "uint256",
          "name": "tokenId",
          "type": "uint256"
        }
      ],
      "name": "Approval",
      "type": "event"
    },
    {
      "anonymous": false,
      "inputs": [
        {
          "indexed": true,
          "internalType": "address",
          "name": "owner",
          "type": "address"
        },
        {
          "indexed": true,
          "internalType": "address",
          "name": "operator",
          "type": "address"
        },
        {
          "indexed": false,
          "internalType": "bool",
          "name": "approved",
          "type": "bool"
        }
      ],
      "name": "ApprovalForAll",
      "type": "event"
    },
    {
      "anonymous": false,
      "inputs": [
        {
          "indexed": true,
          "internalType": "address",
          "name": "from",
          "type": "address"
        },
        {
          "indexed": true,
          "internalType": "address",
          "name": "to",
          "type": "address"
        },
        {
          "indexed": true,
          "internalType": "uint256",
          "name": "tokenId",
          "type": "uint256"
        }
      ],
      "name": "Transfer",
      "type": "event"
    },
    {
      "inputs": [
        {
          "internalType": "address",
          "name": "to",
          "type": "address"
        },
        {
          "internalType": "uint256",
          "name": "tokenId",
          "type": "uint256"
        }
      ],
      "name": "approve",
      "outputs": [],
      "stateMutability": "nonpayable",
      "type": "function"
    },
    {
      "inputs": [
        {
          "internalType": "address",
          "name": "owner",
          "type": "address"
        }
      ],
      "name": "balanceOf",
      "outputs": [
        {
          "internalType": "uint256",
          "name": "",
          "type": "uint256"
        }
      ],
      "stateMutability": "view",
      "type": "function"
    },
    {
      "inputs": [
        {
          "internalType": "string",
          "name": "subscriptionName",
          "type": "string"
        },
        {
          "internalType": "uint256",
          "name": "price",
          "type": "uint256"
        },
        {
          "internalType": "uint256",
          "name": "term",
          "type": "uint256"
        }
      ],
      "name": "createSubscriptionTemplate",
      "outputs": [
        {
          "internalType": "uint256",
          "name": "",
          "type": "uint256"
        }
      ],
      "stateMutability": "nonpayable",
      "type": "function"
    },
    {
      "inputs": [
        {
          "internalType": "uint256",
          "name": "tokenId",
          "type": "uint256"
        }
      ],
      "name": "getApproved",
      "outputs": [
        {
          "internalType": "address",
          "name": "",
          "type": "address"
        }
      ],
      "stateMutability": "view",
      "type": "function"
    },
    {
      "inputs": [
        {
          "internalType": "address",
          "name": "owner",
          "type": "address"
        },
        {
          "internalType": "address",
          "name": "operator",
          "type": "address"
        }
      ],
      "name": "isApprovedForAll",
      "outputs": [
        {
          "internalType": "bool",
          "name": "",
          "type": "bool"
        }
      ],
      "stateMutability": "view",
      "type": "function"
    },
    {
      "inputs": [
        {
          "internalType": "uint256",
          "name": "subscriptionTemplateId",
          "type": "uint256"
        }
      ],
      "name": "issueSubscriptionNFT",
      "outputs": [
        {
          "internalType": "uint256",
          "name": "",
          "type": "uint256"
        }
      ],
      "stateMutability": "payable",
      "type": "function"
    },
    {
      "inputs": [],
      "name": "name",
      "outputs": [
        {
          "internalType": "string",
          "name": "",
          "type": "string"
        }
      ],
      "stateMutability": "view",
      "type": "function"
    },
    {
      "inputs": [
        {
          "internalType": "uint256",
          "name": "tokenId",
          "type": "uint256"
        }
      ],
      "name": "ownerOf",
      "outputs": [
        {
          "internalType": "address",
          "name": "",
          "type": "address"
        }
      ],
      "stateMutability": "view",
      "type": "function"
    },
    {
      "inputs": [
        {
          "internalType": "address",
          "name": "from",
          "type": "address"
        },
        {
          "internalType": "address",
          "name": "to",
          "type": "address"
        },
        {
          "internalType": "uint256",
          "name": "tokenId",
          "type": "uint256"
        }
      ],
      "name": "safeTransferFrom",
      "outputs": [],
      "stateMutability": "nonpayable",
      "type": "function"
    },
    {
      "inputs": [
        {
          "internalType": "address",
          "name": "from",
          "type": "address"
        },
        {
          "internalType": "address",
          "name": "to",
          "type": "address"
        },
        {
          "internalType": "uint256",
          "name": "tokenId",
          "type": "uint256"
        },
        {
          "internalType": "bytes",
          "name": "_data",
          "type": "bytes"
        }
      ],
      "name": "safeTransferFrom",
      "outputs": [],
      "stateMutability": "nonpayable",
      "type": "function"
    },
    {
      "inputs": [
        {
          "internalType": "address",
          "name": "operator",
          "type": "address"
        },
        {
          "internalType": "bool",
          "name": "approved",
          "type": "bool"
        }
      ],
      "name": "setApprovalForAll",
      "outputs": [],
      "stateMutability": "nonpayable",
      "type": "function"
    },
    {
      "inputs": [
        {
          "internalType": "uint256",
          "name": "",
          "type": "uint256"
        }
      ],
      "name": "subscriptionTemplates",
      "outputs": [
        {
          "internalType": "address",
          "name": "creatorAddress",
          "type": "address"
        },
        {
          "internalType": "string",
          "name": "subscriptionName",
          "type": "string"
        },
        {
          "internalType": "uint256",
          "name": "price",
          "type": "uint256"
        },
        {
          "internalType": "uint256",
          "name": "term",
          "type": "uint256"
        }
      ],
      "stateMutability": "view",
      "type": "function"
    },
    {
      "inputs": [
        {
          "internalType": "bytes4",
          "name": "interfaceId",
          "type": "bytes4"
        }
      ],
      "name": "supportsInterface",
      "outputs": [
        {
          "internalType": "bool",
          "name": "",
          "type": "bool"
        }
      ],
      "stateMutability": "view",
      "type": "function"
    },
    {
      "inputs": [],
      "name": "symbol",
      "outputs": [
        {
          "internalType": "string",
          "name": "",
          "type": "string"
        }
      ],
      "stateMutability": "view",
      "type": "function"
    },
    {
      "inputs": [
        {
          "internalType": "uint256",
          "name": "tokenId",
          "type": "uint256"
        }
      ],
      "name": "tokenURI",
      "outputs": [
        {
          "internalType": "string",
          "name": "",
          "type": "string"
        }
      ],
      "stateMutability": "view",
      "type": "function"
    },
    {
      "inputs": [
        {
          "internalType": "address",
          "name": "from",
          "type": "address"
        },
        {
          "internalType": "address",
          "name": "to",
          "type": "address"
        },
        {
          "internalType": "uint256",
          "name": "tokenId",
          "type": "uint256"
        }
      ],
      "name": "transferFrom",
      "outputs": [],
      "stateMutability": "nonpayable",
      "type": "function"
    }
  ],
  "bytecode": "0x60806040523480156200001157600080fd5b506040518060400160405280600f81526020017f537562736372697074696f6e4e465400000000000000000000000000000000008152506040518060400160405280600381526020017f5355420000000000000000000000000000000000000000000000000000000000815250816000908051906020019062000096929190620000b8565b508060019080519060200190620000af929190620000b8565b505050620001cd565b828054620000c69062000168565b90600052602060002090601f016020900481019282620000ea576000855562000136565b82601f106200010557805160ff191683800117855562000136565b8280016001018555821562000136579182015b828111156200013557825182559160200191906001019062000118565b5b50905062000145919062000149565b5090565b5b80821115620001645760008160009055506001016200014a565b5090565b600060028204905060018216806200018157607f821691505b602082108114156200019857620001976200019e565b5b50919050565b7f4e487b7100000000000000000000000000000000000000000000000000000000600052602260045260246000fd5b612d5980620001dd6000396000f3fe6080604052600436106100f35760003560e01c80636352211e1161008a578063b88d4fde11610059578063b88d4fde14610356578063bb6e80501461037f578063c87b56dd146103bc578063e985e9c5146103f9576100f3565b80636352211e1461028857806370a08231146102c557806395d89b4114610302578063a22cb4651461032d576100f3565b806323b872dd116100c657806323b872dd146101c657806338da41de146101ef57806342842e0e1461022f578063532137d614610258576100f3565b806301ffc9a7146100f857806306fdde0314610135578063081812fc14610160578063095ea7b31461019d575b600080fd5b34801561010457600080fd5b5061011f600480360381019061011a9190611e77565b610436565b60405161012c91906122ea565b60405180910390f35b34801561014157600080fd5b5061014a610518565b6040516101579190612305565b60405180910390f35b34801561016c57600080fd5b5061018760048036038101906101829190611f30565b6105aa565b6040516101949190612237565b60405180910390f35b3480156101a957600080fd5b506101c460048036038101906101bf9190611e3b565b61062f565b005b3480156101d257600080fd5b506101ed60048036038101906101e89190611d35565b610747565b005b3480156101fb57600080fd5b5061021660048036038101906102119190611f30565b6107a7565b604051610226949392919061229e565b60405180910390f35b34801561023b57600080fd5b5061025660048036038101906102519190611d35565b61087f565b005b610272600480360381019061026d9190611f30565b61089f565b60405161027f91906124e7565b60405180910390f35b34801561029457600080fd5b506102af60048036038101906102aa9190611f30565b610a30565b6040516102bc9190612237565b60405180910390f35b3480156102d157600080fd5b506102ec60048036038101906102e79190611cd0565b610ae2565b6040516102f991906124e7565b60405180910390f35b34801561030e57600080fd5b50610317610b9a565b6040516103249190612305565b60405180910390f35b34801561033957600080fd5b50610354600480360381019061034f9190611dff565b610c2c565b005b34801561036257600080fd5b5061037d60048036038101906103789190611d84565b610c42565b005b34801561038b57600080fd5b506103a660048036038101906103a19190611ec9565b610ca4565b6040516103b391906124e7565b60405180910390f35b3480156103c857600080fd5b506103e360048036038101906103de9190611f30565b610d8e565b6040516103f09190612305565b60405180910390f35b34801561040557600080fd5b50610420600480360381019061041b9190611cf9565b610e35565b60405161042d91906122ea565b60405180910390f35b60007f80ac58cd000000000000000000000000000000000000000000000000000000007bffffffffffffffffffffffffffffffffffffffffffffffffffffffff1916827bffffffffffffffffffffffffffffffffffffffffffffffffffffffff1916148061050157507f5b5e139f000000000000000000000000000000000000000000000000000000007bffffffffffffffffffffffffffffffffffffffffffffffffffffffff1916827bffffffffffffffffffffffffffffffffffffffffffffffffffffffff1916145b80610511575061051082610ec9565b5b9050919050565b6060600080546105279061273d565b80601f01602080910402602001604051908101604052809291908181526020018280546105539061273d565b80156105a05780601f10610575576101008083540402835291602001916105a0565b820191906000526020600020905b81548152906001019060200180831161058357829003601f168201915b5050505050905090565b60006105b582610f33565b6105f4576040517f08c379a00000000000000000000000000000000000000000000000000000000081526004016105eb90612467565b60405180910390fd5b6004600083815260200190815260200160002060009054906101000a900473ffffffffffffffffffffffffffffffffffffffff169050919050565b600061063a82610a30565b90508073ffffffffffffffffffffffffffffffffffffffff168373ffffffffffffffffffffffffffffffffffffffff1614156106ab576040517f08c379a00000000000000000000000000000000000000000000000000000000081526004016106a2906124a7565b60405180910390fd5b8073ffffffffffffffffffffffffffffffffffffffff166106ca610f9f565b73ffffffffffffffffffffffffffffffffffffffff1614806106f957506106f8816106f3610f9f565b610e35565b5b610738576040517f08c379a000000000000000000000000000000000000000000000000000000000815260040161072f906123e7565b60405180910390fd5b6107428383610fa7565b505050565b610758610752610f9f565b82611060565b610797576040517f08c379a000000000000000000000000000000000000000000000000000000000815260040161078e906124c7565b60405180910390fd5b6107a283838361113e565b505050565b60096020528060005260406000206000915090508060000160009054906101000a900473ffffffffffffffffffffffffffffffffffffffff16908060010180546107f09061273d565b80601f016020809104026020016040519081016040528092919081815260200182805461081c9061273d565b80156108695780601f1061083e57610100808354040283529160200191610869565b820191906000526020600020905b81548152906001019060200180831161084c57829003601f168201915b5050505050908060020154908060030154905084565b61089a83838360405180602001604052806000815250610c42565b505050565b60006108ab60066113a5565b60006108b760066113bb565b90506108c333826113c9565b6000600960008581526020019081526020016000206040518060800160405290816000820160009054906101000a900473ffffffffffffffffffffffffffffffffffffffff1673ffffffffffffffffffffffffffffffffffffffff1673ffffffffffffffffffffffffffffffffffffffff1681526020016001820180546109499061273d565b80601f01602080910402602001604051908101604052809291908181526020018280546109759061273d565b80156109c25780601f10610997576101008083540402835291602001916109c2565b820191906000526020600020905b8154815290600101906020018083116109a557829003601f168201915b50505050508152602001600282015481526020016003820154815250509050836008600084815260200190815260200160002060000181905550806060015142610a0c91906125cc565b60086000848152602001908152602001600020600101819055508192505050919050565b6000806002600084815260200190815260200160002060009054906101000a900473ffffffffffffffffffffffffffffffffffffffff169050600073ffffffffffffffffffffffffffffffffffffffff168173ffffffffffffffffffffffffffffffffffffffff161415610ad9576040517f08c379a0000000000000000000000000000000000000000000000000000000008152600401610ad090612427565b60405180910390fd5b80915050919050565b60008073ffffffffffffffffffffffffffffffffffffffff168273ffffffffffffffffffffffffffffffffffffffff161415610b53576040517f08c379a0000000000000000000000000000000000000000000000000000000008152600401610b4a90612407565b60405180910390fd5b600360008373ffffffffffffffffffffffffffffffffffffffff1673ffffffffffffffffffffffffffffffffffffffff168152602001908152602001600020549050919050565b606060018054610ba99061273d565b80601f0160208091040260200160405190810160405280929190818152602001828054610bd59061273d565b8015610c225780601f10610bf757610100808354040283529160200191610c22565b820191906000526020600020905b815481529060010190602001808311610c0557829003601f168201915b5050505050905090565b610c3e610c37610f9f565b83836115a3565b5050565b610c53610c4d610f9f565b83611060565b610c92576040517f08c379a0000000000000000000000000000000000000000000000000000000008152600401610c89906124c7565b60405180910390fd5b610c9e84848484611710565b50505050565b6000610cb060076113a5565b6000610cbc60076113bb565b905060405180608001604052803373ffffffffffffffffffffffffffffffffffffffff168152602001868152602001858152602001848152506009600083815260200190815260200160002060008201518160000160006101000a81548173ffffffffffffffffffffffffffffffffffffffff021916908373ffffffffffffffffffffffffffffffffffffffff1602179055506020820151816001019080519060200190610d6b929190611af4565b506040820151816002015560608201518160030155905050809150509392505050565b6060610d9982610f33565b610dd8576040517f08c379a0000000000000000000000000000000000000000000000000000000008152600401610dcf90612487565b60405180910390fd5b6000610de261176c565b90506000815111610e025760405180602001604052806000815250610e2d565b80610e0c84611783565b604051602001610e1d929190612213565b6040516020818303038152906040525b915050919050565b6000600560008473ffffffffffffffffffffffffffffffffffffffff1673ffffffffffffffffffffffffffffffffffffffff16815260200190815260200160002060008373ffffffffffffffffffffffffffffffffffffffff1673ffffffffffffffffffffffffffffffffffffffff16815260200190815260200160002060009054906101000a900460ff16905092915050565b60007f01ffc9a7000000000000000000000000000000000000000000000000000000007bffffffffffffffffffffffffffffffffffffffffffffffffffffffff1916827bffffffffffffffffffffffffffffffffffffffffffffffffffffffff1916149050919050565b60008073ffffffffffffffffffffffffffffffffffffffff166002600084815260200190815260200160002060009054906101000a900473ffffffffffffffffffffffffffffffffffffffff1673ffffffffffffffffffffffffffffffffffffffff1614159050919050565b600033905090565b816004600083815260200190815260200160002060006101000a81548173ffffffffffffffffffffffffffffffffffffffff021916908373ffffffffffffffffffffffffffffffffffffffff160217905550808273ffffffffffffffffffffffffffffffffffffffff1661101a83610a30565b73ffffffffffffffffffffffffffffffffffffffff167f8c5be1e5ebec7d5bd14f71427d1e84f3dd0314c0f7b2291e5b200ac8c7c3b92560405160405180910390a45050565b600061106b82610f33565b6110aa576040517f08c379a00000000000000000000000000000000000000000000000000000000081526004016110a1906123c7565b60405180910390fd5b60006110b583610a30565b90508073ffffffffffffffffffffffffffffffffffffffff168473ffffffffffffffffffffffffffffffffffffffff1614806110f757506110f68185610e35565b5b8061113557508373ffffffffffffffffffffffffffffffffffffffff1661111d846105aa565b73ffffffffffffffffffffffffffffffffffffffff16145b91505092915050565b8273ffffffffffffffffffffffffffffffffffffffff1661115e82610a30565b73ffffffffffffffffffffffffffffffffffffffff16146111b4576040517f08c379a00000000000000000000000000000000000000000000000000000000081526004016111ab90612347565b60405180910390fd5b600073ffffffffffffffffffffffffffffffffffffffff168273ffffffffffffffffffffffffffffffffffffffff161415611224576040517f08c379a000000000000000000000000000000000000000000000000000000000815260040161121b90612387565b60405180910390fd5b61122f838383611930565b61123a600082610fa7565b6001600360008573ffffffffffffffffffffffffffffffffffffffff1673ffffffffffffffffffffffffffffffffffffffff168152602001908152602001600020600082825461128a9190612653565b925050819055506001600360008473ffffffffffffffffffffffffffffffffffffffff1673ffffffffffffffffffffffffffffffffffffffff16815260200190815260200160002060008282546112e191906125cc565b92505081905550816002600083815260200190815260200160002060006101000a81548173ffffffffffffffffffffffffffffffffffffffff021916908373ffffffffffffffffffffffffffffffffffffffff160217905550808273ffffffffffffffffffffffffffffffffffffffff168473ffffffffffffffffffffffffffffffffffffffff167fddf252ad1be2c89b69c2b068fc378daa952ba7f163c4a11628f55a4df523b3ef60405160405180910390a46113a0838383611935565b505050565b6001816000016000828254019250508190555050565b600081600001549050919050565b600073ffffffffffffffffffffffffffffffffffffffff168273ffffffffffffffffffffffffffffffffffffffff161415611439576040517f08c379a000000000000000000000000000000000000000000000000000000000815260040161143090612447565b60405180910390fd5b61144281610f33565b15611482576040517f08c379a000000000000000000000000000000000000000000000000000000000815260040161147990612367565b60405180910390fd5b61148e60008383611930565b6001600360008473ffffffffffffffffffffffffffffffffffffffff1673ffffffffffffffffffffffffffffffffffffffff16815260200190815260200160002060008282546114de91906125cc565b92505081905550816002600083815260200190815260200160002060006101000a81548173ffffffffffffffffffffffffffffffffffffffff021916908373ffffffffffffffffffffffffffffffffffffffff160217905550808273ffffffffffffffffffffffffffffffffffffffff16600073ffffffffffffffffffffffffffffffffffffffff167fddf252ad1be2c89b69c2b068fc378daa952ba7f163c4a11628f55a4df523b3ef60405160405180910390a461159f60008383611935565b5050565b8173ffffffffffffffffffffffffffffffffffffffff168373ffffffffffffffffffffffffffffffffffffffff161415611612576040517f08c379a0000000000000000000000000000000000000000000000000000000008152600401611609906123a7565b60405180910390fd5b80600560008573ffffffffffffffffffffffffffffffffffffffff1673ffffffffffffffffffffffffffffffffffffffff16815260200190815260200160002060008473ffffffffffffffffffffffffffffffffffffffff1673ffffffffffffffffffffffffffffffffffffffff16815260200190815260200160002060006101000a81548160ff0219169083151502179055508173ffffffffffffffffffffffffffffffffffffffff168373ffffffffffffffffffffffffffffffffffffffff167f17307eab39ab6107e8899845ad3d59bd9653f200f220920489ca2b5937696c318360405161170391906122ea565b60405180910390a3505050565b61171b84848461113e565b6117278484848461193a565b611766576040517f08c379a000000000000000000000000000000000000000000000000000000000815260040161175d90612327565b60405180910390fd5b50505050565b606060405180602001604052806000815250905090565b606060008214156117cb576040518060400160405280600181526020017f3000000000000000000000000000000000000000000000000000000000000000815250905061192b565b600082905060005b600082146117fd5780806117e6906127a0565b915050600a826117f69190612622565b91506117d3565b60008167ffffffffffffffff81111561183f577f4e487b7100000000000000000000000000000000000000000000000000000000600052604160045260246000fd5b6040519080825280601f01601f1916602001820160405280156118715781602001600182028036833780820191505090505b5090505b600085146119245760018261188a9190612653565b9150600a8561189991906127e9565b60306118a591906125cc565b60f81b8183815181106118e1577f4e487b7100000000000000000000000000000000000000000000000000000000600052603260045260246000fd5b60200101907effffffffffffffffffffffffffffffffffffffffffffffffffffffffffffff1916908160001a905350600a8561191d9190612622565b9450611875565b8093505050505b919050565b505050565b505050565b600061195b8473ffffffffffffffffffffffffffffffffffffffff16611ad1565b15611ac4578373ffffffffffffffffffffffffffffffffffffffff1663150b7a02611984610f9f565b8786866040518563ffffffff1660e01b81526004016119a69493929190612252565b602060405180830381600087803b1580156119c057600080fd5b505af19250505080156119f157506040513d601f19601f820116820180604052508101906119ee9190611ea0565b60015b611a74573d8060008114611a21576040519150601f19603f3d011682016040523d82523d6000602084013e611a26565b606091505b50600081511415611a6c576040517f08c379a0000000000000000000000000000000000000000000000000000000008152600401611a6390612327565b60405180910390fd5b805181602001fd5b63150b7a0260e01b7bffffffffffffffffffffffffffffffffffffffffffffffffffffffff1916817bffffffffffffffffffffffffffffffffffffffffffffffffffffffff191614915050611ac9565b600190505b949350505050565b6000808273ffffffffffffffffffffffffffffffffffffffff163b119050919050565b828054611b009061273d565b90600052602060002090601f016020900481019282611b225760008555611b69565b82601f10611b3b57805160ff1916838001178555611b69565b82800160010185558215611b69579182015b82811115611b68578251825591602001919060010190611b4d565b5b509050611b769190611b7a565b5090565b5b80821115611b93576000816000905550600101611b7b565b5090565b6000611baa611ba584612527565b612502565b905082815260208101848484011115611bc257600080fd5b611bcd8482856126fb565b509392505050565b6000611be8611be384612558565b612502565b905082815260208101848484011115611c0057600080fd5b611c0b8482856126fb565b509392505050565b600081359050611c2281612cc7565b92915050565b600081359050611c3781612cde565b92915050565b600081359050611c4c81612cf5565b92915050565b600081519050611c6181612cf5565b92915050565b600082601f830112611c7857600080fd5b8135611c88848260208601611b97565b91505092915050565b600082601f830112611ca257600080fd5b8135611cb2848260208601611bd5565b91505092915050565b600081359050611cca81612d0c565b92915050565b600060208284031215611ce257600080fd5b6000611cf084828501611c13565b91505092915050565b60008060408385031215611d0c57600080fd5b6000611d1a85828601611c13565b9250506020611d2b85828601611c13565b9150509250929050565b600080600060608486031215611d4a57600080fd5b6000611d5886828701611c13565b9350506020611d6986828701611c13565b9250506040611d7a86828701611cbb565b9150509250925092565b60008060008060808587031215611d9a57600080fd5b6000611da887828801611c13565b9450506020611db987828801611c13565b9350506040611dca87828801611cbb565b925050606085013567ffffffffffffffff811115611de757600080fd5b611df387828801611c67565b91505092959194509250565b60008060408385031215611e1257600080fd5b6000611e2085828601611c13565b9250506020611e3185828601611c28565b9150509250929050565b60008060408385031215611e4e57600080fd5b6000611e5c85828601611c13565b9250506020611e6d85828601611cbb565b9150509250929050565b600060208284031215611e8957600080fd5b6000611e9784828501611c3d565b91505092915050565b600060208284031215611eb257600080fd5b6000611ec084828501611c52565b91505092915050565b600080600060608486031215611ede57600080fd5b600084013567ffffffffffffffff811115611ef857600080fd5b611f0486828701611c91565b9350506020611f1586828701611cbb565b9250506040611f2686828701611cbb565b9150509250925092565b600060208284031215611f4257600080fd5b6000611f5084828501611cbb565b91505092915050565b611f6281612687565b82525050565b611f7181612699565b82525050565b6000611f8282612589565b611f8c818561259f565b9350611f9c81856020860161270a565b611fa5816128d6565b840191505092915050565b6000611fbb82612594565b611fc581856125b0565b9350611fd581856020860161270a565b611fde816128d6565b840191505092915050565b6000611ff482612594565b611ffe81856125c1565b935061200e81856020860161270a565b80840191505092915050565b60006120276032836125b0565b9150612032826128e7565b604082019050919050565b600061204a6025836125b0565b915061205582612936565b604082019050919050565b600061206d601c836125b0565b915061207882612985565b602082019050919050565b60006120906024836125b0565b915061209b826129ae565b604082019050919050565b60006120b36019836125b0565b91506120be826129fd565b602082019050919050565b60006120d6602c836125b0565b91506120e182612a26565b604082019050919050565b60006120f96038836125b0565b915061210482612a75565b604082019050919050565b600061211c602a836125b0565b915061212782612ac4565b604082019050919050565b600061213f6029836125b0565b915061214a82612b13565b604082019050919050565b60006121626020836125b0565b915061216d82612b62565b602082019050919050565b6000612185602c836125b0565b915061219082612b8b565b604082019050919050565b60006121a8602f836125b0565b91506121b382612bda565b604082019050919050565b60006121cb6021836125b0565b91506121d682612c29565b604082019050919050565b60006121ee6031836125b0565b91506121f982612c78565b604082019050919050565b61220d816126f1565b82525050565b600061221f8285611fe9565b915061222b8284611fe9565b91508190509392505050565b600060208201905061224c6000830184611f59565b92915050565b60006080820190506122676000830187611f59565b6122746020830186611f59565b6122816040830185612204565b81810360608301526122938184611f77565b905095945050505050565b60006080820190506122b36000830187611f59565b81810360208301526122c58186611fb0565b90506122d46040830185612204565b6122e16060830184612204565b95945050505050565b60006020820190506122ff6000830184611f68565b92915050565b6000602082019050818103600083015261231f8184611fb0565b905092915050565b600060208201905081810360008301526123408161201a565b9050919050565b600060208201905081810360008301526123608161203d565b9050919050565b6000602082019050818103600083015261238081612060565b9050919050565b600060208201905081810360008301526123a081612083565b9050919050565b600060208201905081810360008301526123c0816120a6565b9050919050565b600060208201905081810360008301526123e0816120c9565b9050919050565b60006020820190508181036000830152612400816120ec565b9050919050565b600060208201905081810360008301526124208161210f565b9050919050565b6000602082019050818103600083015261244081612132565b9050919050565b6000602082019050818103600083015261246081612155565b9050919050565b6000602082019050818103600083015261248081612178565b9050919050565b600060208201905081810360008301526124a08161219b565b9050919050565b600060208201905081810360008301526124c0816121be565b9050919050565b600060208201905081810360008301526124e0816121e1565b9050919050565b60006020820190506124fc6000830184612204565b92915050565b600061250c61251d565b9050612518828261276f565b919050565b6000604051905090565b600067ffffffffffffffff821115612542576125416128a7565b5b61254b826128d6565b9050602081019050919050565b600067ffffffffffffffff821115612573576125726128a7565b5b61257c826128d6565b9050602081019050919050565b600081519050919050565b600081519050919050565b600082825260208201905092915050565b600082825260208201905092915050565b600081905092915050565b60006125d7826126f1565b91506125e2836126f1565b9250827fffffffffffffffffffffffffffffffffffffffffffffffffffffffffffffffff038211156126175761261661281a565b5b828201905092915050565b600061262d826126f1565b9150612638836126f1565b92508261264857612647612849565b5b828204905092915050565b600061265e826126f1565b9150612669836126f1565b92508282101561267c5761267b61281a565b5b828203905092915050565b6000612692826126d1565b9050919050565b60008115159050919050565b60007fffffffff0000000000000000000000000000000000000000000000000000000082169050919050565b600073ffffffffffffffffffffffffffffffffffffffff82169050919050565b6000819050919050565b82818337600083830152505050565b60005b8381101561272857808201518184015260208101905061270d565b83811115612737576000848401525b50505050565b6000600282049050600182168061275557607f821691505b6020821081141561276957612768612878565b5b50919050565b612778826128d6565b810181811067ffffffffffffffff82111715612797576127966128a7565b5b80604052505050565b60006127ab826126f1565b91507fffffffffffffffffffffffffffffffffffffffffffffffffffffffffffffffff8214156127de576127dd61281a565b5b600182019050919050565b60006127f4826126f1565b91506127ff836126f1565b92508261280f5761280e612849565b5b828206905092915050565b7f4e487b7100000000000000000000000000000000000000000000000000000000600052601160045260246000fd5b7f4e487b7100000000000000000000000000000000000000000000000000000000600052601260045260246000fd5b7f4e487b7100000000000000000000000000000000000000000000000000000000600052602260045260246000fd5b7f4e487b7100000000000000000000000000000000000000000000000000000000600052604160045260246000fd5b6000601f19601f8301169050919050565b7f4552433732313a207472616e7366657220746f206e6f6e20455243373231526560008201527f63656976657220696d706c656d656e7465720000000000000000000000000000602082015250565b7f4552433732313a207472616e736665722066726f6d20696e636f72726563742060008201527f6f776e6572000000000000000000000000000000000000000000000000000000602082015250565b7f4552433732313a20746f6b656e20616c7265616479206d696e74656400000000600082015250565b7f4552433732313a207472616e7366657220746f20746865207a65726f2061646460008201527f7265737300000000000000000000000000000000000000000000000000000000602082015250565b7f4552433732313a20617070726f766520746f2063616c6c657200000000000000600082015250565b7f4552433732313a206f70657261746f7220717565727920666f72206e6f6e657860008201527f697374656e7420746f6b656e0000000000000000000000000000000000000000602082015250565b7f4552433732313a20617070726f76652063616c6c6572206973206e6f74206f7760008201527f6e6572206e6f7220617070726f76656420666f7220616c6c0000000000000000602082015250565b7f4552433732313a2062616c616e636520717565727920666f7220746865207a6560008201527f726f206164647265737300000000000000000000000000000000000000000000602082015250565b7f4552433732313a206f776e657220717565727920666f72206e6f6e657869737460008201527f656e7420746f6b656e0000000000000000000000000000000000000000000000602082015250565b7f4552433732313a206d696e7420746f20746865207a65726f2061646472657373600082015250565b7f4552433732313a20617070726f76656420717565727920666f72206e6f6e657860008201527f697374656e7420746f6b656e0000000000000000000000000000000000000000602082015250565b7f4552433732314d657461646174613a2055524920717565727920666f72206e6f60008201527f6e6578697374656e7420746f6b656e0000000000000000000000000000000000602082015250565b7f4552433732313a20617070726f76616c20746f2063757272656e74206f776e6560008201527f7200000000000000000000000000000000000000000000000000000000000000602082015250565b7f4552433732313a207472616e736665722063616c6c6572206973206e6f74206f60008201527f776e6572206e6f7220617070726f766564000000000000000000000000000000602082015250565b612cd081612687565b8114612cdb57600080fd5b50565b612ce781612699565b8114612cf257600080fd5b50565b612cfe816126a5565b8114612d0957600080fd5b50565b612d15816126f1565b8114612d2057600080fd5b5056fea2646970667358221220ca11778fea70ef234124eaa12bc0b64bbe8f11e8f977c7aef61f59a9dd0432ee64736f6c63430008040033",
  "linkReferences": {},
  "deployedLinkReferences": {}
}