{
  "_format": "hh-sol-artifact-1",
  "contractName": "HealthPass721",
  "sourceName": "contracts/HealthPass721.sol",
  "abi": [
    {
      "inputs": [
        {
          "internalType": "string",
          "name": "_baseURL",
          "type": "string"
        }
      ],
      "stateMutability": "nonpayable",
      "type": "constructor"
    },
    {
      "anonymous": false,
      "inputs": [
        {
          "indexed": true,
          "internalType": "address",
          "name": "owner",
          "type": "address"
        },
        {
          "indexed": true,
          "internalType": "address",
          "name": "approved",
          "type": "address"
        },
        {
          "indexed": true,
          "internalType": "uint256",
          "name": "tokenId",
          "type": "uint256"
        }
      ],
      "name": "Approval",
      "type": "event"
    },
    {
      "anonymous": false,
      "inputs": [
        {
          "indexed": true,
          "internalType": "address",
          "name": "owner",
          "type": "address"
        },
        {
          "indexed": true,
          "internalType": "address",
          "name": "operator",
          "type": "address"
        },
        {
          "indexed": false,
          "internalType": "bool",
          "name": "approved",
          "type": "bool"
        }
      ],
      "name": "ApprovalForAll",
      "type": "event"
    },
    {
      "anonymous": false,
      "inputs": [
        {
          "indexed": false,
          "internalType": "uint256",
          "name": "",
          "type": "uint256"
        },
        {
          "components": [
            {
              "internalType": "string",
              "name": "category",
              "type": "string"
            },
            {
              "internalType": "string",
              "name": "country",
              "type": "string"
            },
            {
              "internalType": "string",
              "name": "region",
              "type": "string"
            },
            {
              "internalType": "string",
              "name": "vaccineVendor",
              "type": "string"
            }
          ],
          "indexed": false,
          "internalType": "struct HealthPass721.VaccineDetails",
          "name": "",
          "type": "tuple"
        }
      ],
      "name": "CertificateIssued",
      "type": "event"
    },
    {
      "anonymous": false,
      "inputs": [
        {
          "indexed": true,
          "internalType": "address",
          "name": "previousOwner",
          "type": "address"
        },
        {
          "indexed": true,
          "internalType": "address",
          "name": "newOwner",
          "type": "address"
        }
      ],
      "name": "OwnershipTransferred",
      "type": "event"
    },
    {
      "anonymous": false,
      "inputs": [
        {
          "indexed": true,
          "internalType": "address",
          "name": "from",
          "type": "address"
        },
        {
          "indexed": true,
          "internalType": "address",
          "name": "to",
          "type": "address"
        },
        {
          "indexed": true,
          "internalType": "uint256",
          "name": "tokenId",
          "type": "uint256"
        }
      ],
      "name": "Transfer",
      "type": "event"
    },
    {
      "inputs": [
        {
          "internalType": "address",
          "name": "to",
          "type": "address"
        },
        {
          "internalType": "uint256",
          "name": "tokenId",
          "type": "uint256"
        }
      ],
      "name": "approve",
      "outputs": [],
      "stateMutability": "nonpayable",
      "type": "function"
    },
    {
      "inputs": [
        {
          "internalType": "address",
          "name": "user",
          "type": "address"
        },
        {
          "components": [
            {
              "internalType": "string",
              "name": "category",
              "type": "string"
            },
            {
              "internalType": "string",
              "name": "country",
              "type": "string"
            },
            {
              "internalType": "string",
              "name": "region",
              "type": "string"
            },
            {
              "internalType": "string",
              "name": "vaccineVendor",
              "type": "string"
            }
          ],
          "internalType": "struct HealthPass721.VaccineDetails",
          "name": "vaccineDetails",
          "type": "tuple"
        }
      ],
      "name": "awardCertificate",
      "outputs": [
        {
          "internalType": "uint256",
          "name": "",
          "type": "uint256"
        }
      ],
      "stateMutability": "nonpayable",
      "type": "function"
    },
    {
      "inputs": [
        {
          "internalType": "address",
          "name": "owner",
          "type": "address"
        }
      ],
      "name": "balanceOf",
      "outputs": [
        {
          "internalType": "uint256",
          "name": "",
          "type": "uint256"
        }
      ],
      "stateMutability": "view",
      "type": "function"
    },
    {
      "inputs": [
        {
          "internalType": "uint256",
          "name": "tokenId",
          "type": "uint256"
        }
      ],
      "name": "getApproved",
      "outputs": [
        {
          "internalType": "address",
          "name": "",
          "type": "address"
        }
      ],
      "stateMutability": "view",
      "type": "function"
    },
    {
      "inputs": [
        {
          "internalType": "address",
          "name": "owner",
          "type": "address"
        },
        {
          "internalType": "address",
          "name": "operator",
          "type": "address"
        }
      ],
      "name": "isApprovedForAll",
      "outputs": [
        {
          "internalType": "bool",
          "name": "",
          "type": "bool"
        }
      ],
      "stateMutability": "view",
      "type": "function"
    },
    {
      "inputs": [],
      "name": "name",
      "outputs": [
        {
          "internalType": "string",
          "name": "",
          "type": "string"
        }
      ],
      "stateMutability": "view",
      "type": "function"
    },
    {
      "inputs": [],
      "name": "owner",
      "outputs": [
        {
          "internalType": "address",
          "name": "",
          "type": "address"
        }
      ],
      "stateMutability": "view",
      "type": "function"
    },
    {
      "inputs": [
        {
          "internalType": "uint256",
          "name": "tokenId",
          "type": "uint256"
        }
      ],
      "name": "ownerOf",
      "outputs": [
        {
          "internalType": "address",
          "name": "",
          "type": "address"
        }
      ],
      "stateMutability": "view",
      "type": "function"
    },
    {
      "inputs": [],
      "name": "renounceOwnership",
      "outputs": [],
      "stateMutability": "nonpayable",
      "type": "function"
    },
    {
      "inputs": [
        {
          "internalType": "address",
          "name": "from",
          "type": "address"
        },
        {
          "internalType": "address",
          "name": "to",
          "type": "address"
        },
        {
          "internalType": "uint256",
          "name": "tokenId",
          "type": "uint256"
        }
      ],
      "name": "safeTransferFrom",
      "outputs": [],
      "stateMutability": "nonpayable",
      "type": "function"
    },
    {
      "inputs": [
        {
          "internalType": "address",
          "name": "from",
          "type": "address"
        },
        {
          "internalType": "address",
          "name": "to",
          "type": "address"
        },
        {
          "internalType": "uint256",
          "name": "tokenId",
          "type": "uint256"
        },
        {
          "internalType": "bytes",
          "name": "_data",
          "type": "bytes"
        }
      ],
      "name": "safeTransferFrom",
      "outputs": [],
      "stateMutability": "nonpayable",
      "type": "function"
    },
    {
      "inputs": [
        {
          "internalType": "address",
          "name": "operator",
          "type": "address"
        },
        {
          "internalType": "bool",
          "name": "approved",
          "type": "bool"
        }
      ],
      "name": "setApprovalForAll",
      "outputs": [],
      "stateMutability": "nonpayable",
      "type": "function"
    },
    {
      "inputs": [
        {
          "internalType": "string",
          "name": "url",
          "type": "string"
        }
      ],
      "name": "setBaseURL",
      "outputs": [],
      "stateMutability": "nonpayable",
      "type": "function"
    },
    {
      "inputs": [
        {
          "internalType": "bytes4",
          "name": "interfaceId",
          "type": "bytes4"
        }
      ],
      "name": "supportsInterface",
      "outputs": [
        {
          "internalType": "bool",
          "name": "",
          "type": "bool"
        }
      ],
      "stateMutability": "view",
      "type": "function"
    },
    {
      "inputs": [],
      "name": "symbol",
      "outputs": [
        {
          "internalType": "string",
          "name": "",
          "type": "string"
        }
      ],
      "stateMutability": "view",
      "type": "function"
    },
    {
      "inputs": [
        {
          "internalType": "uint256",
          "name": "tokenId",
          "type": "uint256"
        }
      ],
      "name": "tokenURI",
      "outputs": [
        {
          "internalType": "string",
          "name": "",
          "type": "string"
        }
      ],
      "stateMutability": "view",
      "type": "function"
    },
    {
      "inputs": [
        {
          "internalType": "address",
          "name": "from",
          "type": "address"
        },
        {
          "internalType": "address",
          "name": "to",
          "type": "address"
        },
        {
          "internalType": "uint256",
          "name": "tokenId",
          "type": "uint256"
        }
      ],
      "name": "transferFrom",
      "outputs": [],
      "stateMutability": "nonpayable",
      "type": "function"
    },
    {
      "inputs": [
        {
          "internalType": "address",
          "name": "newOwner",
          "type": "address"
        }
      ],
      "name": "transferOwnership",
      "outputs": [],
      "stateMutability": "nonpayable",
      "type": "function"
    }
  ],
  "bytecode": "0x60806040523480156200001157600080fd5b50604051620037a8380380620037a8833981810160405281019062000037919062000307565b6040518060400160405280600a81526020017f4865616c746850617373000000000000000000000000000000000000000000008152506040518060400160405280600581526020017f48504153530000000000000000000000000000000000000000000000000000008152508160009080519060200190620000bb929190620001e5565b508060019080519060200190620000d4929190620001e5565b505050620000f7620000eb6200011760201b60201c565b6200011f60201b60201c565b80600a90805190602001906200010f929190620001e5565b50506200047d565b600033905090565b6000600760009054906101000a900473ffffffffffffffffffffffffffffffffffffffff16905081600760006101000a81548173ffffffffffffffffffffffffffffffffffffffff021916908373ffffffffffffffffffffffffffffffffffffffff1602179055508173ffffffffffffffffffffffffffffffffffffffff168173ffffffffffffffffffffffffffffffffffffffff167f8be0079c531659141344cd1fd0a4f28419497f9722a3daafe3b4186f6b6457e060405160405180910390a35050565b828054620001f390620003e9565b90600052602060002090601f01602090048101928262000217576000855562000263565b82601f106200023257805160ff191683800117855562000263565b8280016001018555821562000263579182015b828111156200026257825182559160200191906001019062000245565b5b50905062000272919062000276565b5090565b5b808211156200029157600081600090555060010162000277565b5090565b6000620002ac620002a68462000380565b6200034c565b905082815260208101848484011115620002c557600080fd5b620002d2848285620003b3565b509392505050565b600082601f830112620002ec57600080fd5b8151620002fe84826020860162000295565b91505092915050565b6000602082840312156200031a57600080fd5b600082015167ffffffffffffffff8111156200033557600080fd5b6200034384828501620002da565b91505092915050565b6000604051905081810181811067ffffffffffffffff821117156200037657620003756200044e565b5b8060405250919050565b600067ffffffffffffffff8211156200039e576200039d6200044e565b5b601f19601f8301169050602081019050919050565b60005b83811015620003d3578082015181840152602081019050620003b6565b83811115620003e3576000848401525b50505050565b600060028204905060018216806200040257607f821691505b602082108114156200041957620004186200041f565b5b50919050565b7f4e487b7100000000000000000000000000000000000000000000000000000000600052602260045260246000fd5b7f4e487b7100000000000000000000000000000000000000000000000000000000600052604160045260246000fd5b61331b806200048d6000396000f3fe608060405234801561001057600080fd5b50600436106101165760003560e01c806370a08231116100a2578063a22cb46511610071578063a22cb465146102df578063b88d4fde146102fb578063c87b56dd14610317578063e985e9c514610347578063f2fde38b1461037757610116565b806370a0823114610269578063715018a6146102995780638da5cb5b146102a357806395d89b41146102c157610116565b806323b872dd116100e957806323b872dd146101b5578063308957ed146101d157806342842e0e1461020157806349f2553a1461021d5780636352211e1461023957610116565b806301ffc9a71461011b57806306fdde031461014b578063081812fc14610169578063095ea7b314610199575b600080fd5b61013560048036038101906101309190612296565b610393565b6040516101429190612bf2565b60405180910390f35b610153610475565b6040516101609190612c0d565b60405180910390f35b610183600480360381019061017e9190612329565b610507565b6040516101909190612b8b565b60405180910390f35b6101b360048036038101906101ae919061225a565b61058c565b005b6101cf60048036038101906101ca9190612100565b6106a4565b005b6101eb60048036038101906101e69190612206565b610704565b6040516101f89190612e6f565b60405180910390f35b61021b60048036038101906102169190612100565b61094d565b005b610237600480360381019061023291906122e8565b61096d565b005b610253600480360381019061024e9190612329565b610987565b6040516102609190612b8b565b60405180910390f35b610283600480360381019061027e919061209b565b610a39565b6040516102909190612e6f565b60405180910390f35b6102a1610af1565b005b6102ab610b79565b6040516102b89190612b8b565b60405180910390f35b6102c9610ba3565b6040516102d69190612c0d565b60405180910390f35b6102f960048036038101906102f491906121ca565b610c35565b005b6103156004803603810190610310919061214f565b610c4b565b005b610331600480360381019061032c9190612329565b610cad565b60405161033e9190612c0d565b60405180910390f35b610361600480360381019061035c91906120c4565b610dff565b60405161036e9190612bf2565b60405180910390f35b610391600480360381019061038c919061209b565b610e93565b005b60007f80ac58cd000000000000000000000000000000000000000000000000000000007bffffffffffffffffffffffffffffffffffffffffffffffffffffffff1916827bffffffffffffffffffffffffffffffffffffffffffffffffffffffff1916148061045e57507f5b5e139f000000000000000000000000000000000000000000000000000000007bffffffffffffffffffffffffffffffffffffffffffffffffffffffff1916827bffffffffffffffffffffffffffffffffffffffffffffffffffffffff1916145b8061046e575061046d82610f8b565b5b9050919050565b60606000805461048490613110565b80601f01602080910402602001604051908101604052809291908181526020018280546104b090613110565b80156104fd5780601f106104d2576101008083540402835291602001916104fd565b820191906000526020600020905b8154815290600101906020018083116104e057829003601f168201915b5050505050905090565b600061051282610ff5565b610551576040517f08c379a000000000000000000000000000000000000000000000000000000000815260040161054890612daf565b60405180910390fd5b6004600083815260200190815260200160002060009054906101000a900473ffffffffffffffffffffffffffffffffffffffff169050919050565b600061059782610987565b90508073ffffffffffffffffffffffffffffffffffffffff168373ffffffffffffffffffffffffffffffffffffffff161415610608576040517f08c379a00000000000000000000000000000000000000000000000000000000081526004016105ff90612e2f565b60405180910390fd5b8073ffffffffffffffffffffffffffffffffffffffff16610627611061565b73ffffffffffffffffffffffffffffffffffffffff161480610656575061065581610650611061565b610dff565b5b610695576040517f08c379a000000000000000000000000000000000000000000000000000000000815260040161068c90612d0f565b60405180910390fd5b61069f8383611069565b505050565b6106b56106af611061565b82611122565b6106f4576040517f08c379a00000000000000000000000000000000000000000000000000000000081526004016106eb90612e4f565b60405180910390fd5b6106ff838383611200565b505050565b600061070e611061565b73ffffffffffffffffffffffffffffffffffffffff1661072c610b79565b73ffffffffffffffffffffffffffffffffffffffff1614610782576040517f08c379a000000000000000000000000000000000000000000000000000000000815260040161077990612dcf565b60405180910390fd5b826000600960008373ffffffffffffffffffffffffffffffffffffffff1673ffffffffffffffffffffffffffffffffffffffff1681526020019081526020016000208054905014610808576040517f08c379a00000000000000000000000000000000000000000000000000000000081526004016107ff90612c8f565b60405180910390fd5b610812600861145c565b600061081e6008611472565b905061082a8582611480565b600960008673ffffffffffffffffffffffffffffffffffffffff1673ffffffffffffffffffffffffffffffffffffffff16815260200190815260200160002084908060018154018082558091505060019003906000526020600020906004020160009091909190915060008201518160000190805190602001906108af929190611deb565b5060208201518160010190805190602001906108cc929190611deb565b5060408201518160020190805190602001906108e9929190611deb565b506060820151816003019080519060200190610906929190611deb565b5050507f4ec57436308b75ac80b25611f37612814828103c68b01778551b1dd7883ae13f818560405161093a929190612e8a565b60405180910390a1809250505092915050565b61096883838360405180602001604052806000815250610c4b565b505050565b80600a9080519060200190610983929190611deb565b5050565b6000806002600084815260200190815260200160002060009054906101000a900473ffffffffffffffffffffffffffffffffffffffff169050600073ffffffffffffffffffffffffffffffffffffffff168173ffffffffffffffffffffffffffffffffffffffff161415610a30576040517f08c379a0000000000000000000000000000000000000000000000000000000008152600401610a2790612d4f565b60405180910390fd5b80915050919050565b60008073ffffffffffffffffffffffffffffffffffffffff168273ffffffffffffffffffffffffffffffffffffffff161415610aaa576040517f08c379a0000000000000000000000000000000000000000000000000000000008152600401610aa190612d2f565b60405180910390fd5b600360008373ffffffffffffffffffffffffffffffffffffffff1673ffffffffffffffffffffffffffffffffffffffff168152602001908152602001600020549050919050565b610af9611061565b73ffffffffffffffffffffffffffffffffffffffff16610b17610b79565b73ffffffffffffffffffffffffffffffffffffffff1614610b6d576040517f08c379a0000000000000000000000000000000000000000000000000000000008152600401610b6490612dcf565b60405180910390fd5b610b77600061149e565b565b6000600760009054906101000a900473ffffffffffffffffffffffffffffffffffffffff16905090565b606060018054610bb290613110565b80601f0160208091040260200160405190810160405280929190818152602001828054610bde90613110565b8015610c2b5780601f10610c0057610100808354040283529160200191610c2b565b820191906000526020600020905b815481529060010190602001808311610c0e57829003601f168201915b5050505050905090565b610c47610c40611061565b8383611564565b5050565b610c5c610c56611061565b83611122565b610c9b576040517f08c379a0000000000000000000000000000000000000000000000000000000008152600401610c9290612e4f565b60405180910390fd5b610ca7848484846116d1565b50505050565b6060610cb882610ff5565b610cf7576040517f08c379a0000000000000000000000000000000000000000000000000000000008152600401610cee90612d8f565b60405180910390fd5b6000600660008481526020019081526020016000208054610d1790613110565b80601f0160208091040260200160405190810160405280929190818152602001828054610d4390613110565b8015610d905780601f10610d6557610100808354040283529160200191610d90565b820191906000526020600020905b815481529060010190602001808311610d7357829003601f168201915b505050505090506000610da161172d565b9050600081511415610db7578192505050610dfa565b600082511115610dec578082604051602001610dd4929190612b67565b60405160208183030381529060405292505050610dfa565b610df5846117bf565b925050505b919050565b6000600560008473ffffffffffffffffffffffffffffffffffffffff1673ffffffffffffffffffffffffffffffffffffffff16815260200190815260200160002060008373ffffffffffffffffffffffffffffffffffffffff1673ffffffffffffffffffffffffffffffffffffffff16815260200190815260200160002060009054906101000a900460ff16905092915050565b610e9b611061565b73ffffffffffffffffffffffffffffffffffffffff16610eb9610b79565b73ffffffffffffffffffffffffffffffffffffffff1614610f0f576040517f08c379a0000000000000000000000000000000000000000000000000000000008152600401610f0690612dcf565b60405180910390fd5b600073ffffffffffffffffffffffffffffffffffffffff168173ffffffffffffffffffffffffffffffffffffffff161415610f7f576040517f08c379a0000000000000000000000000000000000000000000000000000000008152600401610f7690612c4f565b60405180910390fd5b610f888161149e565b50565b60007f01ffc9a7000000000000000000000000000000000000000000000000000000007bffffffffffffffffffffffffffffffffffffffffffffffffffffffff1916827bffffffffffffffffffffffffffffffffffffffffffffffffffffffff1916149050919050565b60008073ffffffffffffffffffffffffffffffffffffffff166002600084815260200190815260200160002060009054906101000a900473ffffffffffffffffffffffffffffffffffffffff1673ffffffffffffffffffffffffffffffffffffffff1614159050919050565b600033905090565b816004600083815260200190815260200160002060006101000a81548173ffffffffffffffffffffffffffffffffffffffff021916908373ffffffffffffffffffffffffffffffffffffffff160217905550808273ffffffffffffffffffffffffffffffffffffffff166110dc83610987565b73ffffffffffffffffffffffffffffffffffffffff167f8c5be1e5ebec7d5bd14f71427d1e84f3dd0314c0f7b2291e5b200ac8c7c3b92560405160405180910390a45050565b600061112d82610ff5565b61116c576040517f08c379a000000000000000000000000000000000000000000000000000000000815260040161116390612cef565b60405180910390fd5b600061117783610987565b90508073ffffffffffffffffffffffffffffffffffffffff168473ffffffffffffffffffffffffffffffffffffffff1614806111e657508373ffffffffffffffffffffffffffffffffffffffff166111ce84610507565b73ffffffffffffffffffffffffffffffffffffffff16145b806111f757506111f68185610dff565b5b91505092915050565b8273ffffffffffffffffffffffffffffffffffffffff1661122082610987565b73ffffffffffffffffffffffffffffffffffffffff1614611276576040517f08c379a000000000000000000000000000000000000000000000000000000000815260040161126d90612def565b60405180910390fd5b600073ffffffffffffffffffffffffffffffffffffffff168273ffffffffffffffffffffffffffffffffffffffff1614156112e6576040517f08c379a00000000000000000000000000000000000000000000000000000000081526004016112dd90612caf565b60405180910390fd5b6112f1838383611866565b6112fc600082611069565b6001600360008573ffffffffffffffffffffffffffffffffffffffff1673ffffffffffffffffffffffffffffffffffffffff168152602001908152602001600020600082825461134c9190613026565b925050819055506001600360008473ffffffffffffffffffffffffffffffffffffffff1673ffffffffffffffffffffffffffffffffffffffff16815260200190815260200160002060008282546113a39190612f9f565b92505081905550816002600083815260200190815260200160002060006101000a81548173ffffffffffffffffffffffffffffffffffffffff021916908373ffffffffffffffffffffffffffffffffffffffff160217905550808273ffffffffffffffffffffffffffffffffffffffff168473ffffffffffffffffffffffffffffffffffffffff167fddf252ad1be2c89b69c2b068fc378daa952ba7f163c4a11628f55a4df523b3ef60405160405180910390a4505050565b6001816000016000828254019250508190555050565b600081600001549050919050565b61149a82826040518060200160405280600081525061186b565b5050565b6000600760009054906101000a900473ffffffffffffffffffffffffffffffffffffffff16905081600760006101000a81548173ffffffffffffffffffffffffffffffffffffffff021916908373ffffffffffffffffffffffffffffffffffffffff1602179055508173ffffffffffffffffffffffffffffffffffffffff168173ffffffffffffffffffffffffffffffffffffffff167f8be0079c531659141344cd1fd0a4f28419497f9722a3daafe3b4186f6b6457e060405160405180910390a35050565b8173ffffffffffffffffffffffffffffffffffffffff168373ffffffffffffffffffffffffffffffffffffffff1614156115d3576040517f08c379a00000000000000000000000000000000000000000000000000000000081526004016115ca90612ccf565b60405180910390fd5b80600560008573ffffffffffffffffffffffffffffffffffffffff1673ffffffffffffffffffffffffffffffffffffffff16815260200190815260200160002060008473ffffffffffffffffffffffffffffffffffffffff1673ffffffffffffffffffffffffffffffffffffffff16815260200190815260200160002060006101000a81548160ff0219169083151502179055508173ffffffffffffffffffffffffffffffffffffffff168373ffffffffffffffffffffffffffffffffffffffff167f17307eab39ab6107e8899845ad3d59bd9653f200f220920489ca2b5937696c31836040516116c49190612bf2565b60405180910390a3505050565b6116dc848484611200565b6116e8848484846118c6565b611727576040517f08c379a000000000000000000000000000000000000000000000000000000000815260040161171e90612c2f565b60405180910390fd5b50505050565b6060600a805461173c90613110565b80601f016020809104026020016040519081016040528092919081815260200182805461176890613110565b80156117b55780601f1061178a576101008083540402835291602001916117b5565b820191906000526020600020905b81548152906001019060200180831161179857829003601f168201915b5050505050905090565b60606117ca82610ff5565b611809576040517f08c379a000000000000000000000000000000000000000000000000000000000815260040161180090612e0f565b60405180910390fd5b600061181361172d565b90506000815111611833576040518060200160405280600081525061185e565b8061183d84611a5d565b60405160200161184e929190612b67565b6040516020818303038152906040525b915050919050565b505050565b6118758383611c0a565b61188260008484846118c6565b6118c1576040517f08c379a00000000000000000000000000000000000000000000000000000000081526004016118b890612c2f565b60405180910390fd5b505050565b60006118e78473ffffffffffffffffffffffffffffffffffffffff16611dd8565b15611a50578373ffffffffffffffffffffffffffffffffffffffff1663150b7a02611910611061565b8786866040518563ffffffff1660e01b81526004016119329493929190612ba6565b602060405180830381600087803b15801561194c57600080fd5b505af192505050801561197d57506040513d601f19601f8201168201806040525081019061197a91906122bf565b60015b611a00573d80600081146119ad576040519150601f19603f3d011682016040523d82523d6000602084013e6119b2565b606091505b506000815114156119f8576040517f08c379a00000000000000000000000000000000000000000000000000000000081526004016119ef90612c2f565b60405180910390fd5b805181602001fd5b63150b7a0260e01b7bffffffffffffffffffffffffffffffffffffffffffffffffffffffff1916817bffffffffffffffffffffffffffffffffffffffffffffffffffffffff191614915050611a55565b600190505b949350505050565b60606000821415611aa5576040518060400160405280600181526020017f30000000000000000000000000000000000000000000000000000000000000008152509050611c05565b600082905060005b60008214611ad7578080611ac090613142565b915050600a82611ad09190612ff5565b9150611aad565b60008167ffffffffffffffff811115611b19577f4e487b7100000000000000000000000000000000000000000000000000000000600052604160045260246000fd5b6040519080825280601f01601f191660200182016040528015611b4b5781602001600182028036833780820191505090505b5090505b60008514611bfe57600182611b649190613026565b9150600a85611b73919061318b565b6030611b7f9190612f9f565b60f81b818381518110611bbb577f4e487b7100000000000000000000000000000000000000000000000000000000600052603260045260246000fd5b60200101907effffffffffffffffffffffffffffffffffffffffffffffffffffffffffffff1916908160001a905350600a85611bf79190612ff5565b9450611b4f565b8093505050505b919050565b600073ffffffffffffffffffffffffffffffffffffffff168273ffffffffffffffffffffffffffffffffffffffff161415611c7a576040517f08c379a0000000000000000000000000000000000000000000000000000000008152600401611c7190612d6f565b60405180910390fd5b611c8381610ff5565b15611cc3576040517f08c379a0000000000000000000000000000000000000000000000000000000008152600401611cba90612c6f565b60405180910390fd5b611ccf60008383611866565b6001600360008473ffffffffffffffffffffffffffffffffffffffff1673ffffffffffffffffffffffffffffffffffffffff1681526020019081526020016000206000828254611d1f9190612f9f565b92505081905550816002600083815260200190815260200160002060006101000a81548173ffffffffffffffffffffffffffffffffffffffff021916908373ffffffffffffffffffffffffffffffffffffffff160217905550808273ffffffffffffffffffffffffffffffffffffffff16600073ffffffffffffffffffffffffffffffffffffffff167fddf252ad1be2c89b69c2b068fc378daa952ba7f163c4a11628f55a4df523b3ef60405160405180910390a45050565b600080823b905060008111915050919050565b828054611df790613110565b90600052602060002090601f016020900481019282611e195760008555611e60565b82601f10611e3257805160ff1916838001178555611e60565b82800160010185558215611e60579182015b82811115611e5f578251825591602001919060010190611e44565b5b509050611e6d9190611e71565b5090565b5b80821115611e8a576000816000905550600101611e72565b5090565b6000611ea1611e9c84612eeb565b612eba565b905082815260208101848484011115611eb957600080fd5b611ec48482856130ce565b509392505050565b6000611edf611eda84612f1b565b612eba565b905082815260208101848484011115611ef757600080fd5b611f028482856130ce565b509392505050565b600081359050611f1981613289565b92915050565b600081359050611f2e816132a0565b92915050565b600081359050611f43816132b7565b92915050565b600081519050611f58816132b7565b92915050565b600082601f830112611f6f57600080fd5b8135611f7f848260208601611e8e565b91505092915050565b600082601f830112611f9957600080fd5b8135611fa9848260208601611ecc565b91505092915050565b600060808284031215611fc457600080fd5b611fce6080612eba565b9050600082013567ffffffffffffffff811115611fea57600080fd5b611ff684828501611f88565b600083015250602082013567ffffffffffffffff81111561201657600080fd5b61202284828501611f88565b602083015250604082013567ffffffffffffffff81111561204257600080fd5b61204e84828501611f88565b604083015250606082013567ffffffffffffffff81111561206e57600080fd5b61207a84828501611f88565b60608301525092915050565b600081359050612095816132ce565b92915050565b6000602082840312156120ad57600080fd5b60006120bb84828501611f0a565b91505092915050565b600080604083850312156120d757600080fd5b60006120e585828601611f0a565b92505060206120f685828601611f0a565b9150509250929050565b60008060006060848603121561211557600080fd5b600061212386828701611f0a565b935050602061213486828701611f0a565b925050604061214586828701612086565b9150509250925092565b6000806000806080858703121561216557600080fd5b600061217387828801611f0a565b945050602061218487828801611f0a565b935050604061219587828801612086565b925050606085013567ffffffffffffffff8111156121b257600080fd5b6121be87828801611f5e565b91505092959194509250565b600080604083850312156121dd57600080fd5b60006121eb85828601611f0a565b92505060206121fc85828601611f1f565b9150509250929050565b6000806040838503121561221957600080fd5b600061222785828601611f0a565b925050602083013567ffffffffffffffff81111561224457600080fd5b61225085828601611fb2565b9150509250929050565b6000806040838503121561226d57600080fd5b600061227b85828601611f0a565b925050602061228c85828601612086565b9150509250929050565b6000602082840312156122a857600080fd5b60006122b684828501611f34565b91505092915050565b6000602082840312156122d157600080fd5b60006122df84828501611f49565b91505092915050565b6000602082840312156122fa57600080fd5b600082013567ffffffffffffffff81111561231457600080fd5b61232084828501611f88565b91505092915050565b60006020828403121561233b57600080fd5b600061234984828501612086565b91505092915050565b61235b8161305a565b82525050565b61236a8161306c565b82525050565b600061237b82612f4b565b6123858185612f61565b93506123958185602086016130dd565b61239e81613278565b840191505092915050565b60006123b482612f56565b6123be8185612f72565b93506123ce8185602086016130dd565b6123d781613278565b840191505092915050565b60006123ed82612f56565b6123f78185612f83565b93506124078185602086016130dd565b61241081613278565b840191505092915050565b600061242682612f56565b6124308185612f94565b93506124408185602086016130dd565b80840191505092915050565b6000612459603283612f83565b91507f4552433732313a207472616e7366657220746f206e6f6e20455243373231526560008301527f63656976657220696d706c656d656e74657200000000000000000000000000006020830152604082019050919050565b60006124bf602683612f83565b91507f4f776e61626c653a206e6577206f776e657220697320746865207a65726f206160008301527f64647265737300000000000000000000000000000000000000000000000000006020830152604082019050919050565b6000612525601c83612f83565b91507f4552433732313a20746f6b656e20616c7265616479206d696e746564000000006000830152602082019050919050565b6000612565602183612f83565b91507f4365727466696361746520616c72656164792069737375656420746f2075736560008301527f72000000000000000000000000000000000000000000000000000000000000006020830152604082019050919050565b60006125cb602483612f83565b91507f4552433732313a207472616e7366657220746f20746865207a65726f2061646460008301527f72657373000000000000000000000000000000000000000000000000000000006020830152604082019050919050565b6000612631601983612f83565b91507f4552433732313a20617070726f766520746f2063616c6c6572000000000000006000830152602082019050919050565b6000612671602c83612f83565b91507f4552433732313a206f70657261746f7220717565727920666f72206e6f6e657860008301527f697374656e7420746f6b656e00000000000000000000000000000000000000006020830152604082019050919050565b60006126d7603883612f83565b91507f4552433732313a20617070726f76652063616c6c6572206973206e6f74206f7760008301527f6e6572206e6f7220617070726f76656420666f7220616c6c00000000000000006020830152604082019050919050565b600061273d602a83612f83565b91507f4552433732313a2062616c616e636520717565727920666f7220746865207a6560008301527f726f2061646472657373000000000000000000000000000000000000000000006020830152604082019050919050565b60006127a3602983612f83565b91507f4552433732313a206f776e657220717565727920666f72206e6f6e657869737460008301527f656e7420746f6b656e00000000000000000000000000000000000000000000006020830152604082019050919050565b6000612809602083612f83565b91507f4552433732313a206d696e7420746f20746865207a65726f20616464726573736000830152602082019050919050565b6000612849603183612f83565b91507f45524337323155524953746f726167653a2055524920717565727920666f722060008301527f6e6f6e6578697374656e7420746f6b656e0000000000000000000000000000006020830152604082019050919050565b60006128af602c83612f83565b91507f4552433732313a20617070726f76656420717565727920666f72206e6f6e657860008301527f697374656e7420746f6b656e00000000000000000000000000000000000000006020830152604082019050919050565b6000612915602083612f83565b91507f4f776e61626c653a2063616c6c6572206973206e6f7420746865206f776e65726000830152602082019050919050565b6000612955602983612f83565b91507f4552433732313a207472616e73666572206f6620746f6b656e2074686174206960008301527f73206e6f74206f776e00000000000000000000000000000000000000000000006020830152604082019050919050565b60006129bb602f83612f83565b91507f4552433732314d657461646174613a2055524920717565727920666f72206e6f60008301527f6e6578697374656e7420746f6b656e00000000000000000000000000000000006020830152604082019050919050565b6000612a21602183612f83565b91507f4552433732313a20617070726f76616c20746f2063757272656e74206f776e6560008301527f72000000000000000000000000000000000000000000000000000000000000006020830152604082019050919050565b6000612a87603183612f83565b91507f4552433732313a207472616e736665722063616c6c6572206973206e6f74206f60008301527f776e6572206e6f7220617070726f7665640000000000000000000000000000006020830152604082019050919050565b60006080830160008301518482036000860152612afd82826123a9565b91505060208301518482036020860152612b1782826123a9565b91505060408301518482036040860152612b3182826123a9565b91505060608301518482036060860152612b4b82826123a9565b9150508091505092915050565b612b61816130c4565b82525050565b6000612b73828561241b565b9150612b7f828461241b565b91508190509392505050565b6000602082019050612ba06000830184612352565b92915050565b6000608082019050612bbb6000830187612352565b612bc86020830186612352565b612bd56040830185612b58565b8181036060830152612be78184612370565b905095945050505050565b6000602082019050612c076000830184612361565b92915050565b60006020820190508181036000830152612c2781846123e2565b905092915050565b60006020820190508181036000830152612c488161244c565b9050919050565b60006020820190508181036000830152612c68816124b2565b9050919050565b60006020820190508181036000830152612c8881612518565b9050919050565b60006020820190508181036000830152612ca881612558565b9050919050565b60006020820190508181036000830152612cc8816125be565b9050919050565b60006020820190508181036000830152612ce881612624565b9050919050565b60006020820190508181036000830152612d0881612664565b9050919050565b60006020820190508181036000830152612d28816126ca565b9050919050565b60006020820190508181036000830152612d4881612730565b9050919050565b60006020820190508181036000830152612d6881612796565b9050919050565b60006020820190508181036000830152612d88816127fc565b9050919050565b60006020820190508181036000830152612da88161283c565b9050919050565b60006020820190508181036000830152612dc8816128a2565b9050919050565b60006020820190508181036000830152612de881612908565b9050919050565b60006020820190508181036000830152612e0881612948565b9050919050565b60006020820190508181036000830152612e28816129ae565b9050919050565b60006020820190508181036000830152612e4881612a14565b9050919050565b60006020820190508181036000830152612e6881612a7a565b9050919050565b6000602082019050612e846000830184612b58565b92915050565b6000604082019050612e9f6000830185612b58565b8181036020830152612eb18184612ae0565b90509392505050565b6000604051905081810181811067ffffffffffffffff82111715612ee157612ee0613249565b5b8060405250919050565b600067ffffffffffffffff821115612f0657612f05613249565b5b601f19601f8301169050602081019050919050565b600067ffffffffffffffff821115612f3657612f35613249565b5b601f19601f8301169050602081019050919050565b600081519050919050565b600081519050919050565b600082825260208201905092915050565b600082825260208201905092915050565b600082825260208201905092915050565b600081905092915050565b6000612faa826130c4565b9150612fb5836130c4565b9250827fffffffffffffffffffffffffffffffffffffffffffffffffffffffffffffffff03821115612fea57612fe96131bc565b5b828201905092915050565b6000613000826130c4565b915061300b836130c4565b92508261301b5761301a6131eb565b5b828204905092915050565b6000613031826130c4565b915061303c836130c4565b92508282101561304f5761304e6131bc565b5b828203905092915050565b6000613065826130a4565b9050919050565b60008115159050919050565b60007fffffffff0000000000000000000000000000000000000000000000000000000082169050919050565b600073ffffffffffffffffffffffffffffffffffffffff82169050919050565b6000819050919050565b82818337600083830152505050565b60005b838110156130fb5780820151818401526020810190506130e0565b8381111561310a576000848401525b50505050565b6000600282049050600182168061312857607f821691505b6020821081141561313c5761313b61321a565b5b50919050565b600061314d826130c4565b91507fffffffffffffffffffffffffffffffffffffffffffffffffffffffffffffffff8214156131805761317f6131bc565b5b600182019050919050565b6000613196826130c4565b91506131a1836130c4565b9250826131b1576131b06131eb565b5b828206905092915050565b7f4e487b7100000000000000000000000000000000000000000000000000000000600052601160045260246000fd5b7f4e487b7100000000000000000000000000000000000000000000000000000000600052601260045260246000fd5b7f4e487b7100000000000000000000000000000000000000000000000000000000600052602260045260246000fd5b7f4e487b7100000000000000000000000000000000000000000000000000000000600052604160045260246000fd5b6000601f19601f8301169050919050565b6132928161305a565b811461329d57600080fd5b50565b6132a98161306c565b81146132b457600080fd5b50565b6132c081613078565b81146132cb57600080fd5b50565b6132d7816130c4565b81146132e257600080fd5b5056fea2646970667358221220f0de57200bb897b6fcb7ff0595cf043adb772ec392f1c6afddbeb8f2f53b2b3864736f6c63430008000033",
  "linkReferences": {},
  "deployedLinkReferences": {}
}