{
  "_format": "hh-sol-artifact-1",
  "contractName": "HealthPass721",
  "sourceName": "contracts/HealthPass721.sol",
  "abi": [
    {
      "inputs": [
        {
          "internalType": "string",
          "name": "_baseURL",
          "type": "string"
        }
      ],
      "stateMutability": "nonpayable",
      "type": "constructor"
    },
    {
      "anonymous": false,
      "inputs": [
        {
          "indexed": true,
          "internalType": "address",
          "name": "owner",
          "type": "address"
        },
        {
          "indexed": true,
          "internalType": "address",
          "name": "approved",
          "type": "address"
        },
        {
          "indexed": true,
          "internalType": "uint256",
          "name": "tokenId",
          "type": "uint256"
        }
      ],
      "name": "Approval",
      "type": "event"
    },
    {
      "anonymous": false,
      "inputs": [
        {
          "indexed": true,
          "internalType": "address",
          "name": "owner",
          "type": "address"
        },
        {
          "indexed": true,
          "internalType": "address",
          "name": "operator",
          "type": "address"
        },
        {
          "indexed": false,
          "internalType": "bool",
          "name": "approved",
          "type": "bool"
        }
      ],
      "name": "ApprovalForAll",
      "type": "event"
    },
    {
      "anonymous": false,
      "inputs": [
        {
          "indexed": true,
          "internalType": "uint256",
          "name": "id",
          "type": "uint256"
        },
        {
          "components": [
            {
              "internalType": "string",
              "name": "category",
              "type": "string"
            },
            {
              "internalType": "string",
              "name": "country",
              "type": "string"
            },
            {
              "internalType": "string",
              "name": "region",
              "type": "string"
            },
            {
              "internalType": "string",
              "name": "vaccineVendor",
              "type": "string"
            }
          ],
          "indexed": false,
          "internalType": "struct HealthPass721.VaccineDetails",
          "name": "vaccineDetails",
          "type": "tuple"
        }
      ],
      "name": "CertificateIssued",
      "type": "event"
    },
    {
      "anonymous": false,
      "inputs": [
        {
          "indexed": true,
          "internalType": "address",
          "name": "previousOwner",
          "type": "address"
        },
        {
          "indexed": true,
          "internalType": "address",
          "name": "newOwner",
          "type": "address"
        }
      ],
      "name": "OwnershipTransferred",
      "type": "event"
    },
    {
      "anonymous": false,
      "inputs": [
        {
          "indexed": true,
          "internalType": "address",
          "name": "from",
          "type": "address"
        },
        {
          "indexed": true,
          "internalType": "address",
          "name": "to",
          "type": "address"
        },
        {
          "indexed": true,
          "internalType": "uint256",
          "name": "tokenId",
          "type": "uint256"
        }
      ],
      "name": "Transfer",
      "type": "event"
    },
    {
      "inputs": [
        {
          "internalType": "address",
          "name": "to",
          "type": "address"
        },
        {
          "internalType": "uint256",
          "name": "tokenId",
          "type": "uint256"
        }
      ],
      "name": "approve",
      "outputs": [],
      "stateMutability": "nonpayable",
      "type": "function"
    },
    {
      "inputs": [
        {
          "internalType": "address",
          "name": "user",
          "type": "address"
        },
        {
          "components": [
            {
              "internalType": "string",
              "name": "category",
              "type": "string"
            },
            {
              "internalType": "string",
              "name": "country",
              "type": "string"
            },
            {
              "internalType": "string",
              "name": "region",
              "type": "string"
            },
            {
              "internalType": "string",
              "name": "vaccineVendor",
              "type": "string"
            }
          ],
          "internalType": "struct HealthPass721.VaccineDetails",
          "name": "vaccineDetails",
          "type": "tuple"
        }
      ],
      "name": "awardCertificate",
      "outputs": [
        {
          "internalType": "uint256",
          "name": "",
          "type": "uint256"
        }
      ],
      "stateMutability": "nonpayable",
      "type": "function"
    },
    {
      "inputs": [
        {
          "internalType": "address",
          "name": "owner",
          "type": "address"
        }
      ],
      "name": "balanceOf",
      "outputs": [
        {
          "internalType": "uint256",
          "name": "",
          "type": "uint256"
        }
      ],
      "stateMutability": "view",
      "type": "function"
    },
    {
      "inputs": [
        {
          "internalType": "uint256",
          "name": "tokenId",
          "type": "uint256"
        }
      ],
      "name": "getApproved",
      "outputs": [
        {
          "internalType": "address",
          "name": "",
          "type": "address"
        }
      ],
      "stateMutability": "view",
      "type": "function"
    },
    {
      "inputs": [
        {
          "internalType": "address",
          "name": "owner",
          "type": "address"
        },
        {
          "internalType": "address",
          "name": "operator",
          "type": "address"
        }
      ],
      "name": "isApprovedForAll",
      "outputs": [
        {
          "internalType": "bool",
          "name": "",
          "type": "bool"
        }
      ],
      "stateMutability": "view",
      "type": "function"
    },
    {
      "inputs": [],
      "name": "name",
      "outputs": [
        {
          "internalType": "string",
          "name": "",
          "type": "string"
        }
      ],
      "stateMutability": "view",
      "type": "function"
    },
    {
      "inputs": [],
      "name": "owner",
      "outputs": [
        {
          "internalType": "address",
          "name": "",
          "type": "address"
        }
      ],
      "stateMutability": "view",
      "type": "function"
    },
    {
      "inputs": [
        {
          "internalType": "uint256",
          "name": "tokenId",
          "type": "uint256"
        }
      ],
      "name": "ownerOf",
      "outputs": [
        {
          "internalType": "address",
          "name": "",
          "type": "address"
        }
      ],
      "stateMutability": "view",
      "type": "function"
    },
    {
      "inputs": [],
      "name": "renounceOwnership",
      "outputs": [],
      "stateMutability": "nonpayable",
      "type": "function"
    },
    {
      "inputs": [
        {
          "internalType": "address",
          "name": "from",
          "type": "address"
        },
        {
          "internalType": "address",
          "name": "to",
          "type": "address"
        },
        {
          "internalType": "uint256",
          "name": "tokenId",
          "type": "uint256"
        }
      ],
      "name": "safeTransferFrom",
      "outputs": [],
      "stateMutability": "nonpayable",
      "type": "function"
    },
    {
      "inputs": [
        {
          "internalType": "address",
          "name": "from",
          "type": "address"
        },
        {
          "internalType": "address",
          "name": "to",
          "type": "address"
        },
        {
          "internalType": "uint256",
          "name": "tokenId",
          "type": "uint256"
        },
        {
          "internalType": "bytes",
          "name": "_data",
          "type": "bytes"
        }
      ],
      "name": "safeTransferFrom",
      "outputs": [],
      "stateMutability": "nonpayable",
      "type": "function"
    },
    {
      "inputs": [
        {
          "internalType": "address",
          "name": "operator",
          "type": "address"
        },
        {
          "internalType": "bool",
          "name": "approved",
          "type": "bool"
        }
      ],
      "name": "setApprovalForAll",
      "outputs": [],
      "stateMutability": "nonpayable",
      "type": "function"
    },
    {
      "inputs": [
        {
          "internalType": "string",
          "name": "url",
          "type": "string"
        }
      ],
      "name": "setBaseURL",
      "outputs": [],
      "stateMutability": "nonpayable",
      "type": "function"
    },
    {
      "inputs": [
        {
          "internalType": "bytes4",
          "name": "interfaceId",
          "type": "bytes4"
        }
      ],
      "name": "supportsInterface",
      "outputs": [
        {
          "internalType": "bool",
          "name": "",
          "type": "bool"
        }
      ],
      "stateMutability": "view",
      "type": "function"
    },
    {
      "inputs": [],
      "name": "symbol",
      "outputs": [
        {
          "internalType": "string",
          "name": "",
          "type": "string"
        }
      ],
      "stateMutability": "view",
      "type": "function"
    },
    {
      "inputs": [
        {
          "internalType": "uint256",
          "name": "tokenId",
          "type": "uint256"
        }
      ],
      "name": "tokenURI",
      "outputs": [
        {
          "internalType": "string",
          "name": "",
          "type": "string"
        }
      ],
      "stateMutability": "view",
      "type": "function"
    },
    {
      "inputs": [
        {
          "internalType": "address",
          "name": "from",
          "type": "address"
        },
        {
          "internalType": "address",
          "name": "to",
          "type": "address"
        },
        {
          "internalType": "uint256",
          "name": "tokenId",
          "type": "uint256"
        }
      ],
      "name": "transferFrom",
      "outputs": [],
      "stateMutability": "nonpayable",
      "type": "function"
    },
    {
      "inputs": [
        {
          "internalType": "address",
          "name": "newOwner",
          "type": "address"
        }
      ],
      "name": "transferOwnership",
      "outputs": [],
      "stateMutability": "nonpayable",
      "type": "function"
    }
  ],
  "bytecode": "0x60806040523480156200001157600080fd5b506040516200361038038062003610833981810160405281019062000037919062000307565b6040518060400160405280600a81526020017f4865616c746850617373000000000000000000000000000000000000000000008152506040518060400160405280600581526020017f48504153530000000000000000000000000000000000000000000000000000008152508160009080519060200190620000bb929190620001e5565b508060019080519060200190620000d4929190620001e5565b505050620000f7620000eb6200011760201b60201c565b6200011f60201b60201c565b80600a90805190602001906200010f929190620001e5565b50506200047d565b600033905090565b6000600760009054906101000a900473ffffffffffffffffffffffffffffffffffffffff16905081600760006101000a81548173ffffffffffffffffffffffffffffffffffffffff021916908373ffffffffffffffffffffffffffffffffffffffff1602179055508173ffffffffffffffffffffffffffffffffffffffff168173ffffffffffffffffffffffffffffffffffffffff167f8be0079c531659141344cd1fd0a4f28419497f9722a3daafe3b4186f6b6457e060405160405180910390a35050565b828054620001f390620003e9565b90600052602060002090601f01602090048101928262000217576000855562000263565b82601f106200023257805160ff191683800117855562000263565b8280016001018555821562000263579182015b828111156200026257825182559160200191906001019062000245565b5b50905062000272919062000276565b5090565b5b808211156200029157600081600090555060010162000277565b5090565b6000620002ac620002a68462000380565b6200034c565b905082815260208101848484011115620002c557600080fd5b620002d2848285620003b3565b509392505050565b600082601f830112620002ec57600080fd5b8151620002fe84826020860162000295565b91505092915050565b6000602082840312156200031a57600080fd5b600082015167ffffffffffffffff8111156200033557600080fd5b6200034384828501620002da565b91505092915050565b6000604051905081810181811067ffffffffffffffff821117156200037657620003756200044e565b5b8060405250919050565b600067ffffffffffffffff8211156200039e576200039d6200044e565b5b601f19601f8301169050602081019050919050565b60005b83811015620003d3578082015181840152602081019050620003b6565b83811115620003e3576000848401525b50505050565b600060028204905060018216806200040257607f821691505b602082108114156200041957620004186200041f565b5b50919050565b7f4e487b7100000000000000000000000000000000000000000000000000000000600052602260045260246000fd5b7f4e487b7100000000000000000000000000000000000000000000000000000000600052604160045260246000fd5b613183806200048d6000396000f3fe608060405234801561001057600080fd5b50600436106101165760003560e01c806370a08231116100a2578063a22cb46511610071578063a22cb465146102df578063b88d4fde146102fb578063c87b56dd14610317578063e985e9c514610347578063f2fde38b1461037757610116565b806370a0823114610269578063715018a6146102995780638da5cb5b146102a357806395d89b41146102c157610116565b806323b872dd116100e957806323b872dd146101b5578063308957ed146101d157806342842e0e1461020157806349f2553a1461021d5780636352211e1461023957610116565b806301ffc9a71461011b57806306fdde031461014b578063081812fc14610169578063095ea7b314610199575b600080fd5b61013560048036038101906101309190612192565b610393565b6040516101429190612a88565b60405180910390f35b610153610475565b6040516101609190612aa3565b60405180910390f35b610183600480360381019061017e9190612225565b610507565b6040516101909190612a21565b60405180910390f35b6101b360048036038101906101ae9190612156565b61058c565b005b6101cf60048036038101906101ca9190611ffc565b6106a4565b005b6101eb60048036038101906101e69190612102565b610704565b6040516101f89190612d07565b60405180910390f35b61021b60048036038101906102169190611ffc565b610849565b005b610237600480360381019061023291906121e4565b610869565b005b610253600480360381019061024e9190612225565b610883565b6040516102609190612a21565b60405180910390f35b610283600480360381019061027e9190611f97565b610935565b6040516102909190612d07565b60405180910390f35b6102a16109ed565b005b6102ab610a75565b6040516102b89190612a21565b60405180910390f35b6102c9610a9f565b6040516102d69190612aa3565b60405180910390f35b6102f960048036038101906102f491906120c6565b610b31565b005b6103156004803603810190610310919061204b565b610b47565b005b610331600480360381019061032c9190612225565b610ba9565b60405161033e9190612aa3565b60405180910390f35b610361600480360381019061035c9190611fc0565b610cfb565b60405161036e9190612a88565b60405180910390f35b610391600480360381019061038c9190611f97565b610d8f565b005b60007f80ac58cd000000000000000000000000000000000000000000000000000000007bffffffffffffffffffffffffffffffffffffffffffffffffffffffff1916827bffffffffffffffffffffffffffffffffffffffffffffffffffffffff1916148061045e57507f5b5e139f000000000000000000000000000000000000000000000000000000007bffffffffffffffffffffffffffffffffffffffffffffffffffffffff1916827bffffffffffffffffffffffffffffffffffffffffffffffffffffffff1916145b8061046e575061046d82610e87565b5b9050919050565b60606000805461048490612f78565b80601f01602080910402602001604051908101604052809291908181526020018280546104b090612f78565b80156104fd5780601f106104d2576101008083540402835291602001916104fd565b820191906000526020600020905b8154815290600101906020018083116104e057829003601f168201915b5050505050905090565b600061051282610ef1565b610551576040517f08c379a000000000000000000000000000000000000000000000000000000000815260040161054890612c25565b60405180910390fd5b6004600083815260200190815260200160002060009054906101000a900473ffffffffffffffffffffffffffffffffffffffff169050919050565b600061059782610883565b90508073ffffffffffffffffffffffffffffffffffffffff168373ffffffffffffffffffffffffffffffffffffffff161415610608576040517f08c379a00000000000000000000000000000000000000000000000000000000081526004016105ff90612ca5565b60405180910390fd5b8073ffffffffffffffffffffffffffffffffffffffff16610627610f5d565b73ffffffffffffffffffffffffffffffffffffffff161480610656575061065581610650610f5d565b610cfb565b5b610695576040517f08c379a000000000000000000000000000000000000000000000000000000000815260040161068c90612b85565b60405180910390fd5b61069f8383610f65565b505050565b6106b56106af610f5d565b8261101e565b6106f4576040517f08c379a00000000000000000000000000000000000000000000000000000000081526004016106eb90612cc5565b60405180910390fd5b6106ff8383836110fc565b505050565b60006107106008611358565b600061071c600861136e565b9050610728848261137c565b600960008573ffffffffffffffffffffffffffffffffffffffff1673ffffffffffffffffffffffffffffffffffffffff16815260200190815260200160002083908060018154018082558091505060019003906000526020600020906004020160009091909190915060008201518160000190805190602001906107ad929190611ce7565b5060208201518160010190805190602001906107ca929190611ce7565b5060408201518160020190805190602001906107e7929190611ce7565b506060820151816003019080519060200190610804929190611ce7565b505050807f4ec57436308b75ac80b25611f37612814828103c68b01778551b1dd7883ae13f846040516108379190612ce5565b60405180910390a28091505092915050565b61086483838360405180602001604052806000815250610b47565b505050565b80600a908051906020019061087f929190611ce7565b5050565b6000806002600084815260200190815260200160002060009054906101000a900473ffffffffffffffffffffffffffffffffffffffff169050600073ffffffffffffffffffffffffffffffffffffffff168173ffffffffffffffffffffffffffffffffffffffff16141561092c576040517f08c379a000000000000000000000000000000000000000000000000000000000815260040161092390612bc5565b60405180910390fd5b80915050919050565b60008073ffffffffffffffffffffffffffffffffffffffff168273ffffffffffffffffffffffffffffffffffffffff1614156109a6576040517f08c379a000000000000000000000000000000000000000000000000000000000815260040161099d90612ba5565b60405180910390fd5b600360008373ffffffffffffffffffffffffffffffffffffffff1673ffffffffffffffffffffffffffffffffffffffff168152602001908152602001600020549050919050565b6109f5610f5d565b73ffffffffffffffffffffffffffffffffffffffff16610a13610a75565b73ffffffffffffffffffffffffffffffffffffffff1614610a69576040517f08c379a0000000000000000000000000000000000000000000000000000000008152600401610a6090612c45565b60405180910390fd5b610a73600061139a565b565b6000600760009054906101000a900473ffffffffffffffffffffffffffffffffffffffff16905090565b606060018054610aae90612f78565b80601f0160208091040260200160405190810160405280929190818152602001828054610ada90612f78565b8015610b275780601f10610afc57610100808354040283529160200191610b27565b820191906000526020600020905b815481529060010190602001808311610b0a57829003601f168201915b5050505050905090565b610b43610b3c610f5d565b8383611460565b5050565b610b58610b52610f5d565b8361101e565b610b97576040517f08c379a0000000000000000000000000000000000000000000000000000000008152600401610b8e90612cc5565b60405180910390fd5b610ba3848484846115cd565b50505050565b6060610bb482610ef1565b610bf3576040517f08c379a0000000000000000000000000000000000000000000000000000000008152600401610bea90612c05565b60405180910390fd5b6000600660008481526020019081526020016000208054610c1390612f78565b80601f0160208091040260200160405190810160405280929190818152602001828054610c3f90612f78565b8015610c8c5780601f10610c6157610100808354040283529160200191610c8c565b820191906000526020600020905b815481529060010190602001808311610c6f57829003601f168201915b505050505090506000610c9d611629565b9050600081511415610cb3578192505050610cf6565b600082511115610ce8578082604051602001610cd09291906129fd565b60405160208183030381529060405292505050610cf6565b610cf1846116bb565b925050505b919050565b6000600560008473ffffffffffffffffffffffffffffffffffffffff1673ffffffffffffffffffffffffffffffffffffffff16815260200190815260200160002060008373ffffffffffffffffffffffffffffffffffffffff1673ffffffffffffffffffffffffffffffffffffffff16815260200190815260200160002060009054906101000a900460ff16905092915050565b610d97610f5d565b73ffffffffffffffffffffffffffffffffffffffff16610db5610a75565b73ffffffffffffffffffffffffffffffffffffffff1614610e0b576040517f08c379a0000000000000000000000000000000000000000000000000000000008152600401610e0290612c45565b60405180910390fd5b600073ffffffffffffffffffffffffffffffffffffffff168173ffffffffffffffffffffffffffffffffffffffff161415610e7b576040517f08c379a0000000000000000000000000000000000000000000000000000000008152600401610e7290612ae5565b60405180910390fd5b610e848161139a565b50565b60007f01ffc9a7000000000000000000000000000000000000000000000000000000007bffffffffffffffffffffffffffffffffffffffffffffffffffffffff1916827bffffffffffffffffffffffffffffffffffffffffffffffffffffffff1916149050919050565b60008073ffffffffffffffffffffffffffffffffffffffff166002600084815260200190815260200160002060009054906101000a900473ffffffffffffffffffffffffffffffffffffffff1673ffffffffffffffffffffffffffffffffffffffff1614159050919050565b600033905090565b816004600083815260200190815260200160002060006101000a81548173ffffffffffffffffffffffffffffffffffffffff021916908373ffffffffffffffffffffffffffffffffffffffff160217905550808273ffffffffffffffffffffffffffffffffffffffff16610fd883610883565b73ffffffffffffffffffffffffffffffffffffffff167f8c5be1e5ebec7d5bd14f71427d1e84f3dd0314c0f7b2291e5b200ac8c7c3b92560405160405180910390a45050565b600061102982610ef1565b611068576040517f08c379a000000000000000000000000000000000000000000000000000000000815260040161105f90612b65565b60405180910390fd5b600061107383610883565b90508073ffffffffffffffffffffffffffffffffffffffff168473ffffffffffffffffffffffffffffffffffffffff1614806110e257508373ffffffffffffffffffffffffffffffffffffffff166110ca84610507565b73ffffffffffffffffffffffffffffffffffffffff16145b806110f357506110f28185610cfb565b5b91505092915050565b8273ffffffffffffffffffffffffffffffffffffffff1661111c82610883565b73ffffffffffffffffffffffffffffffffffffffff1614611172576040517f08c379a000000000000000000000000000000000000000000000000000000000815260040161116990612c65565b60405180910390fd5b600073ffffffffffffffffffffffffffffffffffffffff168273ffffffffffffffffffffffffffffffffffffffff1614156111e2576040517f08c379a00000000000000000000000000000000000000000000000000000000081526004016111d990612b25565b60405180910390fd5b6111ed838383611762565b6111f8600082610f65565b6001600360008573ffffffffffffffffffffffffffffffffffffffff1673ffffffffffffffffffffffffffffffffffffffff16815260200190815260200160002060008282546112489190612e8e565b925050819055506001600360008473ffffffffffffffffffffffffffffffffffffffff1673ffffffffffffffffffffffffffffffffffffffff168152602001908152602001600020600082825461129f9190612e07565b92505081905550816002600083815260200190815260200160002060006101000a81548173ffffffffffffffffffffffffffffffffffffffff021916908373ffffffffffffffffffffffffffffffffffffffff160217905550808273ffffffffffffffffffffffffffffffffffffffff168473ffffffffffffffffffffffffffffffffffffffff167fddf252ad1be2c89b69c2b068fc378daa952ba7f163c4a11628f55a4df523b3ef60405160405180910390a4505050565b6001816000016000828254019250508190555050565b600081600001549050919050565b611396828260405180602001604052806000815250611767565b5050565b6000600760009054906101000a900473ffffffffffffffffffffffffffffffffffffffff16905081600760006101000a81548173ffffffffffffffffffffffffffffffffffffffff021916908373ffffffffffffffffffffffffffffffffffffffff1602179055508173ffffffffffffffffffffffffffffffffffffffff168173ffffffffffffffffffffffffffffffffffffffff167f8be0079c531659141344cd1fd0a4f28419497f9722a3daafe3b4186f6b6457e060405160405180910390a35050565b8173ffffffffffffffffffffffffffffffffffffffff168373ffffffffffffffffffffffffffffffffffffffff1614156114cf576040517f08c379a00000000000000000000000000000000000000000000000000000000081526004016114c690612b45565b60405180910390fd5b80600560008573ffffffffffffffffffffffffffffffffffffffff1673ffffffffffffffffffffffffffffffffffffffff16815260200190815260200160002060008473ffffffffffffffffffffffffffffffffffffffff1673ffffffffffffffffffffffffffffffffffffffff16815260200190815260200160002060006101000a81548160ff0219169083151502179055508173ffffffffffffffffffffffffffffffffffffffff168373ffffffffffffffffffffffffffffffffffffffff167f17307eab39ab6107e8899845ad3d59bd9653f200f220920489ca2b5937696c31836040516115c09190612a88565b60405180910390a3505050565b6115d88484846110fc565b6115e4848484846117c2565b611623576040517f08c379a000000000000000000000000000000000000000000000000000000000815260040161161a90612ac5565b60405180910390fd5b50505050565b6060600a805461163890612f78565b80601f016020809104026020016040519081016040528092919081815260200182805461166490612f78565b80156116b15780601f10611686576101008083540402835291602001916116b1565b820191906000526020600020905b81548152906001019060200180831161169457829003601f168201915b5050505050905090565b60606116c682610ef1565b611705576040517f08c379a00000000000000000000000000000000000000000000000000000000081526004016116fc90612c85565b60405180910390fd5b600061170f611629565b9050600081511161172f576040518060200160405280600081525061175a565b8061173984611959565b60405160200161174a9291906129fd565b6040516020818303038152906040525b915050919050565b505050565b6117718383611b06565b61177e60008484846117c2565b6117bd576040517f08c379a00000000000000000000000000000000000000000000000000000000081526004016117b490612ac5565b60405180910390fd5b505050565b60006117e38473ffffffffffffffffffffffffffffffffffffffff16611cd4565b1561194c578373ffffffffffffffffffffffffffffffffffffffff1663150b7a0261180c610f5d565b8786866040518563ffffffff1660e01b815260040161182e9493929190612a3c565b602060405180830381600087803b15801561184857600080fd5b505af192505050801561187957506040513d601f19601f8201168201806040525081019061187691906121bb565b60015b6118fc573d80600081146118a9576040519150601f19603f3d011682016040523d82523d6000602084013e6118ae565b606091505b506000815114156118f4576040517f08c379a00000000000000000000000000000000000000000000000000000000081526004016118eb90612ac5565b60405180910390fd5b805181602001fd5b63150b7a0260e01b7bffffffffffffffffffffffffffffffffffffffffffffffffffffffff1916817bffffffffffffffffffffffffffffffffffffffffffffffffffffffff191614915050611951565b600190505b949350505050565b606060008214156119a1576040518060400160405280600181526020017f30000000000000000000000000000000000000000000000000000000000000008152509050611b01565b600082905060005b600082146119d35780806119bc90612faa565b915050600a826119cc9190612e5d565b91506119a9565b60008167ffffffffffffffff811115611a15577f4e487b7100000000000000000000000000000000000000000000000000000000600052604160045260246000fd5b6040519080825280601f01601f191660200182016040528015611a475781602001600182028036833780820191505090505b5090505b60008514611afa57600182611a609190612e8e565b9150600a85611a6f9190612ff3565b6030611a7b9190612e07565b60f81b818381518110611ab7577f4e487b7100000000000000000000000000000000000000000000000000000000600052603260045260246000fd5b60200101907effffffffffffffffffffffffffffffffffffffffffffffffffffffffffffff1916908160001a905350600a85611af39190612e5d565b9450611a4b565b8093505050505b919050565b600073ffffffffffffffffffffffffffffffffffffffff168273ffffffffffffffffffffffffffffffffffffffff161415611b76576040517f08c379a0000000000000000000000000000000000000000000000000000000008152600401611b6d90612be5565b60405180910390fd5b611b7f81610ef1565b15611bbf576040517f08c379a0000000000000000000000000000000000000000000000000000000008152600401611bb690612b05565b60405180910390fd5b611bcb60008383611762565b6001600360008473ffffffffffffffffffffffffffffffffffffffff1673ffffffffffffffffffffffffffffffffffffffff1681526020019081526020016000206000828254611c1b9190612e07565b92505081905550816002600083815260200190815260200160002060006101000a81548173ffffffffffffffffffffffffffffffffffffffff021916908373ffffffffffffffffffffffffffffffffffffffff160217905550808273ffffffffffffffffffffffffffffffffffffffff16600073ffffffffffffffffffffffffffffffffffffffff167fddf252ad1be2c89b69c2b068fc378daa952ba7f163c4a11628f55a4df523b3ef60405160405180910390a45050565b600080823b905060008111915050919050565b828054611cf390612f78565b90600052602060002090601f016020900481019282611d155760008555611d5c565b82601f10611d2e57805160ff1916838001178555611d5c565b82800160010185558215611d5c579182015b82811115611d5b578251825591602001919060010190611d40565b5b509050611d699190611d6d565b5090565b5b80821115611d86576000816000905550600101611d6e565b5090565b6000611d9d611d9884612d53565b612d22565b905082815260208101848484011115611db557600080fd5b611dc0848285612f36565b509392505050565b6000611ddb611dd684612d83565b612d22565b905082815260208101848484011115611df357600080fd5b611dfe848285612f36565b509392505050565b600081359050611e15816130f1565b92915050565b600081359050611e2a81613108565b92915050565b600081359050611e3f8161311f565b92915050565b600081519050611e548161311f565b92915050565b600082601f830112611e6b57600080fd5b8135611e7b848260208601611d8a565b91505092915050565b600082601f830112611e9557600080fd5b8135611ea5848260208601611dc8565b91505092915050565b600060808284031215611ec057600080fd5b611eca6080612d22565b9050600082013567ffffffffffffffff811115611ee657600080fd5b611ef284828501611e84565b600083015250602082013567ffffffffffffffff811115611f1257600080fd5b611f1e84828501611e84565b602083015250604082013567ffffffffffffffff811115611f3e57600080fd5b611f4a84828501611e84565b604083015250606082013567ffffffffffffffff811115611f6a57600080fd5b611f7684828501611e84565b60608301525092915050565b600081359050611f9181613136565b92915050565b600060208284031215611fa957600080fd5b6000611fb784828501611e06565b91505092915050565b60008060408385031215611fd357600080fd5b6000611fe185828601611e06565b9250506020611ff285828601611e06565b9150509250929050565b60008060006060848603121561201157600080fd5b600061201f86828701611e06565b935050602061203086828701611e06565b925050604061204186828701611f82565b9150509250925092565b6000806000806080858703121561206157600080fd5b600061206f87828801611e06565b945050602061208087828801611e06565b935050604061209187828801611f82565b925050606085013567ffffffffffffffff8111156120ae57600080fd5b6120ba87828801611e5a565b91505092959194509250565b600080604083850312156120d957600080fd5b60006120e785828601611e06565b92505060206120f885828601611e1b565b9150509250929050565b6000806040838503121561211557600080fd5b600061212385828601611e06565b925050602083013567ffffffffffffffff81111561214057600080fd5b61214c85828601611eae565b9150509250929050565b6000806040838503121561216957600080fd5b600061217785828601611e06565b925050602061218885828601611f82565b9150509250929050565b6000602082840312156121a457600080fd5b60006121b284828501611e30565b91505092915050565b6000602082840312156121cd57600080fd5b60006121db84828501611e45565b91505092915050565b6000602082840312156121f657600080fd5b600082013567ffffffffffffffff81111561221057600080fd5b61221c84828501611e84565b91505092915050565b60006020828403121561223757600080fd5b600061224584828501611f82565b91505092915050565b61225781612ec2565b82525050565b61226681612ed4565b82525050565b600061227782612db3565b6122818185612dc9565b9350612291818560208601612f45565b61229a816130e0565b840191505092915050565b60006122b082612dbe565b6122ba8185612dda565b93506122ca818560208601612f45565b6122d3816130e0565b840191505092915050565b60006122e982612dbe565b6122f38185612deb565b9350612303818560208601612f45565b61230c816130e0565b840191505092915050565b600061232282612dbe565b61232c8185612dfc565b935061233c818560208601612f45565b80840191505092915050565b6000612355603283612deb565b91507f4552433732313a207472616e7366657220746f206e6f6e20455243373231526560008301527f63656976657220696d706c656d656e74657200000000000000000000000000006020830152604082019050919050565b60006123bb602683612deb565b91507f4f776e61626c653a206e6577206f776e657220697320746865207a65726f206160008301527f64647265737300000000000000000000000000000000000000000000000000006020830152604082019050919050565b6000612421601c83612deb565b91507f4552433732313a20746f6b656e20616c7265616479206d696e746564000000006000830152602082019050919050565b6000612461602483612deb565b91507f4552433732313a207472616e7366657220746f20746865207a65726f2061646460008301527f72657373000000000000000000000000000000000000000000000000000000006020830152604082019050919050565b60006124c7601983612deb565b91507f4552433732313a20617070726f766520746f2063616c6c6572000000000000006000830152602082019050919050565b6000612507602c83612deb565b91507f4552433732313a206f70657261746f7220717565727920666f72206e6f6e657860008301527f697374656e7420746f6b656e00000000000000000000000000000000000000006020830152604082019050919050565b600061256d603883612deb565b91507f4552433732313a20617070726f76652063616c6c6572206973206e6f74206f7760008301527f6e6572206e6f7220617070726f76656420666f7220616c6c00000000000000006020830152604082019050919050565b60006125d3602a83612deb565b91507f4552433732313a2062616c616e636520717565727920666f7220746865207a6560008301527f726f2061646472657373000000000000000000000000000000000000000000006020830152604082019050919050565b6000612639602983612deb565b91507f4552433732313a206f776e657220717565727920666f72206e6f6e657869737460008301527f656e7420746f6b656e00000000000000000000000000000000000000000000006020830152604082019050919050565b600061269f602083612deb565b91507f4552433732313a206d696e7420746f20746865207a65726f20616464726573736000830152602082019050919050565b60006126df603183612deb565b91507f45524337323155524953746f726167653a2055524920717565727920666f722060008301527f6e6f6e6578697374656e7420746f6b656e0000000000000000000000000000006020830152604082019050919050565b6000612745602c83612deb565b91507f4552433732313a20617070726f76656420717565727920666f72206e6f6e657860008301527f697374656e7420746f6b656e00000000000000000000000000000000000000006020830152604082019050919050565b60006127ab602083612deb565b91507f4f776e61626c653a2063616c6c6572206973206e6f7420746865206f776e65726000830152602082019050919050565b60006127eb602983612deb565b91507f4552433732313a207472616e73666572206f6620746f6b656e2074686174206960008301527f73206e6f74206f776e00000000000000000000000000000000000000000000006020830152604082019050919050565b6000612851602f83612deb565b91507f4552433732314d657461646174613a2055524920717565727920666f72206e6f60008301527f6e6578697374656e7420746f6b656e00000000000000000000000000000000006020830152604082019050919050565b60006128b7602183612deb565b91507f4552433732313a20617070726f76616c20746f2063757272656e74206f776e6560008301527f72000000000000000000000000000000000000000000000000000000000000006020830152604082019050919050565b600061291d603183612deb565b91507f4552433732313a207472616e736665722063616c6c6572206973206e6f74206f60008301527f776e6572206e6f7220617070726f7665640000000000000000000000000000006020830152604082019050919050565b6000608083016000830151848203600086015261299382826122a5565b915050602083015184820360208601526129ad82826122a5565b915050604083015184820360408601526129c782826122a5565b915050606083015184820360608601526129e182826122a5565b9150508091505092915050565b6129f781612f2c565b82525050565b6000612a098285612317565b9150612a158284612317565b91508190509392505050565b6000602082019050612a36600083018461224e565b92915050565b6000608082019050612a51600083018761224e565b612a5e602083018661224e565b612a6b60408301856129ee565b8181036060830152612a7d818461226c565b905095945050505050565b6000602082019050612a9d600083018461225d565b92915050565b60006020820190508181036000830152612abd81846122de565b905092915050565b60006020820190508181036000830152612ade81612348565b9050919050565b60006020820190508181036000830152612afe816123ae565b9050919050565b60006020820190508181036000830152612b1e81612414565b9050919050565b60006020820190508181036000830152612b3e81612454565b9050919050565b60006020820190508181036000830152612b5e816124ba565b9050919050565b60006020820190508181036000830152612b7e816124fa565b9050919050565b60006020820190508181036000830152612b9e81612560565b9050919050565b60006020820190508181036000830152612bbe816125c6565b9050919050565b60006020820190508181036000830152612bde8161262c565b9050919050565b60006020820190508181036000830152612bfe81612692565b9050919050565b60006020820190508181036000830152612c1e816126d2565b9050919050565b60006020820190508181036000830152612c3e81612738565b9050919050565b60006020820190508181036000830152612c5e8161279e565b9050919050565b60006020820190508181036000830152612c7e816127de565b9050919050565b60006020820190508181036000830152612c9e81612844565b9050919050565b60006020820190508181036000830152612cbe816128aa565b9050919050565b60006020820190508181036000830152612cde81612910565b9050919050565b60006020820190508181036000830152612cff8184612976565b905092915050565b6000602082019050612d1c60008301846129ee565b92915050565b6000604051905081810181811067ffffffffffffffff82111715612d4957612d486130b1565b5b8060405250919050565b600067ffffffffffffffff821115612d6e57612d6d6130b1565b5b601f19601f8301169050602081019050919050565b600067ffffffffffffffff821115612d9e57612d9d6130b1565b5b601f19601f8301169050602081019050919050565b600081519050919050565b600081519050919050565b600082825260208201905092915050565b600082825260208201905092915050565b600082825260208201905092915050565b600081905092915050565b6000612e1282612f2c565b9150612e1d83612f2c565b9250827fffffffffffffffffffffffffffffffffffffffffffffffffffffffffffffffff03821115612e5257612e51613024565b5b828201905092915050565b6000612e6882612f2c565b9150612e7383612f2c565b925082612e8357612e82613053565b5b828204905092915050565b6000612e9982612f2c565b9150612ea483612f2c565b925082821015612eb757612eb6613024565b5b828203905092915050565b6000612ecd82612f0c565b9050919050565b60008115159050919050565b60007fffffffff0000000000000000000000000000000000000000000000000000000082169050919050565b600073ffffffffffffffffffffffffffffffffffffffff82169050919050565b6000819050919050565b82818337600083830152505050565b60005b83811015612f63578082015181840152602081019050612f48565b83811115612f72576000848401525b50505050565b60006002820490506001821680612f9057607f821691505b60208210811415612fa457612fa3613082565b5b50919050565b6000612fb582612f2c565b91507fffffffffffffffffffffffffffffffffffffffffffffffffffffffffffffffff821415612fe857612fe7613024565b5b600182019050919050565b6000612ffe82612f2c565b915061300983612f2c565b92508261301957613018613053565b5b828206905092915050565b7f4e487b7100000000000000000000000000000000000000000000000000000000600052601160045260246000fd5b7f4e487b7100000000000000000000000000000000000000000000000000000000600052601260045260246000fd5b7f4e487b7100000000000000000000000000000000000000000000000000000000600052602260045260246000fd5b7f4e487b7100000000000000000000000000000000000000000000000000000000600052604160045260246000fd5b6000601f19601f8301169050919050565b6130fa81612ec2565b811461310557600080fd5b50565b61311181612ed4565b811461311c57600080fd5b50565b61312881612ee0565b811461313357600080fd5b50565b61313f81612f2c565b811461314a57600080fd5b5056fea2646970667358221220cd7049692674be4285f5ec0848983fdc162afd8a0a5caef4d117c9dec8182f1a64736f6c63430008000033",
  "linkReferences": {},
  "deployedLinkReferences": {}
}