{
  "_format": "hh-sol-artifact-1",
  "contractName": "HealthPass721",
  "sourceName": "contracts/HealthPass721.sol",
  "abi": [
    {
      "inputs": [],
      "stateMutability": "nonpayable",
      "type": "constructor"
    },
    {
      "anonymous": false,
      "inputs": [
        {
          "indexed": true,
          "internalType": "address",
          "name": "owner",
          "type": "address"
        },
        {
          "indexed": true,
          "internalType": "address",
          "name": "approved",
          "type": "address"
        },
        {
          "indexed": true,
          "internalType": "uint256",
          "name": "tokenId",
          "type": "uint256"
        }
      ],
      "name": "Approval",
      "type": "event"
    },
    {
      "anonymous": false,
      "inputs": [
        {
          "indexed": true,
          "internalType": "address",
          "name": "owner",
          "type": "address"
        },
        {
          "indexed": true,
          "internalType": "address",
          "name": "operator",
          "type": "address"
        },
        {
          "indexed": false,
          "internalType": "bool",
          "name": "approved",
          "type": "bool"
        }
      ],
      "name": "ApprovalForAll",
      "type": "event"
    },
    {
      "anonymous": false,
      "inputs": [
        {
          "indexed": true,
          "internalType": "address",
          "name": "previousOwner",
          "type": "address"
        },
        {
          "indexed": true,
          "internalType": "address",
          "name": "newOwner",
          "type": "address"
        }
      ],
      "name": "OwnershipTransferred",
      "type": "event"
    },
    {
      "anonymous": false,
      "inputs": [
        {
          "indexed": true,
          "internalType": "address",
          "name": "from",
          "type": "address"
        },
        {
          "indexed": true,
          "internalType": "address",
          "name": "to",
          "type": "address"
        },
        {
          "indexed": true,
          "internalType": "uint256",
          "name": "tokenId",
          "type": "uint256"
        }
      ],
      "name": "Transfer",
      "type": "event"
    },
    {
      "inputs": [
        {
          "internalType": "address",
          "name": "to",
          "type": "address"
        },
        {
          "internalType": "uint256",
          "name": "tokenId",
          "type": "uint256"
        }
      ],
      "name": "approve",
      "outputs": [],
      "stateMutability": "nonpayable",
      "type": "function"
    },
    {
      "inputs": [
        {
          "internalType": "address",
          "name": "user",
          "type": "address"
        }
      ],
      "name": "awardCertificate",
      "outputs": [
        {
          "internalType": "uint256",
          "name": "",
          "type": "uint256"
        }
      ],
      "stateMutability": "nonpayable",
      "type": "function"
    },
    {
      "inputs": [
        {
          "internalType": "address",
          "name": "owner",
          "type": "address"
        }
      ],
      "name": "balanceOf",
      "outputs": [
        {
          "internalType": "uint256",
          "name": "",
          "type": "uint256"
        }
      ],
      "stateMutability": "view",
      "type": "function"
    },
    {
      "inputs": [
        {
          "internalType": "uint256",
          "name": "tokenId",
          "type": "uint256"
        }
      ],
      "name": "getApproved",
      "outputs": [
        {
          "internalType": "address",
          "name": "",
          "type": "address"
        }
      ],
      "stateMutability": "view",
      "type": "function"
    },
    {
      "inputs": [
        {
          "internalType": "address",
          "name": "owner",
          "type": "address"
        },
        {
          "internalType": "address",
          "name": "operator",
          "type": "address"
        }
      ],
      "name": "isApprovedForAll",
      "outputs": [
        {
          "internalType": "bool",
          "name": "",
          "type": "bool"
        }
      ],
      "stateMutability": "view",
      "type": "function"
    },
    {
      "inputs": [],
      "name": "name",
      "outputs": [
        {
          "internalType": "string",
          "name": "",
          "type": "string"
        }
      ],
      "stateMutability": "view",
      "type": "function"
    },
    {
      "inputs": [],
      "name": "owner",
      "outputs": [
        {
          "internalType": "address",
          "name": "",
          "type": "address"
        }
      ],
      "stateMutability": "view",
      "type": "function"
    },
    {
      "inputs": [
        {
          "internalType": "uint256",
          "name": "tokenId",
          "type": "uint256"
        }
      ],
      "name": "ownerOf",
      "outputs": [
        {
          "internalType": "address",
          "name": "",
          "type": "address"
        }
      ],
      "stateMutability": "view",
      "type": "function"
    },
    {
      "inputs": [],
      "name": "renounceOwnership",
      "outputs": [],
      "stateMutability": "nonpayable",
      "type": "function"
    },
    {
      "inputs": [
        {
          "internalType": "address",
          "name": "from",
          "type": "address"
        },
        {
          "internalType": "address",
          "name": "to",
          "type": "address"
        },
        {
          "internalType": "uint256",
          "name": "tokenId",
          "type": "uint256"
        }
      ],
      "name": "safeTransferFrom",
      "outputs": [],
      "stateMutability": "nonpayable",
      "type": "function"
    },
    {
      "inputs": [
        {
          "internalType": "address",
          "name": "from",
          "type": "address"
        },
        {
          "internalType": "address",
          "name": "to",
          "type": "address"
        },
        {
          "internalType": "uint256",
          "name": "tokenId",
          "type": "uint256"
        },
        {
          "internalType": "bytes",
          "name": "_data",
          "type": "bytes"
        }
      ],
      "name": "safeTransferFrom",
      "outputs": [],
      "stateMutability": "nonpayable",
      "type": "function"
    },
    {
      "inputs": [
        {
          "internalType": "address",
          "name": "operator",
          "type": "address"
        },
        {
          "internalType": "bool",
          "name": "approved",
          "type": "bool"
        }
      ],
      "name": "setApprovalForAll",
      "outputs": [],
      "stateMutability": "nonpayable",
      "type": "function"
    },
    {
      "inputs": [
        {
          "internalType": "bytes4",
          "name": "interfaceId",
          "type": "bytes4"
        }
      ],
      "name": "supportsInterface",
      "outputs": [
        {
          "internalType": "bool",
          "name": "",
          "type": "bool"
        }
      ],
      "stateMutability": "view",
      "type": "function"
    },
    {
      "inputs": [],
      "name": "symbol",
      "outputs": [
        {
          "internalType": "string",
          "name": "",
          "type": "string"
        }
      ],
      "stateMutability": "view",
      "type": "function"
    },
    {
      "inputs": [
        {
          "internalType": "uint256",
          "name": "tokenId",
          "type": "uint256"
        }
      ],
      "name": "tokenURI",
      "outputs": [
        {
          "internalType": "string",
          "name": "",
          "type": "string"
        }
      ],
      "stateMutability": "view",
      "type": "function"
    },
    {
      "inputs": [
        {
          "internalType": "address",
          "name": "from",
          "type": "address"
        },
        {
          "internalType": "address",
          "name": "to",
          "type": "address"
        },
        {
          "internalType": "uint256",
          "name": "tokenId",
          "type": "uint256"
        }
      ],
      "name": "transferFrom",
      "outputs": [],
      "stateMutability": "nonpayable",
      "type": "function"
    },
    {
      "inputs": [
        {
          "internalType": "address",
          "name": "newOwner",
          "type": "address"
        }
      ],
      "name": "transferOwnership",
      "outputs": [],
      "stateMutability": "nonpayable",
      "type": "function"
    }
  ],
  "bytecode": "0x60806040523480156200001157600080fd5b506040518060400160405280600a81526020017f4865616c746850617373000000000000000000000000000000000000000000008152506040518060400160405280600581526020017f4850415353000000000000000000000000000000000000000000000000000000815250816000908051906020019062000096929190620001a6565b508060019080519060200190620000af929190620001a6565b505050620000d2620000c6620000d860201b60201c565b620000e060201b60201c565b620002bb565b600033905090565b6000600760009054906101000a900473ffffffffffffffffffffffffffffffffffffffff16905081600760006101000a81548173ffffffffffffffffffffffffffffffffffffffff021916908373ffffffffffffffffffffffffffffffffffffffff1602179055508173ffffffffffffffffffffffffffffffffffffffff168173ffffffffffffffffffffffffffffffffffffffff167f8be0079c531659141344cd1fd0a4f28419497f9722a3daafe3b4186f6b6457e060405160405180910390a35050565b828054620001b49062000256565b90600052602060002090601f016020900481019282620001d8576000855562000224565b82601f10620001f357805160ff191683800117855562000224565b8280016001018555821562000224579182015b828111156200022357825182559160200191906001019062000206565b5b50905062000233919062000237565b5090565b5b808211156200025257600081600090555060010162000238565b5090565b600060028204905060018216806200026f57607f821691505b602082108114156200028657620002856200028c565b5b50919050565b7f4e487b7100000000000000000000000000000000000000000000000000000000600052602260045260246000fd5b612ca380620002cb6000396000f3fe608060405234801561001057600080fd5b506004361061010b5760003560e01c8063715018a6116100a2578063b88d4fde11610071578063b88d4fde146102a4578063c87b56dd146102c0578063daba2f38146102f0578063e985e9c514610320578063f2fde38b146103505761010b565b8063715018a6146102425780638da5cb5b1461024c57806395d89b411461026a578063a22cb465146102885761010b565b806323b872dd116100de57806323b872dd146101aa57806342842e0e146101c65780636352211e146101e257806370a08231146102125761010b565b806301ffc9a71461011057806306fdde0314610140578063081812fc1461015e578063095ea7b31461018e575b600080fd5b61012a60048036038101906101259190611e07565b61036c565b604051610137919061260b565b60405180910390f35b61014861044e565b6040516101559190612626565b60405180910390f35b61017860048036038101906101739190611e59565b6104e0565b60405161018591906125a4565b60405180910390f35b6101a860048036038101906101a39190611dcb565b610565565b005b6101c460048036038101906101bf9190611cc5565b61067d565b005b6101e060048036038101906101db9190611cc5565b6106dd565b005b6101fc60048036038101906101f79190611e59565b6106fd565b60405161020991906125a4565b60405180910390f35b61022c60048036038101906102279190611c60565b6107af565b6040516102399190612868565b60405180910390f35b61024a610867565b005b6102546108ef565b60405161026191906125a4565b60405180910390f35b610272610919565b60405161027f9190612626565b60405180910390f35b6102a2600480360381019061029d9190611d8f565b6109ab565b005b6102be60048036038101906102b99190611d14565b6109c1565b005b6102da60048036038101906102d59190611e59565b610a23565b6040516102e79190612626565b60405180910390f35b61030a60048036038101906103059190611c60565b610b75565b6040516103179190612868565b60405180910390f35b61033a60048036038101906103359190611c89565b610c1e565b604051610347919061260b565b60405180910390f35b61036a60048036038101906103659190611c60565b610cb2565b005b60007f80ac58cd000000000000000000000000000000000000000000000000000000007bffffffffffffffffffffffffffffffffffffffffffffffffffffffff1916827bffffffffffffffffffffffffffffffffffffffffffffffffffffffff1916148061043757507f5b5e139f000000000000000000000000000000000000000000000000000000007bffffffffffffffffffffffffffffffffffffffffffffffffffffffff1916827bffffffffffffffffffffffffffffffffffffffffffffffffffffffff1916145b80610447575061044682610daa565b5b9050919050565b60606000805461045d90612a98565b80601f016020809104026020016040519081016040528092919081815260200182805461048990612a98565b80156104d65780601f106104ab576101008083540402835291602001916104d6565b820191906000526020600020905b8154815290600101906020018083116104b957829003601f168201915b5050505050905090565b60006104eb82610e14565b61052a576040517f08c379a0000000000000000000000000000000000000000000000000000000008152600401610521906127a8565b60405180910390fd5b6004600083815260200190815260200160002060009054906101000a900473ffffffffffffffffffffffffffffffffffffffff169050919050565b6000610570826106fd565b90508073ffffffffffffffffffffffffffffffffffffffff168373ffffffffffffffffffffffffffffffffffffffff1614156105e1576040517f08c379a00000000000000000000000000000000000000000000000000000000081526004016105d890612828565b60405180910390fd5b8073ffffffffffffffffffffffffffffffffffffffff16610600610e80565b73ffffffffffffffffffffffffffffffffffffffff16148061062f575061062e81610629610e80565b610c1e565b5b61066e576040517f08c379a000000000000000000000000000000000000000000000000000000000815260040161066590612708565b60405180910390fd5b6106788383610e88565b505050565b61068e610688610e80565b82610f41565b6106cd576040517f08c379a00000000000000000000000000000000000000000000000000000000081526004016106c490612848565b60405180910390fd5b6106d883838361101f565b505050565b6106f8838383604051806020016040528060008152506109c1565b505050565b6000806002600084815260200190815260200160002060009054906101000a900473ffffffffffffffffffffffffffffffffffffffff169050600073ffffffffffffffffffffffffffffffffffffffff168173ffffffffffffffffffffffffffffffffffffffff1614156107a6576040517f08c379a000000000000000000000000000000000000000000000000000000000815260040161079d90612748565b60405180910390fd5b80915050919050565b60008073ffffffffffffffffffffffffffffffffffffffff168273ffffffffffffffffffffffffffffffffffffffff161415610820576040517f08c379a000000000000000000000000000000000000000000000000000000000815260040161081790612728565b60405180910390fd5b600360008373ffffffffffffffffffffffffffffffffffffffff1673ffffffffffffffffffffffffffffffffffffffff168152602001908152602001600020549050919050565b61086f610e80565b73ffffffffffffffffffffffffffffffffffffffff1661088d6108ef565b73ffffffffffffffffffffffffffffffffffffffff16146108e3576040517f08c379a00000000000000000000000000000000000000000000000000000000081526004016108da906127c8565b60405180910390fd5b6108ed600061127b565b565b6000600760009054906101000a900473ffffffffffffffffffffffffffffffffffffffff16905090565b60606001805461092890612a98565b80601f016020809104026020016040519081016040528092919081815260200182805461095490612a98565b80156109a15780601f10610976576101008083540402835291602001916109a1565b820191906000526020600020905b81548152906001019060200180831161098457829003601f168201915b5050505050905090565b6109bd6109b6610e80565b8383611341565b5050565b6109d26109cc610e80565b83610f41565b610a11576040517f08c379a0000000000000000000000000000000000000000000000000000000008152600401610a0890612848565b60405180910390fd5b610a1d848484846114ae565b50505050565b6060610a2e82610e14565b610a6d576040517f08c379a0000000000000000000000000000000000000000000000000000000008152600401610a6490612788565b60405180910390fd5b6000600660008481526020019081526020016000208054610a8d90612a98565b80601f0160208091040260200160405190810160405280929190818152602001828054610ab990612a98565b8015610b065780601f10610adb57610100808354040283529160200191610b06565b820191906000526020600020905b815481529060010190602001808311610ae957829003601f168201915b505050505090506000610b1761150a565b9050600081511415610b2d578192505050610b70565b600082511115610b62578082604051602001610b4a929190612580565b60405160208183030381529060405292505050610b70565b610b6b84611521565b925050505b919050565b6000610b7f610e80565b73ffffffffffffffffffffffffffffffffffffffff16610b9d6108ef565b73ffffffffffffffffffffffffffffffffffffffff1614610bf3576040517f08c379a0000000000000000000000000000000000000000000000000000000008152600401610bea906127c8565b60405180910390fd5b610bfd60086115c8565b6000610c0960086115de565b9050610c1583826115ec565b80915050919050565b6000600560008473ffffffffffffffffffffffffffffffffffffffff1673ffffffffffffffffffffffffffffffffffffffff16815260200190815260200160002060008373ffffffffffffffffffffffffffffffffffffffff1673ffffffffffffffffffffffffffffffffffffffff16815260200190815260200160002060009054906101000a900460ff16905092915050565b610cba610e80565b73ffffffffffffffffffffffffffffffffffffffff16610cd86108ef565b73ffffffffffffffffffffffffffffffffffffffff1614610d2e576040517f08c379a0000000000000000000000000000000000000000000000000000000008152600401610d25906127c8565b60405180910390fd5b600073ffffffffffffffffffffffffffffffffffffffff168173ffffffffffffffffffffffffffffffffffffffff161415610d9e576040517f08c379a0000000000000000000000000000000000000000000000000000000008152600401610d9590612668565b60405180910390fd5b610da78161127b565b50565b60007f01ffc9a7000000000000000000000000000000000000000000000000000000007bffffffffffffffffffffffffffffffffffffffffffffffffffffffff1916827bffffffffffffffffffffffffffffffffffffffffffffffffffffffff1916149050919050565b60008073ffffffffffffffffffffffffffffffffffffffff166002600084815260200190815260200160002060009054906101000a900473ffffffffffffffffffffffffffffffffffffffff1673ffffffffffffffffffffffffffffffffffffffff1614159050919050565b600033905090565b816004600083815260200190815260200160002060006101000a81548173ffffffffffffffffffffffffffffffffffffffff021916908373ffffffffffffffffffffffffffffffffffffffff160217905550808273ffffffffffffffffffffffffffffffffffffffff16610efb836106fd565b73ffffffffffffffffffffffffffffffffffffffff167f8c5be1e5ebec7d5bd14f71427d1e84f3dd0314c0f7b2291e5b200ac8c7c3b92560405160405180910390a45050565b6000610f4c82610e14565b610f8b576040517f08c379a0000000000000000000000000000000000000000000000000000000008152600401610f82906126e8565b60405180910390fd5b6000610f96836106fd565b90508073ffffffffffffffffffffffffffffffffffffffff168473ffffffffffffffffffffffffffffffffffffffff16148061100557508373ffffffffffffffffffffffffffffffffffffffff16610fed846104e0565b73ffffffffffffffffffffffffffffffffffffffff16145b8061101657506110158185610c1e565b5b91505092915050565b8273ffffffffffffffffffffffffffffffffffffffff1661103f826106fd565b73ffffffffffffffffffffffffffffffffffffffff1614611095576040517f08c379a000000000000000000000000000000000000000000000000000000000815260040161108c906127e8565b60405180910390fd5b600073ffffffffffffffffffffffffffffffffffffffff168273ffffffffffffffffffffffffffffffffffffffff161415611105576040517f08c379a00000000000000000000000000000000000000000000000000000000081526004016110fc906126a8565b60405180910390fd5b61111083838361160a565b61111b600082610e88565b6001600360008573ffffffffffffffffffffffffffffffffffffffff1673ffffffffffffffffffffffffffffffffffffffff168152602001908152602001600020600082825461116b91906129ae565b925050819055506001600360008473ffffffffffffffffffffffffffffffffffffffff1673ffffffffffffffffffffffffffffffffffffffff16815260200190815260200160002060008282546111c29190612927565b92505081905550816002600083815260200190815260200160002060006101000a81548173ffffffffffffffffffffffffffffffffffffffff021916908373ffffffffffffffffffffffffffffffffffffffff160217905550808273ffffffffffffffffffffffffffffffffffffffff168473ffffffffffffffffffffffffffffffffffffffff167fddf252ad1be2c89b69c2b068fc378daa952ba7f163c4a11628f55a4df523b3ef60405160405180910390a4505050565b6000600760009054906101000a900473ffffffffffffffffffffffffffffffffffffffff16905081600760006101000a81548173ffffffffffffffffffffffffffffffffffffffff021916908373ffffffffffffffffffffffffffffffffffffffff1602179055508173ffffffffffffffffffffffffffffffffffffffff168173ffffffffffffffffffffffffffffffffffffffff167f8be0079c531659141344cd1fd0a4f28419497f9722a3daafe3b4186f6b6457e060405160405180910390a35050565b8173ffffffffffffffffffffffffffffffffffffffff168373ffffffffffffffffffffffffffffffffffffffff1614156113b0576040517f08c379a00000000000000000000000000000000000000000000000000000000081526004016113a7906126c8565b60405180910390fd5b80600560008573ffffffffffffffffffffffffffffffffffffffff1673ffffffffffffffffffffffffffffffffffffffff16815260200190815260200160002060008473ffffffffffffffffffffffffffffffffffffffff1673ffffffffffffffffffffffffffffffffffffffff16815260200190815260200160002060006101000a81548160ff0219169083151502179055508173ffffffffffffffffffffffffffffffffffffffff168373ffffffffffffffffffffffffffffffffffffffff167f17307eab39ab6107e8899845ad3d59bd9653f200f220920489ca2b5937696c31836040516114a1919061260b565b60405180910390a3505050565b6114b984848461101f565b6114c58484848461160f565b611504576040517f08c379a00000000000000000000000000000000000000000000000000000000081526004016114fb90612648565b60405180910390fd5b50505050565b606060405180602001604052806000815250905090565b606061152c82610e14565b61156b576040517f08c379a000000000000000000000000000000000000000000000000000000000815260040161156290612808565b60405180910390fd5b600061157561150a565b9050600081511161159557604051806020016040528060008152506115c0565b8061159f846117a6565b6040516020016115b0929190612580565b6040516020818303038152906040525b915050919050565b6001816000016000828254019250508190555050565b600081600001549050919050565b611606828260405180602001604052806000815250611953565b5050565b505050565b60006116308473ffffffffffffffffffffffffffffffffffffffff166119ae565b15611799578373ffffffffffffffffffffffffffffffffffffffff1663150b7a02611659610e80565b8786866040518563ffffffff1660e01b815260040161167b94939291906125bf565b602060405180830381600087803b15801561169557600080fd5b505af19250505080156116c657506040513d601f19601f820116820180604052508101906116c39190611e30565b60015b611749573d80600081146116f6576040519150601f19603f3d011682016040523d82523d6000602084013e6116fb565b606091505b50600081511415611741576040517f08c379a000000000000000000000000000000000000000000000000000000000815260040161173890612648565b60405180910390fd5b805181602001fd5b63150b7a0260e01b7bffffffffffffffffffffffffffffffffffffffffffffffffffffffff1916817bffffffffffffffffffffffffffffffffffffffffffffffffffffffff19161491505061179e565b600190505b949350505050565b606060008214156117ee576040518060400160405280600181526020017f3000000000000000000000000000000000000000000000000000000000000000815250905061194e565b600082905060005b6000821461182057808061180990612aca565b915050600a82611819919061297d565b91506117f6565b60008167ffffffffffffffff811115611862577f4e487b7100000000000000000000000000000000000000000000000000000000600052604160045260246000fd5b6040519080825280601f01601f1916602001820160405280156118945781602001600182028036833780820191505090505b5090505b60008514611947576001826118ad91906129ae565b9150600a856118bc9190612b13565b60306118c89190612927565b60f81b818381518110611904577f4e487b7100000000000000000000000000000000000000000000000000000000600052603260045260246000fd5b60200101907effffffffffffffffffffffffffffffffffffffffffffffffffffffffffffff1916908160001a905350600a85611940919061297d565b9450611898565b8093505050505b919050565b61195d83836119c1565b61196a600084848461160f565b6119a9576040517f08c379a00000000000000000000000000000000000000000000000000000000081526004016119a090612648565b60405180910390fd5b505050565b600080823b905060008111915050919050565b600073ffffffffffffffffffffffffffffffffffffffff168273ffffffffffffffffffffffffffffffffffffffff161415611a31576040517f08c379a0000000000000000000000000000000000000000000000000000000008152600401611a2890612768565b60405180910390fd5b611a3a81610e14565b15611a7a576040517f08c379a0000000000000000000000000000000000000000000000000000000008152600401611a7190612688565b60405180910390fd5b611a866000838361160a565b6001600360008473ffffffffffffffffffffffffffffffffffffffff1673ffffffffffffffffffffffffffffffffffffffff1681526020019081526020016000206000828254611ad69190612927565b92505081905550816002600083815260200190815260200160002060006101000a81548173ffffffffffffffffffffffffffffffffffffffff021916908373ffffffffffffffffffffffffffffffffffffffff160217905550808273ffffffffffffffffffffffffffffffffffffffff16600073ffffffffffffffffffffffffffffffffffffffff167fddf252ad1be2c89b69c2b068fc378daa952ba7f163c4a11628f55a4df523b3ef60405160405180910390a45050565b6000611ba2611b9d846128b4565b612883565b905082815260208101848484011115611bba57600080fd5b611bc5848285612a56565b509392505050565b600081359050611bdc81612c11565b92915050565b600081359050611bf181612c28565b92915050565b600081359050611c0681612c3f565b92915050565b600081519050611c1b81612c3f565b92915050565b600082601f830112611c3257600080fd5b8135611c42848260208601611b8f565b91505092915050565b600081359050611c5a81612c56565b92915050565b600060208284031215611c7257600080fd5b6000611c8084828501611bcd565b91505092915050565b60008060408385031215611c9c57600080fd5b6000611caa85828601611bcd565b9250506020611cbb85828601611bcd565b9150509250929050565b600080600060608486031215611cda57600080fd5b6000611ce886828701611bcd565b9350506020611cf986828701611bcd565b9250506040611d0a86828701611c4b565b9150509250925092565b60008060008060808587031215611d2a57600080fd5b6000611d3887828801611bcd565b9450506020611d4987828801611bcd565b9350506040611d5a87828801611c4b565b925050606085013567ffffffffffffffff811115611d7757600080fd5b611d8387828801611c21565b91505092959194509250565b60008060408385031215611da257600080fd5b6000611db085828601611bcd565b9250506020611dc185828601611be2565b9150509250929050565b60008060408385031215611dde57600080fd5b6000611dec85828601611bcd565b9250506020611dfd85828601611c4b565b9150509250929050565b600060208284031215611e1957600080fd5b6000611e2784828501611bf7565b91505092915050565b600060208284031215611e4257600080fd5b6000611e5084828501611c0c565b91505092915050565b600060208284031215611e6b57600080fd5b6000611e7984828501611c4b565b91505092915050565b611e8b816129e2565b82525050565b611e9a816129f4565b82525050565b6000611eab826128e4565b611eb581856128fa565b9350611ec5818560208601612a65565b611ece81612c00565b840191505092915050565b6000611ee4826128ef565b611eee818561290b565b9350611efe818560208601612a65565b611f0781612c00565b840191505092915050565b6000611f1d826128ef565b611f27818561291c565b9350611f37818560208601612a65565b80840191505092915050565b6000611f5060328361290b565b91507f4552433732313a207472616e7366657220746f206e6f6e20455243373231526560008301527f63656976657220696d706c656d656e74657200000000000000000000000000006020830152604082019050919050565b6000611fb660268361290b565b91507f4f776e61626c653a206e6577206f776e657220697320746865207a65726f206160008301527f64647265737300000000000000000000000000000000000000000000000000006020830152604082019050919050565b600061201c601c8361290b565b91507f4552433732313a20746f6b656e20616c7265616479206d696e746564000000006000830152602082019050919050565b600061205c60248361290b565b91507f4552433732313a207472616e7366657220746f20746865207a65726f2061646460008301527f72657373000000000000000000000000000000000000000000000000000000006020830152604082019050919050565b60006120c260198361290b565b91507f4552433732313a20617070726f766520746f2063616c6c6572000000000000006000830152602082019050919050565b6000612102602c8361290b565b91507f4552433732313a206f70657261746f7220717565727920666f72206e6f6e657860008301527f697374656e7420746f6b656e00000000000000000000000000000000000000006020830152604082019050919050565b600061216860388361290b565b91507f4552433732313a20617070726f76652063616c6c6572206973206e6f74206f7760008301527f6e6572206e6f7220617070726f76656420666f7220616c6c00000000000000006020830152604082019050919050565b60006121ce602a8361290b565b91507f4552433732313a2062616c616e636520717565727920666f7220746865207a6560008301527f726f2061646472657373000000000000000000000000000000000000000000006020830152604082019050919050565b600061223460298361290b565b91507f4552433732313a206f776e657220717565727920666f72206e6f6e657869737460008301527f656e7420746f6b656e00000000000000000000000000000000000000000000006020830152604082019050919050565b600061229a60208361290b565b91507f4552433732313a206d696e7420746f20746865207a65726f20616464726573736000830152602082019050919050565b60006122da60318361290b565b91507f45524337323155524953746f726167653a2055524920717565727920666f722060008301527f6e6f6e6578697374656e7420746f6b656e0000000000000000000000000000006020830152604082019050919050565b6000612340602c8361290b565b91507f4552433732313a20617070726f76656420717565727920666f72206e6f6e657860008301527f697374656e7420746f6b656e00000000000000000000000000000000000000006020830152604082019050919050565b60006123a660208361290b565b91507f4f776e61626c653a2063616c6c6572206973206e6f7420746865206f776e65726000830152602082019050919050565b60006123e660298361290b565b91507f4552433732313a207472616e73666572206f6620746f6b656e2074686174206960008301527f73206e6f74206f776e00000000000000000000000000000000000000000000006020830152604082019050919050565b600061244c602f8361290b565b91507f4552433732314d657461646174613a2055524920717565727920666f72206e6f60008301527f6e6578697374656e7420746f6b656e00000000000000000000000000000000006020830152604082019050919050565b60006124b260218361290b565b91507f4552433732313a20617070726f76616c20746f2063757272656e74206f776e6560008301527f72000000000000000000000000000000000000000000000000000000000000006020830152604082019050919050565b600061251860318361290b565b91507f4552433732313a207472616e736665722063616c6c6572206973206e6f74206f60008301527f776e6572206e6f7220617070726f7665640000000000000000000000000000006020830152604082019050919050565b61257a81612a4c565b82525050565b600061258c8285611f12565b91506125988284611f12565b91508190509392505050565b60006020820190506125b96000830184611e82565b92915050565b60006080820190506125d46000830187611e82565b6125e16020830186611e82565b6125ee6040830185612571565b81810360608301526126008184611ea0565b905095945050505050565b60006020820190506126206000830184611e91565b92915050565b600060208201905081810360008301526126408184611ed9565b905092915050565b6000602082019050818103600083015261266181611f43565b9050919050565b6000602082019050818103600083015261268181611fa9565b9050919050565b600060208201905081810360008301526126a18161200f565b9050919050565b600060208201905081810360008301526126c18161204f565b9050919050565b600060208201905081810360008301526126e1816120b5565b9050919050565b60006020820190508181036000830152612701816120f5565b9050919050565b600060208201905081810360008301526127218161215b565b9050919050565b60006020820190508181036000830152612741816121c1565b9050919050565b6000602082019050818103600083015261276181612227565b9050919050565b600060208201905081810360008301526127818161228d565b9050919050565b600060208201905081810360008301526127a1816122cd565b9050919050565b600060208201905081810360008301526127c181612333565b9050919050565b600060208201905081810360008301526127e181612399565b9050919050565b60006020820190508181036000830152612801816123d9565b9050919050565b600060208201905081810360008301526128218161243f565b9050919050565b60006020820190508181036000830152612841816124a5565b9050919050565b600060208201905081810360008301526128618161250b565b9050919050565b600060208201905061287d6000830184612571565b92915050565b6000604051905081810181811067ffffffffffffffff821117156128aa576128a9612bd1565b5b8060405250919050565b600067ffffffffffffffff8211156128cf576128ce612bd1565b5b601f19601f8301169050602081019050919050565b600081519050919050565b600081519050919050565b600082825260208201905092915050565b600082825260208201905092915050565b600081905092915050565b600061293282612a4c565b915061293d83612a4c565b9250827fffffffffffffffffffffffffffffffffffffffffffffffffffffffffffffffff0382111561297257612971612b44565b5b828201905092915050565b600061298882612a4c565b915061299383612a4c565b9250826129a3576129a2612b73565b5b828204905092915050565b60006129b982612a4c565b91506129c483612a4c565b9250828210156129d7576129d6612b44565b5b828203905092915050565b60006129ed82612a2c565b9050919050565b60008115159050919050565b60007fffffffff0000000000000000000000000000000000000000000000000000000082169050919050565b600073ffffffffffffffffffffffffffffffffffffffff82169050919050565b6000819050919050565b82818337600083830152505050565b60005b83811015612a83578082015181840152602081019050612a68565b83811115612a92576000848401525b50505050565b60006002820490506001821680612ab057607f821691505b60208210811415612ac457612ac3612ba2565b5b50919050565b6000612ad582612a4c565b91507fffffffffffffffffffffffffffffffffffffffffffffffffffffffffffffffff821415612b0857612b07612b44565b5b600182019050919050565b6000612b1e82612a4c565b9150612b2983612a4c565b925082612b3957612b38612b73565b5b828206905092915050565b7f4e487b7100000000000000000000000000000000000000000000000000000000600052601160045260246000fd5b7f4e487b7100000000000000000000000000000000000000000000000000000000600052601260045260246000fd5b7f4e487b7100000000000000000000000000000000000000000000000000000000600052602260045260246000fd5b7f4e487b7100000000000000000000000000000000000000000000000000000000600052604160045260246000fd5b6000601f19601f8301169050919050565b612c1a816129e2565b8114612c2557600080fd5b50565b612c31816129f4565b8114612c3c57600080fd5b50565b612c4881612a00565b8114612c5357600080fd5b50565b612c5f81612a4c565b8114612c6a57600080fd5b5056fea26469706673582212208898c3107b1205a5380ba790eca7378d75ccd3c157ff7bbc7c7d942b200a307164736f6c63430008000033",
  "linkReferences": {},
  "deployedLinkReferences": {}
}