{
  "_format": "hh-sol-artifact-1",
  "contractName": "EthereumFaucet",
  "sourceName": "contracts/EthereumFaucet.sol",
  "abi": [
    {
      "inputs": [],
      "name": "donate",
      "outputs": [],
      "stateMutability": "payable",
      "type": "function"
    },
    {
      "inputs": [
        {
          "internalType": "address payable",
          "name": "_receiver",
          "type": "address"
        },
        {
          "internalType": "uint256",
          "name": "amount",
          "type": "uint256"
        }
      ],
      "name": "getEther",
      "outputs": [],
      "stateMutability": "nonpayable",
      "type": "function"
    }
  ],
  "bytecode": "0x608060405234801561001057600080fd5b506101be806100206000396000f3fe6080604052600436106100295760003560e01c8063a079c56a1461002e578063ed88c68e14610057575b600080fd5b34801561003a57600080fd5b50610055600480360381019061005091906100e2565b610061565b005b61005f6100b6565b005b8047101561006e57600080fd5b60008273ffffffffffffffffffffffffffffffffffffffff166108fc839081150290604051600060405180830381858888f193505050509050806100b157600080fd5b505050565b565b6000813590506100c78161015a565b92915050565b6000813590506100dc81610171565b92915050565b600080604083850312156100f557600080fd5b6000610103858286016100b8565b9250506020610114858286016100cd565b9150509250929050565b600061012982610130565b9050919050565b600073ffffffffffffffffffffffffffffffffffffffff82169050919050565b6000819050919050565b6101638161011e565b811461016e57600080fd5b50565b61017a81610150565b811461018557600080fd5b5056fea2646970667358221220e894bba8f266b4dbc6fc9c8fbffe2c9d130afd20873074e286cf974fd49d4fbe64736f6c63430008000033",
  "linkReferences": {},
  "deployedLinkReferences": {}
}