{
  "_format": "hh-sol-artifact-1",
  "contractName": "HealthPass721",
  "sourceName": "contracts/HealthPass721.sol",
  "abi": [
    {
      "inputs": [],
      "stateMutability": "nonpayable",
      "type": "constructor"
    },
    {
      "anonymous": false,
      "inputs": [
        {
          "indexed": true,
          "internalType": "address",
          "name": "owner",
          "type": "address"
        },
        {
          "indexed": true,
          "internalType": "address",
          "name": "approved",
          "type": "address"
        },
        {
          "indexed": true,
          "internalType": "uint256",
          "name": "tokenId",
          "type": "uint256"
        }
      ],
      "name": "Approval",
      "type": "event"
    },
    {
      "anonymous": false,
      "inputs": [
        {
          "indexed": true,
          "internalType": "address",
          "name": "owner",
          "type": "address"
        },
        {
          "indexed": true,
          "internalType": "address",
          "name": "operator",
          "type": "address"
        },
        {
          "indexed": false,
          "internalType": "bool",
          "name": "approved",
          "type": "bool"
        }
      ],
      "name": "ApprovalForAll",
      "type": "event"
    },
    {
      "anonymous": false,
      "inputs": [
        {
          "indexed": true,
          "internalType": "address",
          "name": "previousOwner",
          "type": "address"
        },
        {
          "indexed": true,
          "internalType": "address",
          "name": "newOwner",
          "type": "address"
        }
      ],
      "name": "OwnershipTransferred",
      "type": "event"
    },
    {
      "anonymous": false,
      "inputs": [
        {
          "indexed": true,
          "internalType": "address",
          "name": "from",
          "type": "address"
        },
        {
          "indexed": true,
          "internalType": "address",
          "name": "to",
          "type": "address"
        },
        {
          "indexed": true,
          "internalType": "uint256",
          "name": "tokenId",
          "type": "uint256"
        }
      ],
      "name": "Transfer",
      "type": "event"
    },
    {
      "inputs": [
        {
          "internalType": "address",
          "name": "to",
          "type": "address"
        },
        {
          "internalType": "uint256",
          "name": "tokenId",
          "type": "uint256"
        }
      ],
      "name": "approve",
      "outputs": [],
      "stateMutability": "nonpayable",
      "type": "function"
    },
    {
      "inputs": [
        {
          "internalType": "address",
          "name": "user",
          "type": "address"
        }
      ],
      "name": "awardCertificate",
      "outputs": [
        {
          "internalType": "uint256",
          "name": "",
          "type": "uint256"
        }
      ],
      "stateMutability": "nonpayable",
      "type": "function"
    },
    {
      "inputs": [
        {
          "internalType": "address",
          "name": "owner",
          "type": "address"
        }
      ],
      "name": "balanceOf",
      "outputs": [
        {
          "internalType": "uint256",
          "name": "",
          "type": "uint256"
        }
      ],
      "stateMutability": "view",
      "type": "function"
    },
    {
      "inputs": [
        {
          "internalType": "uint256",
          "name": "tokenId",
          "type": "uint256"
        }
      ],
      "name": "getApproved",
      "outputs": [
        {
          "internalType": "address",
          "name": "",
          "type": "address"
        }
      ],
      "stateMutability": "view",
      "type": "function"
    },
    {
      "inputs": [
        {
          "internalType": "address",
          "name": "owner",
          "type": "address"
        },
        {
          "internalType": "address",
          "name": "operator",
          "type": "address"
        }
      ],
      "name": "isApprovedForAll",
      "outputs": [
        {
          "internalType": "bool",
          "name": "",
          "type": "bool"
        }
      ],
      "stateMutability": "view",
      "type": "function"
    },
    {
      "inputs": [],
      "name": "name",
      "outputs": [
        {
          "internalType": "string",
          "name": "",
          "type": "string"
        }
      ],
      "stateMutability": "view",
      "type": "function"
    },
    {
      "inputs": [],
      "name": "owner",
      "outputs": [
        {
          "internalType": "address",
          "name": "",
          "type": "address"
        }
      ],
      "stateMutability": "view",
      "type": "function"
    },
    {
      "inputs": [
        {
          "internalType": "uint256",
          "name": "tokenId",
          "type": "uint256"
        }
      ],
      "name": "ownerOf",
      "outputs": [
        {
          "internalType": "address",
          "name": "",
          "type": "address"
        }
      ],
      "stateMutability": "view",
      "type": "function"
    },
    {
      "inputs": [],
      "name": "renounceOwnership",
      "outputs": [],
      "stateMutability": "nonpayable",
      "type": "function"
    },
    {
      "inputs": [
        {
          "internalType": "address",
          "name": "from",
          "type": "address"
        },
        {
          "internalType": "address",
          "name": "to",
          "type": "address"
        },
        {
          "internalType": "uint256",
          "name": "tokenId",
          "type": "uint256"
        }
      ],
      "name": "safeTransferFrom",
      "outputs": [],
      "stateMutability": "nonpayable",
      "type": "function"
    },
    {
      "inputs": [
        {
          "internalType": "address",
          "name": "from",
          "type": "address"
        },
        {
          "internalType": "address",
          "name": "to",
          "type": "address"
        },
        {
          "internalType": "uint256",
          "name": "tokenId",
          "type": "uint256"
        },
        {
          "internalType": "bytes",
          "name": "_data",
          "type": "bytes"
        }
      ],
      "name": "safeTransferFrom",
      "outputs": [],
      "stateMutability": "nonpayable",
      "type": "function"
    },
    {
      "inputs": [
        {
          "internalType": "address",
          "name": "operator",
          "type": "address"
        },
        {
          "internalType": "bool",
          "name": "approved",
          "type": "bool"
        }
      ],
      "name": "setApprovalForAll",
      "outputs": [],
      "stateMutability": "nonpayable",
      "type": "function"
    },
    {
      "inputs": [
        {
          "internalType": "bytes4",
          "name": "interfaceId",
          "type": "bytes4"
        }
      ],
      "name": "supportsInterface",
      "outputs": [
        {
          "internalType": "bool",
          "name": "",
          "type": "bool"
        }
      ],
      "stateMutability": "view",
      "type": "function"
    },
    {
      "inputs": [],
      "name": "symbol",
      "outputs": [
        {
          "internalType": "string",
          "name": "",
          "type": "string"
        }
      ],
      "stateMutability": "view",
      "type": "function"
    },
    {
      "inputs": [
        {
          "internalType": "uint256",
          "name": "tokenId",
          "type": "uint256"
        }
      ],
      "name": "tokenURI",
      "outputs": [
        {
          "internalType": "string",
          "name": "",
          "type": "string"
        }
      ],
      "stateMutability": "view",
      "type": "function"
    },
    {
      "inputs": [
        {
          "internalType": "address",
          "name": "from",
          "type": "address"
        },
        {
          "internalType": "address",
          "name": "to",
          "type": "address"
        },
        {
          "internalType": "uint256",
          "name": "tokenId",
          "type": "uint256"
        }
      ],
      "name": "transferFrom",
      "outputs": [],
      "stateMutability": "nonpayable",
      "type": "function"
    },
    {
      "inputs": [
        {
          "internalType": "address",
          "name": "newOwner",
          "type": "address"
        }
      ],
      "name": "transferOwnership",
      "outputs": [],
      "stateMutability": "nonpayable",
      "type": "function"
    }
  ],
  "bytecode": "0x60806040523480156200001157600080fd5b506040518060400160405280600a81526020017f4865616c746850617373000000000000000000000000000000000000000000008152506040518060400160405280600581526020017f4850415353000000000000000000000000000000000000000000000000000000815250816000908051906020019062000096929190620001a6565b508060019080519060200190620000af929190620001a6565b505050620000d2620000c6620000d860201b60201c565b620000e060201b60201c565b620002bb565b600033905090565b6000600760009054906101000a900473ffffffffffffffffffffffffffffffffffffffff16905081600760006101000a81548173ffffffffffffffffffffffffffffffffffffffff021916908373ffffffffffffffffffffffffffffffffffffffff1602179055508173ffffffffffffffffffffffffffffffffffffffff168173ffffffffffffffffffffffffffffffffffffffff167f8be0079c531659141344cd1fd0a4f28419497f9722a3daafe3b4186f6b6457e060405160405180910390a35050565b828054620001b49062000256565b90600052602060002090601f016020900481019282620001d8576000855562000224565b82601f10620001f357805160ff191683800117855562000224565b8280016001018555821562000224579182015b828111156200022357825182559160200191906001019062000206565b5b50905062000233919062000237565b5090565b5b808211156200025257600081600090555060010162000238565b5090565b600060028204905060018216806200026f57607f821691505b602082108114156200028657620002856200028c565b5b50919050565b7f4e487b7100000000000000000000000000000000000000000000000000000000600052602260045260246000fd5b612e0680620002cb6000396000f3fe608060405234801561001057600080fd5b506004361061010b5760003560e01c8063715018a6116100a2578063b88d4fde11610071578063b88d4fde146102a4578063c87b56dd146102c0578063daba2f38146102f0578063e985e9c514610320578063f2fde38b146103505761010b565b8063715018a6146102425780638da5cb5b1461024c57806395d89b411461026a578063a22cb465146102885761010b565b806323b872dd116100de57806323b872dd146101aa57806342842e0e146101c65780636352211e146101e257806370a08231146102125761010b565b806301ffc9a71461011057806306fdde0314610140578063081812fc1461015e578063095ea7b31461018e575b600080fd5b61012a60048036038101906101259190611ee4565b61036c565b604051610137919061274e565b60405180910390f35b61014861044e565b6040516101559190612769565b60405180910390f35b61017860048036038101906101739190611f36565b6104e0565b60405161018591906126e7565b60405180910390f35b6101a860048036038101906101a39190611ea8565b610565565b005b6101c460048036038101906101bf9190611da2565b61067d565b005b6101e060048036038101906101db9190611da2565b6106dd565b005b6101fc60048036038101906101f79190611f36565b6106fd565b60405161020991906126e7565b60405180910390f35b61022c60048036038101906102279190611d3d565b6107af565b60405161023991906129cb565b60405180910390f35b61024a610867565b005b6102546108ef565b60405161026191906126e7565b60405180910390f35b610272610919565b60405161027f9190612769565b60405180910390f35b6102a2600480360381019061029d9190611e6c565b6109ab565b005b6102be60048036038101906102b99190611df1565b6109c1565b005b6102da60048036038101906102d59190611f36565b610a23565b6040516102e79190612769565b60405180910390f35b61030a60048036038101906103059190611d3d565b610b75565b60405161031791906129cb565b60405180910390f35b61033a60048036038101906103359190611d66565b610c5d565b604051610347919061274e565b60405180910390f35b61036a60048036038101906103659190611d3d565b610cf1565b005b60007f80ac58cd000000000000000000000000000000000000000000000000000000007bffffffffffffffffffffffffffffffffffffffffffffffffffffffff1916827bffffffffffffffffffffffffffffffffffffffffffffffffffffffff1916148061043757507f5b5e139f000000000000000000000000000000000000000000000000000000007bffffffffffffffffffffffffffffffffffffffffffffffffffffffff1916827bffffffffffffffffffffffffffffffffffffffffffffffffffffffff1916145b80610447575061044682610de9565b5b9050919050565b60606000805461045d90612bfb565b80601f016020809104026020016040519081016040528092919081815260200182805461048990612bfb565b80156104d65780601f106104ab576101008083540402835291602001916104d6565b820191906000526020600020905b8154815290600101906020018083116104b957829003601f168201915b5050505050905090565b60006104eb82610e53565b61052a576040517f08c379a00000000000000000000000000000000000000000000000000000000081526004016105219061290b565b60405180910390fd5b6004600083815260200190815260200160002060009054906101000a900473ffffffffffffffffffffffffffffffffffffffff169050919050565b6000610570826106fd565b90508073ffffffffffffffffffffffffffffffffffffffff168373ffffffffffffffffffffffffffffffffffffffff1614156105e1576040517f08c379a00000000000000000000000000000000000000000000000000000000081526004016105d89061298b565b60405180910390fd5b8073ffffffffffffffffffffffffffffffffffffffff16610600610ebf565b73ffffffffffffffffffffffffffffffffffffffff16148061062f575061062e81610629610ebf565b610c5d565b5b61066e576040517f08c379a00000000000000000000000000000000000000000000000000000000081526004016106659061284b565b60405180910390fd5b6106788383610ec7565b505050565b61068e610688610ebf565b82610f80565b6106cd576040517f08c379a00000000000000000000000000000000000000000000000000000000081526004016106c4906129ab565b60405180910390fd5b6106d883838361105e565b505050565b6106f8838383604051806020016040528060008152506109c1565b505050565b6000806002600084815260200190815260200160002060009054906101000a900473ffffffffffffffffffffffffffffffffffffffff169050600073ffffffffffffffffffffffffffffffffffffffff168173ffffffffffffffffffffffffffffffffffffffff1614156107a6576040517f08c379a000000000000000000000000000000000000000000000000000000000815260040161079d9061288b565b60405180910390fd5b80915050919050565b60008073ffffffffffffffffffffffffffffffffffffffff168273ffffffffffffffffffffffffffffffffffffffff161415610820576040517f08c379a00000000000000000000000000000000000000000000000000000000081526004016108179061286b565b60405180910390fd5b600360008373ffffffffffffffffffffffffffffffffffffffff1673ffffffffffffffffffffffffffffffffffffffff168152602001908152602001600020549050919050565b61086f610ebf565b73ffffffffffffffffffffffffffffffffffffffff1661088d6108ef565b73ffffffffffffffffffffffffffffffffffffffff16146108e3576040517f08c379a00000000000000000000000000000000000000000000000000000000081526004016108da9061292b565b60405180910390fd5b6108ed60006112ba565b565b6000600760009054906101000a900473ffffffffffffffffffffffffffffffffffffffff16905090565b60606001805461092890612bfb565b80601f016020809104026020016040519081016040528092919081815260200182805461095490612bfb565b80156109a15780601f10610976576101008083540402835291602001916109a1565b820191906000526020600020905b81548152906001019060200180831161098457829003601f168201915b5050505050905090565b6109bd6109b6610ebf565b8383611380565b5050565b6109d26109cc610ebf565b83610f80565b610a11576040517f08c379a0000000000000000000000000000000000000000000000000000000008152600401610a08906129ab565b60405180910390fd5b610a1d848484846114ed565b50505050565b6060610a2e82610e53565b610a6d576040517f08c379a0000000000000000000000000000000000000000000000000000000008152600401610a64906128eb565b60405180910390fd5b6000600660008481526020019081526020016000208054610a8d90612bfb565b80601f0160208091040260200160405190810160405280929190818152602001828054610ab990612bfb565b8015610b065780601f10610adb57610100808354040283529160200191610b06565b820191906000526020600020905b815481529060010190602001808311610ae957829003601f168201915b505050505090506000610b17611549565b9050600081511415610b2d578192505050610b70565b600082511115610b62578082604051602001610b4a9291906126c3565b60405160208183030381529060405292505050610b70565b610b6b84611560565b925050505b919050565b6000610b7f610ebf565b73ffffffffffffffffffffffffffffffffffffffff16610b9d6108ef565b73ffffffffffffffffffffffffffffffffffffffff1614610bf3576040517f08c379a0000000000000000000000000000000000000000000000000000000008152600401610bea9061292b565b60405180910390fd5b610bfd6008611607565b6000610c09600861161d565b9050610c15838261162b565b610c54816040518060400160405280601e81526020017f687474703a2f2f6578616d706c652e636f6d2f6d61737465722e6a736f6e00008152506117f9565b80915050919050565b6000600560008473ffffffffffffffffffffffffffffffffffffffff1673ffffffffffffffffffffffffffffffffffffffff16815260200190815260200160002060008373ffffffffffffffffffffffffffffffffffffffff1673ffffffffffffffffffffffffffffffffffffffff16815260200190815260200160002060009054906101000a900460ff16905092915050565b610cf9610ebf565b73ffffffffffffffffffffffffffffffffffffffff16610d176108ef565b73ffffffffffffffffffffffffffffffffffffffff1614610d6d576040517f08c379a0000000000000000000000000000000000000000000000000000000008152600401610d649061292b565b60405180910390fd5b600073ffffffffffffffffffffffffffffffffffffffff168173ffffffffffffffffffffffffffffffffffffffff161415610ddd576040517f08c379a0000000000000000000000000000000000000000000000000000000008152600401610dd4906127ab565b60405180910390fd5b610de6816112ba565b50565b60007f01ffc9a7000000000000000000000000000000000000000000000000000000007bffffffffffffffffffffffffffffffffffffffffffffffffffffffff1916827bffffffffffffffffffffffffffffffffffffffffffffffffffffffff1916149050919050565b60008073ffffffffffffffffffffffffffffffffffffffff166002600084815260200190815260200160002060009054906101000a900473ffffffffffffffffffffffffffffffffffffffff1673ffffffffffffffffffffffffffffffffffffffff1614159050919050565b600033905090565b816004600083815260200190815260200160002060006101000a81548173ffffffffffffffffffffffffffffffffffffffff021916908373ffffffffffffffffffffffffffffffffffffffff160217905550808273ffffffffffffffffffffffffffffffffffffffff16610f3a836106fd565b73ffffffffffffffffffffffffffffffffffffffff167f8c5be1e5ebec7d5bd14f71427d1e84f3dd0314c0f7b2291e5b200ac8c7c3b92560405160405180910390a45050565b6000610f8b82610e53565b610fca576040517f08c379a0000000000000000000000000000000000000000000000000000000008152600401610fc19061282b565b60405180910390fd5b6000610fd5836106fd565b90508073ffffffffffffffffffffffffffffffffffffffff168473ffffffffffffffffffffffffffffffffffffffff16148061104457508373ffffffffffffffffffffffffffffffffffffffff1661102c846104e0565b73ffffffffffffffffffffffffffffffffffffffff16145b8061105557506110548185610c5d565b5b91505092915050565b8273ffffffffffffffffffffffffffffffffffffffff1661107e826106fd565b73ffffffffffffffffffffffffffffffffffffffff16146110d4576040517f08c379a00000000000000000000000000000000000000000000000000000000081526004016110cb9061294b565b60405180910390fd5b600073ffffffffffffffffffffffffffffffffffffffff168273ffffffffffffffffffffffffffffffffffffffff161415611144576040517f08c379a000000000000000000000000000000000000000000000000000000000815260040161113b906127eb565b60405180910390fd5b61114f83838361186d565b61115a600082610ec7565b6001600360008573ffffffffffffffffffffffffffffffffffffffff1673ffffffffffffffffffffffffffffffffffffffff16815260200190815260200160002060008282546111aa9190612b11565b925050819055506001600360008473ffffffffffffffffffffffffffffffffffffffff1673ffffffffffffffffffffffffffffffffffffffff16815260200190815260200160002060008282546112019190612a8a565b92505081905550816002600083815260200190815260200160002060006101000a81548173ffffffffffffffffffffffffffffffffffffffff021916908373ffffffffffffffffffffffffffffffffffffffff160217905550808273ffffffffffffffffffffffffffffffffffffffff168473ffffffffffffffffffffffffffffffffffffffff167fddf252ad1be2c89b69c2b068fc378daa952ba7f163c4a11628f55a4df523b3ef60405160405180910390a4505050565b6000600760009054906101000a900473ffffffffffffffffffffffffffffffffffffffff16905081600760006101000a81548173ffffffffffffffffffffffffffffffffffffffff021916908373ffffffffffffffffffffffffffffffffffffffff1602179055508173ffffffffffffffffffffffffffffffffffffffff168173ffffffffffffffffffffffffffffffffffffffff167f8be0079c531659141344cd1fd0a4f28419497f9722a3daafe3b4186f6b6457e060405160405180910390a35050565b8173ffffffffffffffffffffffffffffffffffffffff168373ffffffffffffffffffffffffffffffffffffffff1614156113ef576040517f08c379a00000000000000000000000000000000000000000000000000000000081526004016113e69061280b565b60405180910390fd5b80600560008573ffffffffffffffffffffffffffffffffffffffff1673ffffffffffffffffffffffffffffffffffffffff16815260200190815260200160002060008473ffffffffffffffffffffffffffffffffffffffff1673ffffffffffffffffffffffffffffffffffffffff16815260200190815260200160002060006101000a81548160ff0219169083151502179055508173ffffffffffffffffffffffffffffffffffffffff168373ffffffffffffffffffffffffffffffffffffffff167f17307eab39ab6107e8899845ad3d59bd9653f200f220920489ca2b5937696c31836040516114e0919061274e565b60405180910390a3505050565b6114f884848461105e565b61150484848484611872565b611543576040517f08c379a000000000000000000000000000000000000000000000000000000000815260040161153a9061278b565b60405180910390fd5b50505050565b606060405180602001604052806000815250905090565b606061156b82610e53565b6115aa576040517f08c379a00000000000000000000000000000000000000000000000000000000081526004016115a19061296b565b60405180910390fd5b60006115b4611549565b905060008151116115d457604051806020016040528060008152506115ff565b806115de84611a09565b6040516020016115ef9291906126c3565b6040516020818303038152906040525b915050919050565b6001816000016000828254019250508190555050565b600081600001549050919050565b600073ffffffffffffffffffffffffffffffffffffffff168273ffffffffffffffffffffffffffffffffffffffff16141561169b576040517f08c379a0000000000000000000000000000000000000000000000000000000008152600401611692906128cb565b60405180910390fd5b6116a481610e53565b156116e4576040517f08c379a00000000000000000000000000000000000000000000000000000000081526004016116db906127cb565b60405180910390fd5b6116f06000838361186d565b6001600360008473ffffffffffffffffffffffffffffffffffffffff1673ffffffffffffffffffffffffffffffffffffffff16815260200190815260200160002060008282546117409190612a8a565b92505081905550816002600083815260200190815260200160002060006101000a81548173ffffffffffffffffffffffffffffffffffffffff021916908373ffffffffffffffffffffffffffffffffffffffff160217905550808273ffffffffffffffffffffffffffffffffffffffff16600073ffffffffffffffffffffffffffffffffffffffff167fddf252ad1be2c89b69c2b068fc378daa952ba7f163c4a11628f55a4df523b3ef60405160405180910390a45050565b61180282610e53565b611841576040517f08c379a0000000000000000000000000000000000000000000000000000000008152600401611838906128ab565b60405180910390fd5b80600660008481526020019081526020016000209080519060200190611868929190611bc9565b505050565b505050565b60006118938473ffffffffffffffffffffffffffffffffffffffff16611bb6565b156119fc578373ffffffffffffffffffffffffffffffffffffffff1663150b7a026118bc610ebf565b8786866040518563ffffffff1660e01b81526004016118de9493929190612702565b602060405180830381600087803b1580156118f857600080fd5b505af192505050801561192957506040513d601f19601f820116820180604052508101906119269190611f0d565b60015b6119ac573d8060008114611959576040519150601f19603f3d011682016040523d82523d6000602084013e61195e565b606091505b506000815114156119a4576040517f08c379a000000000000000000000000000000000000000000000000000000000815260040161199b9061278b565b60405180910390fd5b805181602001fd5b63150b7a0260e01b7bffffffffffffffffffffffffffffffffffffffffffffffffffffffff1916817bffffffffffffffffffffffffffffffffffffffffffffffffffffffff191614915050611a01565b600190505b949350505050565b60606000821415611a51576040518060400160405280600181526020017f30000000000000000000000000000000000000000000000000000000000000008152509050611bb1565b600082905060005b60008214611a83578080611a6c90612c2d565b915050600a82611a7c9190612ae0565b9150611a59565b60008167ffffffffffffffff811115611ac5577f4e487b7100000000000000000000000000000000000000000000000000000000600052604160045260246000fd5b6040519080825280601f01601f191660200182016040528015611af75781602001600182028036833780820191505090505b5090505b60008514611baa57600182611b109190612b11565b9150600a85611b1f9190612c76565b6030611b2b9190612a8a565b60f81b818381518110611b67577f4e487b7100000000000000000000000000000000000000000000000000000000600052603260045260246000fd5b60200101907effffffffffffffffffffffffffffffffffffffffffffffffffffffffffffff1916908160001a905350600a85611ba39190612ae0565b9450611afb565b8093505050505b919050565b600080823b905060008111915050919050565b828054611bd590612bfb565b90600052602060002090601f016020900481019282611bf75760008555611c3e565b82601f10611c1057805160ff1916838001178555611c3e565b82800160010185558215611c3e579182015b82811115611c3d578251825591602001919060010190611c22565b5b509050611c4b9190611c4f565b5090565b5b80821115611c68576000816000905550600101611c50565b5090565b6000611c7f611c7a84612a17565b6129e6565b905082815260208101848484011115611c9757600080fd5b611ca2848285612bb9565b509392505050565b600081359050611cb981612d74565b92915050565b600081359050611cce81612d8b565b92915050565b600081359050611ce381612da2565b92915050565b600081519050611cf881612da2565b92915050565b600082601f830112611d0f57600080fd5b8135611d1f848260208601611c6c565b91505092915050565b600081359050611d3781612db9565b92915050565b600060208284031215611d4f57600080fd5b6000611d5d84828501611caa565b91505092915050565b60008060408385031215611d7957600080fd5b6000611d8785828601611caa565b9250506020611d9885828601611caa565b9150509250929050565b600080600060608486031215611db757600080fd5b6000611dc586828701611caa565b9350506020611dd686828701611caa565b9250506040611de786828701611d28565b9150509250925092565b60008060008060808587031215611e0757600080fd5b6000611e1587828801611caa565b9450506020611e2687828801611caa565b9350506040611e3787828801611d28565b925050606085013567ffffffffffffffff811115611e5457600080fd5b611e6087828801611cfe565b91505092959194509250565b60008060408385031215611e7f57600080fd5b6000611e8d85828601611caa565b9250506020611e9e85828601611cbf565b9150509250929050565b60008060408385031215611ebb57600080fd5b6000611ec985828601611caa565b9250506020611eda85828601611d28565b9150509250929050565b600060208284031215611ef657600080fd5b6000611f0484828501611cd4565b91505092915050565b600060208284031215611f1f57600080fd5b6000611f2d84828501611ce9565b91505092915050565b600060208284031215611f4857600080fd5b6000611f5684828501611d28565b91505092915050565b611f6881612b45565b82525050565b611f7781612b57565b82525050565b6000611f8882612a47565b611f928185612a5d565b9350611fa2818560208601612bc8565b611fab81612d63565b840191505092915050565b6000611fc182612a52565b611fcb8185612a6e565b9350611fdb818560208601612bc8565b611fe481612d63565b840191505092915050565b6000611ffa82612a52565b6120048185612a7f565b9350612014818560208601612bc8565b80840191505092915050565b600061202d603283612a6e565b91507f4552433732313a207472616e7366657220746f206e6f6e20455243373231526560008301527f63656976657220696d706c656d656e74657200000000000000000000000000006020830152604082019050919050565b6000612093602683612a6e565b91507f4f776e61626c653a206e6577206f776e657220697320746865207a65726f206160008301527f64647265737300000000000000000000000000000000000000000000000000006020830152604082019050919050565b60006120f9601c83612a6e565b91507f4552433732313a20746f6b656e20616c7265616479206d696e746564000000006000830152602082019050919050565b6000612139602483612a6e565b91507f4552433732313a207472616e7366657220746f20746865207a65726f2061646460008301527f72657373000000000000000000000000000000000000000000000000000000006020830152604082019050919050565b600061219f601983612a6e565b91507f4552433732313a20617070726f766520746f2063616c6c6572000000000000006000830152602082019050919050565b60006121df602c83612a6e565b91507f4552433732313a206f70657261746f7220717565727920666f72206e6f6e657860008301527f697374656e7420746f6b656e00000000000000000000000000000000000000006020830152604082019050919050565b6000612245603883612a6e565b91507f4552433732313a20617070726f76652063616c6c6572206973206e6f74206f7760008301527f6e6572206e6f7220617070726f76656420666f7220616c6c00000000000000006020830152604082019050919050565b60006122ab602a83612a6e565b91507f4552433732313a2062616c616e636520717565727920666f7220746865207a6560008301527f726f2061646472657373000000000000000000000000000000000000000000006020830152604082019050919050565b6000612311602983612a6e565b91507f4552433732313a206f776e657220717565727920666f72206e6f6e657869737460008301527f656e7420746f6b656e00000000000000000000000000000000000000000000006020830152604082019050919050565b6000612377602e83612a6e565b91507f45524337323155524953746f726167653a2055524920736574206f66206e6f6e60008301527f6578697374656e7420746f6b656e0000000000000000000000000000000000006020830152604082019050919050565b60006123dd602083612a6e565b91507f4552433732313a206d696e7420746f20746865207a65726f20616464726573736000830152602082019050919050565b600061241d603183612a6e565b91507f45524337323155524953746f726167653a2055524920717565727920666f722060008301527f6e6f6e6578697374656e7420746f6b656e0000000000000000000000000000006020830152604082019050919050565b6000612483602c83612a6e565b91507f4552433732313a20617070726f76656420717565727920666f72206e6f6e657860008301527f697374656e7420746f6b656e00000000000000000000000000000000000000006020830152604082019050919050565b60006124e9602083612a6e565b91507f4f776e61626c653a2063616c6c6572206973206e6f7420746865206f776e65726000830152602082019050919050565b6000612529602983612a6e565b91507f4552433732313a207472616e73666572206f6620746f6b656e2074686174206960008301527f73206e6f74206f776e00000000000000000000000000000000000000000000006020830152604082019050919050565b600061258f602f83612a6e565b91507f4552433732314d657461646174613a2055524920717565727920666f72206e6f60008301527f6e6578697374656e7420746f6b656e00000000000000000000000000000000006020830152604082019050919050565b60006125f5602183612a6e565b91507f4552433732313a20617070726f76616c20746f2063757272656e74206f776e6560008301527f72000000000000000000000000000000000000000000000000000000000000006020830152604082019050919050565b600061265b603183612a6e565b91507f4552433732313a207472616e736665722063616c6c6572206973206e6f74206f60008301527f776e6572206e6f7220617070726f7665640000000000000000000000000000006020830152604082019050919050565b6126bd81612baf565b82525050565b60006126cf8285611fef565b91506126db8284611fef565b91508190509392505050565b60006020820190506126fc6000830184611f5f565b92915050565b60006080820190506127176000830187611f5f565b6127246020830186611f5f565b61273160408301856126b4565b81810360608301526127438184611f7d565b905095945050505050565b60006020820190506127636000830184611f6e565b92915050565b600060208201905081810360008301526127838184611fb6565b905092915050565b600060208201905081810360008301526127a481612020565b9050919050565b600060208201905081810360008301526127c481612086565b9050919050565b600060208201905081810360008301526127e4816120ec565b9050919050565b600060208201905081810360008301526128048161212c565b9050919050565b6000602082019050818103600083015261282481612192565b9050919050565b60006020820190508181036000830152612844816121d2565b9050919050565b6000602082019050818103600083015261286481612238565b9050919050565b600060208201905081810360008301526128848161229e565b9050919050565b600060208201905081810360008301526128a481612304565b9050919050565b600060208201905081810360008301526128c48161236a565b9050919050565b600060208201905081810360008301526128e4816123d0565b9050919050565b6000602082019050818103600083015261290481612410565b9050919050565b6000602082019050818103600083015261292481612476565b9050919050565b60006020820190508181036000830152612944816124dc565b9050919050565b600060208201905081810360008301526129648161251c565b9050919050565b6000602082019050818103600083015261298481612582565b9050919050565b600060208201905081810360008301526129a4816125e8565b9050919050565b600060208201905081810360008301526129c48161264e565b9050919050565b60006020820190506129e060008301846126b4565b92915050565b6000604051905081810181811067ffffffffffffffff82111715612a0d57612a0c612d34565b5b8060405250919050565b600067ffffffffffffffff821115612a3257612a31612d34565b5b601f19601f8301169050602081019050919050565b600081519050919050565b600081519050919050565b600082825260208201905092915050565b600082825260208201905092915050565b600081905092915050565b6000612a9582612baf565b9150612aa083612baf565b9250827fffffffffffffffffffffffffffffffffffffffffffffffffffffffffffffffff03821115612ad557612ad4612ca7565b5b828201905092915050565b6000612aeb82612baf565b9150612af683612baf565b925082612b0657612b05612cd6565b5b828204905092915050565b6000612b1c82612baf565b9150612b2783612baf565b925082821015612b3a57612b39612ca7565b5b828203905092915050565b6000612b5082612b8f565b9050919050565b60008115159050919050565b60007fffffffff0000000000000000000000000000000000000000000000000000000082169050919050565b600073ffffffffffffffffffffffffffffffffffffffff82169050919050565b6000819050919050565b82818337600083830152505050565b60005b83811015612be6578082015181840152602081019050612bcb565b83811115612bf5576000848401525b50505050565b60006002820490506001821680612c1357607f821691505b60208210811415612c2757612c26612d05565b5b50919050565b6000612c3882612baf565b91507fffffffffffffffffffffffffffffffffffffffffffffffffffffffffffffffff821415612c6b57612c6a612ca7565b5b600182019050919050565b6000612c8182612baf565b9150612c8c83612baf565b925082612c9c57612c9b612cd6565b5b828206905092915050565b7f4e487b7100000000000000000000000000000000000000000000000000000000600052601160045260246000fd5b7f4e487b7100000000000000000000000000000000000000000000000000000000600052601260045260246000fd5b7f4e487b7100000000000000000000000000000000000000000000000000000000600052602260045260246000fd5b7f4e487b7100000000000000000000000000000000000000000000000000000000600052604160045260246000fd5b6000601f19601f8301169050919050565b612d7d81612b45565b8114612d8857600080fd5b50565b612d9481612b57565b8114612d9f57600080fd5b50565b612dab81612b63565b8114612db657600080fd5b50565b612dc281612baf565b8114612dcd57600080fd5b5056fea26469706673582212202bbc41e3da12d36862580891a34488218d8ded9d05f62bb1376c201e8275bbd064736f6c63430008000033",
  "linkReferences": {},
  "deployedLinkReferences": {}
}